{"project/contracts/PortfolioReport.sol":{"PortfolioReport":{"abi":[{"anonymous":false,"inputs":[{"indexed":true,"internalType":"uint256","name":"reportId","type":"uint256"},{"indexed":true,"internalType":"address","name":"wallet","type":"address"},{"indexed":false,"internalType":"uint256","name":"totalValueUSDC","type":"uint256"},{"indexed":false,"internalType":"uint8","name":"overallHealth","type":"uint8"},{"indexed":false,"internalType":"uint256","name":"tokenCount","type":"uint256"}],"name":"ReportGenerated","type":"event"},{"inputs":[{"internalType":"uint256","name":"id","type":"uint256"}],"name":"getReport","outputs":[{"internalType":"address","name":"wallet","type":"address"},{"internalType":"uint256","name":"totalValueUSDC","type":"uint256"},{"internalType":"uint8","name":"overallHealth","type":"uint8"},{"internalType":"string","name":"healthLabel","type":"string"},{"internalType":"uint256","name":"sellCount","type":"uint256"},{"internalType":"uint256","name":"holdCount","type":"uint256"},{"internalType":"uint256","name":"addCount","type":"uint256"},{"internalType":"uint256","name":"createdAt","type":"uint256"},{"internalType":"uint256","name":"tokenCount","type":"uint256"}],"stateMutability":"view","type":"function"},{"inputs":[{"internalType":"uint256","name":"reportId","type":"uint256"},{"internalType":"uint256","name":"tokenIndex","type":"uint256"}],"name":"getReportToken","outputs":[{"components":[{"internalType":"string","name":"symbol","type":"string"},{"internalType":"string","name":"pair","type":"string"},{"internalType":"uint256","name":"balance","type":"uint256"},{"internalType":"uint256","name":"valueUSDC","type":"uint256"},{"internalType":"enum PortfolioReport.TokenVerdict","name":"verdict","type":"uint8"},{"internalType":"uint8","name":"confidence","type":"uint8"},{"internalType":"string","name":"reasoning","type":"string"},{"internalType":"uint8","name":"portfolioWeight","type":"uint8"}],"internalType":"struct PortfolioReport.TokenAnalysis","name":"","type":"tuple"}],"stateMutability":"view","type":"function"},{"inputs":[{"internalType":"address","name":"user","type":"address"}],"name":"getUserReports","outputs":[{"internalType":"uint256[]","name":"","type":"uint256[]"}],"stateMutability":"view","type":"function"},{"inputs":[],"name":"reportCount","outputs":[{"internalType":"uint256","name":"","type":"uint256"}],"stateMutability":"view","type":"function"},{"inputs":[{"internalType":"uint256","name":"","type":"uint256"}],"name":"reports","outputs":[{"internalType":"uint256","name":"id","type":"uint256"},{"internalType":"address","name":"wallet","type":"address"},{"internalType":"uint256","name":"totalValueUSDC","type":"uint256"},{"internalType":"uint8","name":"overallHealth","type":"uint8"},{"internalType":"string","name":"healthLabel","type":"string"},{"internalType":"uint256","name":"sellCount","type":"uint256"},{"internalType":"uint256","name":"holdCount","type":"uint256"},{"internalType":"uint256","name":"addCount","type":"uint256"},{"internalType":"uint256","name":"createdAt","type":"uint256"}],"stateMutability":"view","type":"function"},{"inputs":[{"internalType":"uint256","name":"totalValueUSDC","type":"uint256"},{"internalType":"uint8","name":"overallHealth","type":"uint8"},{"internalType":"string","name":"healthLabel","type":"string"},{"internalType":"string[]","name":"symbols","type":"string[]"},{"internalType":"string[]","name":"pairs","type":"string[]"},{"internalType":"uint256[]","name":"balances","type":"uint256[]"},{"internalType":"uint256[]","name":"valuesUSDC","type":"uint256[]"},{"internalType":"uint8[]","name":"verdicts","type":"uint8[]"},{"internalType":"uint8[]","name":"confidences","type":"uint8[]"},{"internalType":"string[]","name":"reasonings","type":"string[]"},{"internalType":"uint8[]","name":"weights","type":"uint8[]"}],"name":"saveReport","outputs":[{"internalType":"uint256","name":"","type":"uint256"}],"stateMutability":"nonpayable","type":"function"},{"inputs":[{"internalType":"address","name":"","type":"address"},{"internalType":"uint256","name":"","type":"uint256"}],"name":"userReports","outputs":[{"internalType":"uint256","name":"","type":"uint256"}],"stateMutability":"view","type":"function"}],"evm":{"bytecode":{"linkReferences":{},"object":"608080604052346100165761109f908161001b8239f35b5f80fdfe6080806040526004361015610012575f80fd5b5f3560e01c908163185c6f8414610caf5750806337fd932d14610b3c5780634e7f9b1914610a945780635a345e4614610a3d57806370a05afc146109955780637104b2b1146101125763c942adf714610069575f80fd5b3461010e57602036600319011261010e576004355f525f60205260405f20805460018060a01b0360018301541691600281015460ff600383015416916100b160048201610f6d565b926100f46005830154946006840154926009600786015495015495604051998a998a5260208a015260408901526060880152610120806080890152870190610cc9565b9360a086015260c085015260e08401526101008301520390f35b5f80fd5b3461010e5761016036600319011261010e5760243560ff8116810361010e576044356001600160401b03811161010e57610150903690600401610d83565b6064356001600160401b03811161010e5761016f903690600401610def565b906084356001600160401b03811161010e5761018f903690600401610def565b9160a4356001600160401b03811161010e576101af903690600401610e6f565b9260c4356001600160401b03811161010e576101cf903690600401610e6f565b9360e4356001600160401b03811161010e576101ef903690600401610ecd565b93610104356001600160401b03811161010e57610210903690600401610ecd565b610124356001600160401b03811161010e57610230903690600401610def565b96610144356001600160401b03811161010e57610251903690600401610ecd565b936002549561025f8761100e565b600255865f525f60205260405f209487865560018601336bffffffffffffffffffffffff60a01b82541617905560043560028701556003860160ff8d1660ff198254161790558051906001600160401b03821161066b5781906102c56004890154610f35565b601f8111610945575b50602090601f83116001146108d7575f926108cc575b50508160011b915f199060031b1c19161760048601555b4260098601555f975f995f985f9a5b83518c101561082f5760ff61031f8d85611030565b5116600381101561067f578c8f8180808f8194908f918f928f938f948f95610348888098611030565b519b61035391611030565b519961035e91611030565b519461036991611030565b519461037491611030565b5160ff169461038291611030565b519461038d91611030565b5160ff16946040519661039f88610d46565b87526020870152604086015260608501526103bd8560808601611044565b60a084015260c083015260e082015260088b0154600160401b81101561066b576001810160088d019081556103f29190611050565b61081c5781518051906001600160401b03821161066b5781906104158454610f35565b601f81116107cf575b50602090601f8311600114610767575f9261075c575b50508160011b915f199060031b1c19161781555b60208201518051906001600160401b03821161066b57819061046d6001850154610f35565b601f811161070c575b50602090601f831160011461069e575f92610693575b50508160011b915f199060031b1c19161760018201555b60408201516002820155606082015160038201556080820151600381101561067f576004820190815460ff61ff0060a087015160081b1692169061ffff19161717905560c08201518051906001600160401b03821161066b576105096005840154610f35565b601f8111610627575b50602090601f83116001146105b457928260e09360069360ff965f926105a9575b50508160011b915f199060031b1c19161760058201555b019201511660ff19825416179055600181145f1461057b575061056f6105759161100e565b9b61100e565b9a61030a565b9b9c909b6105955761058f6105759161100e565b9c61100e565b9b996105a36105759161100e565b9a61100e565b015190505f80610533565b90600584015f5260205f20915f5b601f198516811061060f57508360069360ff969360019360e097601f198116106105f7575b505050811b01600582015561054a565b01515f1960f88460031b161c191690555f80806105e7565b919260206001819286850151815501940192016105c2565b600584015f5260205f20601f840160051c810160208510610664575b601f830160051c82018110610659575050610512565b5f8155600101610643565b5080610643565b634e487b7160e01b5f52604160045260245ffd5b634e487b7160e01b5f52602160045260245ffd5b015190505f8061048c565b9250600184015f5260205f20905f935b601f19841685106106f1576001945083601f198116106106d9575b505050811b0160018201556104a3565b01515f1960f88460031b161c191690555f80806106c9565b818101518355602094850194600190930192909101906106ae565b909150600184015f5260205f20601f840160051c810160208510610755575b90849392915b601f830160051c82018110610747575050610476565b5f8155859450600101610731565b508061072b565b015190505f80610434565b9250835f5260205f20905f935b601f19841685106107b4576001945083601f1981161061079c575b505050811b018155610448565b01515f1960f88460031b161c191690555f808061078f565b81810151835560209485019460019093019290910190610774565b909150835f5260205f20601f840160051c810160208510610815575b90849392915b601f830160051c8201811061080757505061041e565b5f81558594506001016107f1565b50806107eb565b634e487b7160e01b5f525f60045260245ffd5b8e9192506007898e8d93600583015560068201550155335f52600160205260405f2092835493600160401b85101561066b5784610873916001602097018155610d1d565b81549060031b9085821b915f19901b19161790555160ff60405192600435845216848301526040820152817f413500b51a0ea82d0d7f2ea4bcb2e6b575ee972f05b36b16128f451d1b3d8ccf60603393a3604051908152f35b015190508d806102e4565b9250600488015f5260205f20905f935b601f198416851061092a576001945083601f19811610610912575b505050811b0160048601556102fb565b01515f1960f88460031b161c191690558d8080610902565b818101518355602094850194600190930192909101906108e7565b909150600488015f5260205f20601f840160051c81016020851061098e575b90849392915b601f830160051c820181106109805750506102ce565b5f815585945060010161096a565b5080610964565b3461010e5760208060031936011261010e576001600160a01b036109b7610d07565b165f5260019081815260405f2091604051918281855491828152019081955f52825f20905f5b818110610a2a57505050836109f3910384610d62565b6040519281840190828552518091526040840194915f5b828110610a175785870386f35b8351875295810195928101928401610a0a565b82548452928401929185019185016109dd565b3461010e57604036600319011261010e57610a56610d07565b6001600160a01b03165f9081526001602052604090208054602435919082101561010e57602091610a8691610d1d565b90546040519160031b1c8152f35b3461010e57602036600319011261010e576004355f525f60205260405f2060018060a01b0360018201541660028201549160ff600382015416906005810154916006820154600783015490610b1d600985015493610af9600460088801549701610f6d565b90604051998a998a5260208a015260408901526101208060608a0152880190610cc9565b94608087015260a086015260c085015260e08401526101008301520390f35b3461010e57604036600319011261010e57604051610b5981610d46565b5f60e060609283815283602082015282604082015282848201528260808201528260a08201528360c082015201526004355f525f602052610ba2602435600860405f2001611050565b5060405191610bb083610d46565b610bb982610f6d565b83526020610bc960018401610f6d565b8185019081526002840154604086019081526003850154908487019182526004860154916080880190610bff60ff851683611044565b60ff60a08a019460081c16845260ff6006610c1c60058b01610f6d565b9960c08c019a8b520154169660e08a01978852610c67610c516040519b898d52518c6101009a8b9101526101208d0190610cc9565b9651601f198c8903810160408e01529790610cc9565b9351908a01525160808901525192600384101561067f57879660ff610ca494819660a08b0152511660c089015251908783030160e0880152610cc9565b925116908301520390f35b3461010e575f36600319011261010e576020906002548152f35b91908251928382525f5b848110610cf3575050825f602080949584010152601f8019910116010190565b602081830181015184830182015201610cd3565b600435906001600160a01b038216820361010e57565b8054821015610d32575f5260205f2001905f90565b634e487b7160e01b5f52603260045260245ffd5b61010081019081106001600160401b0382111761066b57604052565b90601f801991011681019081106001600160401b0382111761066b57604052565b81601f8201121561010e578035906001600160401b03821161066b5760405192610db7601f8401601f191660200185610d62565b8284526020838301011161010e57815f926020809301838601378301015290565b6001600160401b03811161066b5760051b60200190565b9080601f8301121561010e57813590610e0782610dd8565b92610e156040519485610d62565b828452602092838086019160051b8301019280841161010e57848301915b848310610e435750505050505090565b82356001600160401b03811161010e578691610e6484848094890101610d83565b815201920191610e33565b81601f8201121561010e57803591610e8683610dd8565b92610e946040519485610d62565b808452602092838086019260051b82010192831161010e578301905b828210610ebe575050505090565b81358152908301908301610eb0565b81601f8201121561010e57803591610ee483610dd8565b92610ef26040519485610d62565b808452602092838086019260051b82010192831161010e578301905b828210610f1c575050505090565b813560ff8116810361010e578152908301908301610f0e565b90600182811c92168015610f63575b6020831014610f4f57565b634e487b7160e01b5f52602260045260245ffd5b91607f1691610f44565b9060405191825f825492610f8084610f35565b9081845260019485811690815f14610feb5750600114610fab575b5050610fa992500383610d62565b565b909391505f52602090815f20935f915b818310610fd3575050610fa993508201015f80610f9b565b85548884018501529485019487945091830191610fbb565b915050610fa994506020925060ff191682840152151560051b8201015f80610f9b565b5f19811461101c5760010190565b634e487b7160e01b5f52601160045260245ffd5b8051821015610d325760209160051b010190565b600382101561067f5752565b8054821015610d32575f52600760205f20910201905f9056fea26469706673582212202734f023d566844c89e214b2ab1b83fcea2c999ef983d8cccd8aef0e08a6cc3264736f6c63430008140033","opcodes":"PUSH1 0x80 DUP1 PUSH1 0x40 MSTORE CALLVALUE PUSH2 0x16 JUMPI PUSH2 0x109F SWAP1 DUP2 PUSH2 0x1B DUP3 CODECOPY RETURN JUMPDEST PUSH0 DUP1 REVERT INVALID PUSH1 0x80 DUP1 PUSH1 0x40 MSTORE PUSH1 0x4 CALLDATASIZE LT ISZERO PUSH2 0x12 JUMPI PUSH0 DUP1 REVERT JUMPDEST PUSH0 CALLDATALOAD PUSH1 0xE0 SHR SWAP1 DUP2 PUSH4 0x185C6F84 EQ PUSH2 0xCAF JUMPI POP DUP1 PUSH4 0x37FD932D EQ PUSH2 0xB3C JUMPI DUP1 PUSH4 0x4E7F9B19 EQ PUSH2 0xA94 JUMPI DUP1 PUSH4 0x5A345E46 EQ PUSH2 0xA3D JUMPI DUP1 PUSH4 0x70A05AFC EQ PUSH2 0x995 JUMPI DUP1 PUSH4 0x7104B2B1 EQ PUSH2 0x112 JUMPI PUSH4 0xC942ADF7 EQ PUSH2 0x69 JUMPI PUSH0 DUP1 REVERT JUMPDEST CALLVALUE PUSH2 0x10E JUMPI PUSH1 0x20 CALLDATASIZE PUSH1 0x3 NOT ADD SLT PUSH2 0x10E JUMPI PUSH1 0x4 CALLDATALOAD PUSH0 MSTORE PUSH0 PUSH1 0x20 MSTORE PUSH1 0x40 PUSH0 KECCAK256 DUP1 SLOAD PUSH1 0x1 DUP1 PUSH1 0xA0 SHL SUB PUSH1 0x1 DUP4 ADD SLOAD AND SWAP2 PUSH1 0x2 DUP2 ADD SLOAD PUSH1 0xFF PUSH1 0x3 DUP4 ADD SLOAD AND SWAP2 PUSH2 0xB1 PUSH1 0x4 DUP3 ADD PUSH2 0xF6D JUMP JUMPDEST SWAP3 PUSH2 0xF4 PUSH1 0x5 DUP4 ADD SLOAD SWAP5 PUSH1 0x6 DUP5 ADD SLOAD SWAP3 PUSH1 0x9 PUSH1 0x7 DUP7 ADD SLOAD SWAP6 ADD SLOAD SWAP6 PUSH1 0x40 MLOAD SWAP10 DUP11 SWAP10 DUP11 MSTORE PUSH1 0x20 DUP11 ADD MSTORE PUSH1 0x40 DUP10 ADD MSTORE PUSH1 0x60 DUP9 ADD MSTORE PUSH2 0x120 DUP1 PUSH1 0x80 DUP10 ADD MSTORE DUP8 ADD SWAP1 PUSH2 0xCC9 JUMP JUMPDEST SWAP4 PUSH1 0xA0 DUP7 ADD MSTORE PUSH1 0xC0 DUP6 ADD MSTORE PUSH1 0xE0 DUP5 ADD MSTORE PUSH2 0x100 DUP4 ADD MSTORE SUB SWAP1 RETURN JUMPDEST PUSH0 DUP1 REVERT JUMPDEST CALLVALUE PUSH2 0x10E JUMPI PUSH2 0x160 CALLDATASIZE PUSH1 0x3 NOT ADD SLT PUSH2 0x10E JUMPI PUSH1 0x24 CALLDATALOAD PUSH1 0xFF DUP2 AND DUP2 SUB PUSH2 0x10E JUMPI PUSH1 0x44 CALLDATALOAD PUSH1 0x1 PUSH1 0x1 PUSH1 0x40 SHL SUB DUP2 GT PUSH2 0x10E JUMPI PUSH2 0x150 SWAP1 CALLDATASIZE SWAP1 PUSH1 0x4 ADD PUSH2 0xD83 JUMP JUMPDEST PUSH1 0x64 CALLDATALOAD PUSH1 0x1 PUSH1 0x1 PUSH1 0x40 SHL SUB DUP2 GT PUSH2 0x10E JUMPI PUSH2 0x16F SWAP1 CALLDATASIZE SWAP1 PUSH1 0x4 ADD PUSH2 0xDEF JUMP JUMPDEST SWAP1 PUSH1 0x84 CALLDATALOAD PUSH1 0x1 PUSH1 0x1 PUSH1 0x40 SHL SUB DUP2 GT PUSH2 0x10E JUMPI PUSH2 0x18F SWAP1 CALLDATASIZE SWAP1 PUSH1 0x4 ADD PUSH2 0xDEF JUMP JUMPDEST SWAP2 PUSH1 0xA4 CALLDATALOAD PUSH1 0x1 PUSH1 0x1 PUSH1 0x40 SHL SUB DUP2 GT PUSH2 0x10E JUMPI PUSH2 0x1AF SWAP1 CALLDATASIZE SWAP1 PUSH1 0x4 ADD PUSH2 0xE6F JUMP JUMPDEST SWAP3 PUSH1 0xC4 CALLDATALOAD PUSH1 0x1 PUSH1 0x1 PUSH1 0x40 SHL SUB DUP2 GT PUSH2 0x10E JUMPI PUSH2 0x1CF SWAP1 CALLDATASIZE SWAP1 PUSH1 0x4 ADD PUSH2 0xE6F JUMP JUMPDEST SWAP4 PUSH1 0xE4 CALLDATALOAD PUSH1 0x1 PUSH1 0x1 PUSH1 0x40 SHL SUB DUP2 GT PUSH2 0x10E JUMPI PUSH2 0x1EF SWAP1 CALLDATASIZE SWAP1 PUSH1 0x4 ADD PUSH2 0xECD JUMP JUMPDEST SWAP4 PUSH2 0x104 CALLDATALOAD PUSH1 0x1 PUSH1 0x1 PUSH1 0x40 SHL SUB DUP2 GT PUSH2 0x10E JUMPI PUSH2 0x210 SWAP1 CALLDATASIZE SWAP1 PUSH1 0x4 ADD PUSH2 0xECD JUMP JUMPDEST PUSH2 0x124 CALLDATALOAD PUSH1 0x1 PUSH1 0x1 PUSH1 0x40 SHL SUB DUP2 GT PUSH2 0x10E JUMPI PUSH2 0x230 SWAP1 CALLDATASIZE SWAP1 PUSH1 0x4 ADD PUSH2 0xDEF JUMP JUMPDEST SWAP7 PUSH2 0x144 CALLDATALOAD PUSH1 0x1 PUSH1 0x1 PUSH1 0x40 SHL SUB DUP2 GT PUSH2 0x10E JUMPI PUSH2 0x251 SWAP1 CALLDATASIZE SWAP1 PUSH1 0x4 ADD PUSH2 0xECD JUMP JUMPDEST SWAP4 PUSH1 0x2 SLOAD SWAP6 PUSH2 0x25F DUP8 PUSH2 0x100E JUMP JUMPDEST PUSH1 0x2 SSTORE DUP7 PUSH0 MSTORE PUSH0 PUSH1 0x20 MSTORE PUSH1 0x40 PUSH0 KECCAK256 SWAP5 DUP8 DUP7 SSTORE PUSH1 0x1 DUP7 ADD CALLER PUSH12 0xFFFFFFFFFFFFFFFFFFFFFFFF PUSH1 0xA0 SHL DUP3 SLOAD AND OR SWAP1 SSTORE PUSH1 0x4 CALLDATALOAD PUSH1 0x2 DUP8 ADD SSTORE PUSH1 0x3 DUP7 ADD PUSH1 0xFF DUP14 AND PUSH1 0xFF NOT DUP3 SLOAD AND OR SWAP1 SSTORE DUP1 MLOAD SWAP1 PUSH1 0x1 PUSH1 0x1 PUSH1 0x40 SHL SUB DUP3 GT PUSH2 0x66B JUMPI DUP2 SWAP1 PUSH2 0x2C5 PUSH1 0x4 DUP10 ADD SLOAD PUSH2 0xF35 JUMP JUMPDEST PUSH1 0x1F DUP2 GT PUSH2 0x945 JUMPI JUMPDEST POP PUSH1 0x20 SWAP1 PUSH1 0x1F DUP4 GT PUSH1 0x1 EQ PUSH2 0x8D7 JUMPI PUSH0 SWAP3 PUSH2 0x8CC JUMPI JUMPDEST POP POP DUP2 PUSH1 0x1 SHL SWAP2 PUSH0 NOT SWAP1 PUSH1 0x3 SHL SHR NOT AND OR PUSH1 0x4 DUP7 ADD SSTORE JUMPDEST TIMESTAMP PUSH1 0x9 DUP7 ADD SSTORE PUSH0 SWAP8 PUSH0 SWAP10 PUSH0 SWAP9 PUSH0 SWAP11 JUMPDEST DUP4 MLOAD DUP13 LT ISZERO PUSH2 0x82F JUMPI PUSH1 0xFF PUSH2 0x31F DUP14 DUP6 PUSH2 0x1030 JUMP JUMPDEST MLOAD AND PUSH1 0x3 DUP2 LT ISZERO PUSH2 0x67F JUMPI DUP13 DUP16 DUP2 DUP1 DUP1 DUP16 DUP2 SWAP5 SWAP1 DUP16 SWAP2 DUP16 SWAP3 DUP16 SWAP4 DUP16 SWAP5 DUP16 SWAP6 PUSH2 0x348 DUP9 DUP1 SWAP9 PUSH2 0x1030 JUMP JUMPDEST MLOAD SWAP12 PUSH2 0x353 SWAP2 PUSH2 0x1030 JUMP JUMPDEST MLOAD SWAP10 PUSH2 0x35E SWAP2 PUSH2 0x1030 JUMP JUMPDEST MLOAD SWAP5 PUSH2 0x369 SWAP2 PUSH2 0x1030 JUMP JUMPDEST MLOAD SWAP5 PUSH2 0x374 SWAP2 PUSH2 0x1030 JUMP JUMPDEST MLOAD PUSH1 0xFF AND SWAP5 PUSH2 0x382 SWAP2 PUSH2 0x1030 JUMP JUMPDEST MLOAD SWAP5 PUSH2 0x38D SWAP2 PUSH2 0x1030 JUMP JUMPDEST MLOAD PUSH1 0xFF AND SWAP5 PUSH1 0x40 MLOAD SWAP7 PUSH2 0x39F DUP9 PUSH2 0xD46 JUMP JUMPDEST DUP8 MSTORE PUSH1 0x20 DUP8 ADD MSTORE PUSH1 0x40 DUP7 ADD MSTORE PUSH1 0x60 DUP6 ADD MSTORE PUSH2 0x3BD DUP6 PUSH1 0x80 DUP7 ADD PUSH2 0x1044 JUMP JUMPDEST PUSH1 0xA0 DUP5 ADD MSTORE PUSH1 0xC0 DUP4 ADD MSTORE PUSH1 0xE0 DUP3 ADD MSTORE PUSH1 0x8 DUP12 ADD SLOAD PUSH1 0x1 PUSH1 0x40 SHL DUP2 LT ISZERO PUSH2 0x66B JUMPI PUSH1 0x1 DUP2 ADD PUSH1 0x8 DUP14 ADD SWAP1 DUP2 SSTORE PUSH2 0x3F2 SWAP2 SWAP1 PUSH2 0x1050 JUMP JUMPDEST PUSH2 0x81C JUMPI DUP2 MLOAD DUP1 MLOAD SWAP1 PUSH1 0x1 PUSH1 0x1 PUSH1 0x40 SHL SUB DUP3 GT PUSH2 0x66B JUMPI DUP2 SWAP1 PUSH2 0x415 DUP5 SLOAD PUSH2 0xF35 JUMP JUMPDEST PUSH1 0x1F DUP2 GT PUSH2 0x7CF JUMPI JUMPDEST POP PUSH1 0x20 SWAP1 PUSH1 0x1F DUP4 GT PUSH1 0x1 EQ PUSH2 0x767 JUMPI PUSH0 SWAP3 PUSH2 0x75C JUMPI JUMPDEST POP POP DUP2 PUSH1 0x1 SHL SWAP2 PUSH0 NOT SWAP1 PUSH1 0x3 SHL SHR NOT AND OR DUP2 SSTORE JUMPDEST PUSH1 0x20 DUP3 ADD MLOAD DUP1 MLOAD SWAP1 PUSH1 0x1 PUSH1 0x1 PUSH1 0x40 SHL SUB DUP3 GT PUSH2 0x66B JUMPI DUP2 SWAP1 PUSH2 0x46D PUSH1 0x1 DUP6 ADD SLOAD PUSH2 0xF35 JUMP JUMPDEST PUSH1 0x1F DUP2 GT PUSH2 0x70C JUMPI JUMPDEST POP PUSH1 0x20 SWAP1 PUSH1 0x1F DUP4 GT PUSH1 0x1 EQ PUSH2 0x69E JUMPI PUSH0 SWAP3 PUSH2 0x693 JUMPI JUMPDEST POP POP DUP2 PUSH1 0x1 SHL SWAP2 PUSH0 NOT SWAP1 PUSH1 0x3 SHL SHR NOT AND OR PUSH1 0x1 DUP3 ADD SSTORE JUMPDEST PUSH1 0x40 DUP3 ADD MLOAD PUSH1 0x2 DUP3 ADD SSTORE PUSH1 0x60 DUP3 ADD MLOAD PUSH1 0x3 DUP3 ADD SSTORE PUSH1 0x80 DUP3 ADD MLOAD PUSH1 0x3 DUP2 LT ISZERO PUSH2 0x67F JUMPI PUSH1 0x4 DUP3 ADD SWAP1 DUP2 SLOAD PUSH1 0xFF PUSH2 0xFF00 PUSH1 0xA0 DUP8 ADD MLOAD PUSH1 0x8 SHL AND SWAP3 AND SWAP1 PUSH2 0xFFFF NOT AND OR OR SWAP1 SSTORE PUSH1 0xC0 DUP3 ADD MLOAD DUP1 MLOAD SWAP1 PUSH1 0x1 PUSH1 0x1 PUSH1 0x40 SHL SUB DUP3 GT PUSH2 0x66B JUMPI PUSH2 0x509 PUSH1 0x5 DUP5 ADD SLOAD PUSH2 0xF35 JUMP JUMPDEST PUSH1 0x1F DUP2 GT PUSH2 0x627 JUMPI JUMPDEST POP PUSH1 0x20 SWAP1 PUSH1 0x1F DUP4 GT PUSH1 0x1 EQ PUSH2 0x5B4 JUMPI SWAP3 DUP3 PUSH1 0xE0 SWAP4 PUSH1 0x6 SWAP4 PUSH1 0xFF SWAP7 PUSH0 SWAP3 PUSH2 0x5A9 JUMPI JUMPDEST POP POP DUP2 PUSH1 0x1 SHL SWAP2 PUSH0 NOT SWAP1 PUSH1 0x3 SHL SHR NOT AND OR PUSH1 0x5 DUP3 ADD SSTORE JUMPDEST ADD SWAP3 ADD MLOAD AND PUSH1 0xFF NOT DUP3 SLOAD AND OR SWAP1 SSTORE PUSH1 0x1 DUP2 EQ PUSH0 EQ PUSH2 0x57B JUMPI POP PUSH2 0x56F PUSH2 0x575 SWAP2 PUSH2 0x100E JUMP JUMPDEST SWAP12 PUSH2 0x100E JUMP JUMPDEST SWAP11 PUSH2 0x30A JUMP JUMPDEST SWAP12 SWAP13 SWAP1 SWAP12 PUSH2 0x595 JUMPI PUSH2 0x58F PUSH2 0x575 SWAP2 PUSH2 0x100E JUMP JUMPDEST SWAP13 PUSH2 0x100E JUMP JUMPDEST SWAP12 SWAP10 PUSH2 0x5A3 PUSH2 0x575 SWAP2 PUSH2 0x100E JUMP JUMPDEST SWAP11 PUSH2 0x100E JUMP JUMPDEST ADD MLOAD SWAP1 POP PUSH0 DUP1 PUSH2 0x533 JUMP JUMPDEST SWAP1 PUSH1 0x5 DUP5 ADD PUSH0 MSTORE PUSH1 0x20 PUSH0 KECCAK256 SWAP2 PUSH0 JUMPDEST PUSH1 0x1F NOT DUP6 AND DUP2 LT PUSH2 0x60F JUMPI POP DUP4 PUSH1 0x6 SWAP4 PUSH1 0xFF SWAP7 SWAP4 PUSH1 0x1 SWAP4 PUSH1 0xE0 SWAP8 PUSH1 0x1F NOT DUP2 AND LT PUSH2 0x5F7 JUMPI JUMPDEST POP POP POP DUP2 SHL ADD PUSH1 0x5 DUP3 ADD SSTORE PUSH2 0x54A JUMP JUMPDEST ADD MLOAD PUSH0 NOT PUSH1 0xF8 DUP5 PUSH1 0x3 SHL AND SHR NOT AND SWAP1 SSTORE PUSH0 DUP1 DUP1 PUSH2 0x5E7 JUMP JUMPDEST SWAP2 SWAP3 PUSH1 0x20 PUSH1 0x1 DUP2 SWAP3 DUP7 DUP6 ADD MLOAD DUP2 SSTORE ADD SWAP5 ADD SWAP3 ADD PUSH2 0x5C2 JUMP JUMPDEST PUSH1 0x5 DUP5 ADD PUSH0 MSTORE PUSH1 0x20 PUSH0 KECCAK256 PUSH1 0x1F DUP5 ADD PUSH1 0x5 SHR DUP2 ADD PUSH1 0x20 DUP6 LT PUSH2 0x664 JUMPI JUMPDEST PUSH1 0x1F DUP4 ADD PUSH1 0x5 SHR DUP3 ADD DUP2 LT PUSH2 0x659 JUMPI POP POP PUSH2 0x512 JUMP JUMPDEST PUSH0 DUP2 SSTORE PUSH1 0x1 ADD PUSH2 0x643 JUMP JUMPDEST POP DUP1 PUSH2 0x643 JUMP JUMPDEST PUSH4 0x4E487B71 PUSH1 0xE0 SHL PUSH0 MSTORE PUSH1 0x41 PUSH1 0x4 MSTORE PUSH1 0x24 PUSH0 REVERT JUMPDEST PUSH4 0x4E487B71 PUSH1 0xE0 SHL PUSH0 MSTORE PUSH1 0x21 PUSH1 0x4 MSTORE PUSH1 0x24 PUSH0 REVERT JUMPDEST ADD MLOAD SWAP1 POP PUSH0 DUP1 PUSH2 0x48C JUMP JUMPDEST SWAP3 POP PUSH1 0x1 DUP5 ADD PUSH0 MSTORE PUSH1 0x20 PUSH0 KECCAK256 SWAP1 PUSH0 SWAP4 JUMPDEST PUSH1 0x1F NOT DUP5 AND DUP6 LT PUSH2 0x6F1 JUMPI PUSH1 0x1 SWAP5 POP DUP4 PUSH1 0x1F NOT DUP2 AND LT PUSH2 0x6D9 JUMPI JUMPDEST POP POP POP DUP2 SHL ADD PUSH1 0x1 DUP3 ADD SSTORE PUSH2 0x4A3 JUMP JUMPDEST ADD MLOAD PUSH0 NOT PUSH1 0xF8 DUP5 PUSH1 0x3 SHL AND SHR NOT AND SWAP1 SSTORE PUSH0 DUP1 DUP1 PUSH2 0x6C9 JUMP JUMPDEST DUP2 DUP2 ADD MLOAD DUP4 SSTORE PUSH1 0x20 SWAP5 DUP6 ADD SWAP5 PUSH1 0x1 SWAP1 SWAP4 ADD SWAP3 SWAP1 SWAP2 ADD SWAP1 PUSH2 0x6AE JUMP JUMPDEST SWAP1 SWAP2 POP PUSH1 0x1 DUP5 ADD PUSH0 MSTORE PUSH1 0x20 PUSH0 KECCAK256 PUSH1 0x1F DUP5 ADD PUSH1 0x5 SHR DUP2 ADD PUSH1 0x20 DUP6 LT PUSH2 0x755 JUMPI JUMPDEST SWAP1 DUP5 SWAP4 SWAP3 SWAP2 JUMPDEST PUSH1 0x1F DUP4 ADD PUSH1 0x5 SHR DUP3 ADD DUP2 LT PUSH2 0x747 JUMPI POP POP PUSH2 0x476 JUMP JUMPDEST PUSH0 DUP2 SSTORE DUP6 SWAP5 POP PUSH1 0x1 ADD PUSH2 0x731 JUMP JUMPDEST POP DUP1 PUSH2 0x72B JUMP JUMPDEST ADD MLOAD SWAP1 POP PUSH0 DUP1 PUSH2 0x434 JUMP JUMPDEST SWAP3 POP DUP4 PUSH0 MSTORE PUSH1 0x20 PUSH0 KECCAK256 SWAP1 PUSH0 SWAP4 JUMPDEST PUSH1 0x1F NOT DUP5 AND DUP6 LT PUSH2 0x7B4 JUMPI PUSH1 0x1 SWAP5 POP DUP4 PUSH1 0x1F NOT DUP2 AND LT PUSH2 0x79C JUMPI JUMPDEST POP POP POP DUP2 SHL ADD DUP2 SSTORE PUSH2 0x448 JUMP JUMPDEST ADD MLOAD PUSH0 NOT PUSH1 0xF8 DUP5 PUSH1 0x3 SHL AND SHR NOT AND SWAP1 SSTORE PUSH0 DUP1 DUP1 PUSH2 0x78F JUMP JUMPDEST DUP2 DUP2 ADD MLOAD DUP4 SSTORE PUSH1 0x20 SWAP5 DUP6 ADD SWAP5 PUSH1 0x1 SWAP1 SWAP4 ADD SWAP3 SWAP1 SWAP2 ADD SWAP1 PUSH2 0x774 JUMP JUMPDEST SWAP1 SWAP2 POP DUP4 PUSH0 MSTORE PUSH1 0x20 PUSH0 KECCAK256 PUSH1 0x1F DUP5 ADD PUSH1 0x5 SHR DUP2 ADD PUSH1 0x20 DUP6 LT PUSH2 0x815 JUMPI JUMPDEST SWAP1 DUP5 SWAP4 SWAP3 SWAP2 JUMPDEST PUSH1 0x1F DUP4 ADD PUSH1 0x5 SHR DUP3 ADD DUP2 LT PUSH2 0x807 JUMPI POP POP PUSH2 0x41E JUMP JUMPDEST PUSH0 DUP2 SSTORE DUP6 SWAP5 POP PUSH1 0x1 ADD PUSH2 0x7F1 JUMP JUMPDEST POP DUP1 PUSH2 0x7EB JUMP JUMPDEST PUSH4 0x4E487B71 PUSH1 0xE0 SHL PUSH0 MSTORE PUSH0 PUSH1 0x4 MSTORE PUSH1 0x24 PUSH0 REVERT JUMPDEST DUP15 SWAP2 SWAP3 POP PUSH1 0x7 DUP10 DUP15 DUP14 SWAP4 PUSH1 0x5 DUP4 ADD SSTORE PUSH1 0x6 DUP3 ADD SSTORE ADD SSTORE CALLER PUSH0 MSTORE PUSH1 0x1 PUSH1 0x20 MSTORE PUSH1 0x40 PUSH0 KECCAK256 SWAP3 DUP4 SLOAD SWAP4 PUSH1 0x1 PUSH1 0x40 SHL DUP6 LT ISZERO PUSH2 0x66B JUMPI DUP5 PUSH2 0x873 SWAP2 PUSH1 0x1 PUSH1 0x20 SWAP8 ADD DUP2 SSTORE PUSH2 0xD1D JUMP JUMPDEST DUP2 SLOAD SWAP1 PUSH1 0x3 SHL SWAP1 DUP6 DUP3 SHL SWAP2 PUSH0 NOT SWAP1 SHL NOT AND OR SWAP1 SSTORE MLOAD PUSH1 0xFF PUSH1 0x40 MLOAD SWAP3 PUSH1 0x4 CALLDATALOAD DUP5 MSTORE AND DUP5 DUP4 ADD MSTORE PUSH1 0x40 DUP3 ADD MSTORE DUP2 PUSH32 0x413500B51A0EA82D0D7F2EA4BCB2E6B575EE972F05B36B16128F451D1B3D8CCF PUSH1 0x60 CALLER SWAP4 LOG3 PUSH1 0x40 MLOAD SWAP1 DUP2 MSTORE RETURN JUMPDEST ADD MLOAD SWAP1 POP DUP14 DUP1 PUSH2 0x2E4 JUMP JUMPDEST SWAP3 POP PUSH1 0x4 DUP9 ADD PUSH0 MSTORE PUSH1 0x20 PUSH0 KECCAK256 SWAP1 PUSH0 SWAP4 JUMPDEST PUSH1 0x1F NOT DUP5 AND DUP6 LT PUSH2 0x92A JUMPI PUSH1 0x1 SWAP5 POP DUP4 PUSH1 0x1F NOT DUP2 AND LT PUSH2 0x912 JUMPI JUMPDEST POP POP POP DUP2 SHL ADD PUSH1 0x4 DUP7 ADD SSTORE PUSH2 0x2FB JUMP JUMPDEST ADD MLOAD PUSH0 NOT PUSH1 0xF8 DUP5 PUSH1 0x3 SHL AND SHR NOT AND SWAP1 SSTORE DUP14 DUP1 DUP1 PUSH2 0x902 JUMP JUMPDEST DUP2 DUP2 ADD MLOAD DUP4 SSTORE PUSH1 0x20 SWAP5 DUP6 ADD SWAP5 PUSH1 0x1 SWAP1 SWAP4 ADD SWAP3 SWAP1 SWAP2 ADD SWAP1 PUSH2 0x8E7 JUMP JUMPDEST SWAP1 SWAP2 POP PUSH1 0x4 DUP9 ADD PUSH0 MSTORE PUSH1 0x20 PUSH0 KECCAK256 PUSH1 0x1F DUP5 ADD PUSH1 0x5 SHR DUP2 ADD PUSH1 0x20 DUP6 LT PUSH2 0x98E JUMPI JUMPDEST SWAP1 DUP5 SWAP4 SWAP3 SWAP2 JUMPDEST PUSH1 0x1F DUP4 ADD PUSH1 0x5 SHR DUP3 ADD DUP2 LT PUSH2 0x980 JUMPI POP POP PUSH2 0x2CE JUMP JUMPDEST PUSH0 DUP2 SSTORE DUP6 SWAP5 POP PUSH1 0x1 ADD PUSH2 0x96A JUMP JUMPDEST POP DUP1 PUSH2 0x964 JUMP JUMPDEST CALLVALUE PUSH2 0x10E JUMPI PUSH1 0x20 DUP1 PUSH1 0x3 NOT CALLDATASIZE ADD SLT PUSH2 0x10E JUMPI PUSH1 0x1 PUSH1 0x1 PUSH1 0xA0 SHL SUB PUSH2 0x9B7 PUSH2 0xD07 JUMP JUMPDEST AND PUSH0 MSTORE PUSH1 0x1 SWAP1 DUP2 DUP2 MSTORE PUSH1 0x40 PUSH0 KECCAK256 SWAP2 PUSH1 0x40 MLOAD SWAP2 DUP3 DUP2 DUP6 SLOAD SWAP2 DUP3 DUP2 MSTORE ADD SWAP1 DUP2 SWAP6 PUSH0 MSTORE DUP3 PUSH0 KECCAK256 SWAP1 PUSH0 JUMPDEST DUP2 DUP2 LT PUSH2 0xA2A JUMPI POP POP POP DUP4 PUSH2 0x9F3 SWAP2 SUB DUP5 PUSH2 0xD62 JUMP JUMPDEST PUSH1 0x40 MLOAD SWAP3 DUP2 DUP5 ADD SWAP1 DUP3 DUP6 MSTORE MLOAD DUP1 SWAP2 MSTORE PUSH1 0x40 DUP5 ADD SWAP5 SWAP2 PUSH0 JUMPDEST DUP3 DUP2 LT PUSH2 0xA17 JUMPI DUP6 DUP8 SUB DUP7 RETURN JUMPDEST DUP4 MLOAD DUP8 MSTORE SWAP6 DUP2 ADD SWAP6 SWAP3 DUP2 ADD SWAP3 DUP5 ADD PUSH2 0xA0A JUMP JUMPDEST DUP3 SLOAD DUP5 MSTORE SWAP3 DUP5 ADD SWAP3 SWAP2 DUP6 ADD SWAP2 DUP6 ADD PUSH2 0x9DD JUMP JUMPDEST CALLVALUE PUSH2 0x10E JUMPI PUSH1 0x40 CALLDATASIZE PUSH1 0x3 NOT ADD SLT PUSH2 0x10E JUMPI PUSH2 0xA56 PUSH2 0xD07 JUMP JUMPDEST PUSH1 0x1 PUSH1 0x1 PUSH1 0xA0 SHL SUB AND PUSH0 SWAP1 DUP2 MSTORE PUSH1 0x1 PUSH1 0x20 MSTORE PUSH1 0x40 SWAP1 KECCAK256 DUP1 SLOAD PUSH1 0x24 CALLDATALOAD SWAP2 SWAP1 DUP3 LT ISZERO PUSH2 0x10E JUMPI PUSH1 0x20 SWAP2 PUSH2 0xA86 SWAP2 PUSH2 0xD1D JUMP JUMPDEST SWAP1 SLOAD PUSH1 0x40 MLOAD SWAP2 PUSH1 0x3 SHL SHR DUP2 MSTORE RETURN JUMPDEST CALLVALUE PUSH2 0x10E JUMPI PUSH1 0x20 CALLDATASIZE PUSH1 0x3 NOT ADD SLT PUSH2 0x10E JUMPI PUSH1 0x4 CALLDATALOAD PUSH0 MSTORE PUSH0 PUSH1 0x20 MSTORE PUSH1 0x40 PUSH0 KECCAK256 PUSH1 0x1 DUP1 PUSH1 0xA0 SHL SUB PUSH1 0x1 DUP3 ADD SLOAD AND PUSH1 0x2 DUP3 ADD SLOAD SWAP2 PUSH1 0xFF PUSH1 0x3 DUP3 ADD SLOAD AND SWAP1 PUSH1 0x5 DUP2 ADD SLOAD SWAP2 PUSH1 0x6 DUP3 ADD SLOAD PUSH1 0x7 DUP4 ADD SLOAD SWAP1 PUSH2 0xB1D PUSH1 0x9 DUP6 ADD SLOAD SWAP4 PUSH2 0xAF9 PUSH1 0x4 PUSH1 0x8 DUP9 ADD SLOAD SWAP8 ADD PUSH2 0xF6D JUMP JUMPDEST SWAP1 PUSH1 0x40 MLOAD SWAP10 DUP11 SWAP10 DUP11 MSTORE PUSH1 0x20 DUP11 ADD MSTORE PUSH1 0x40 DUP10 ADD MSTORE PUSH2 0x120 DUP1 PUSH1 0x60 DUP11 ADD MSTORE DUP9 ADD SWAP1 PUSH2 0xCC9 JUMP JUMPDEST SWAP5 PUSH1 0x80 DUP8 ADD MSTORE PUSH1 0xA0 DUP7 ADD MSTORE PUSH1 0xC0 DUP6 ADD MSTORE PUSH1 0xE0 DUP5 ADD MSTORE PUSH2 0x100 DUP4 ADD MSTORE SUB SWAP1 RETURN JUMPDEST CALLVALUE PUSH2 0x10E JUMPI PUSH1 0x40 CALLDATASIZE PUSH1 0x3 NOT ADD SLT PUSH2 0x10E JUMPI PUSH1 0x40 MLOAD PUSH2 0xB59 DUP2 PUSH2 0xD46 JUMP JUMPDEST PUSH0 PUSH1 0xE0 PUSH1 0x60 SWAP3 DUP4 DUP2 MSTORE DUP4 PUSH1 0x20 DUP3 ADD MSTORE DUP3 PUSH1 0x40 DUP3 ADD MSTORE DUP3 DUP5 DUP3 ADD MSTORE DUP3 PUSH1 0x80 DUP3 ADD MSTORE DUP3 PUSH1 0xA0 DUP3 ADD MSTORE DUP4 PUSH1 0xC0 DUP3 ADD MSTORE ADD MSTORE PUSH1 0x4 CALLDATALOAD PUSH0 MSTORE PUSH0 PUSH1 0x20 MSTORE PUSH2 0xBA2 PUSH1 0x24 CALLDATALOAD PUSH1 0x8 PUSH1 0x40 PUSH0 KECCAK256 ADD PUSH2 0x1050 JUMP JUMPDEST POP PUSH1 0x40 MLOAD SWAP2 PUSH2 0xBB0 DUP4 PUSH2 0xD46 JUMP JUMPDEST PUSH2 0xBB9 DUP3 PUSH2 0xF6D JUMP JUMPDEST DUP4 MSTORE PUSH1 0x20 PUSH2 0xBC9 PUSH1 0x1 DUP5 ADD PUSH2 0xF6D JUMP JUMPDEST DUP2 DUP6 ADD SWAP1 DUP2 MSTORE PUSH1 0x2 DUP5 ADD SLOAD PUSH1 0x40 DUP7 ADD SWAP1 DUP2 MSTORE PUSH1 0x3 DUP6 ADD SLOAD SWAP1 DUP5 DUP8 ADD SWAP2 DUP3 MSTORE PUSH1 0x4 DUP7 ADD SLOAD SWAP2 PUSH1 0x80 DUP9 ADD SWAP1 PUSH2 0xBFF PUSH1 0xFF DUP6 AND DUP4 PUSH2 0x1044 JUMP JUMPDEST PUSH1 0xFF PUSH1 0xA0 DUP11 ADD SWAP5 PUSH1 0x8 SHR AND DUP5 MSTORE PUSH1 0xFF PUSH1 0x6 PUSH2 0xC1C PUSH1 0x5 DUP12 ADD PUSH2 0xF6D JUMP JUMPDEST SWAP10 PUSH1 0xC0 DUP13 ADD SWAP11 DUP12 MSTORE ADD SLOAD AND SWAP7 PUSH1 0xE0 DUP11 ADD SWAP8 DUP9 MSTORE PUSH2 0xC67 PUSH2 0xC51 PUSH1 0x40 MLOAD SWAP12 DUP10 DUP14 MSTORE MLOAD DUP13 PUSH2 0x100 SWAP11 DUP12 SWAP2 ADD MSTORE PUSH2 0x120 DUP14 ADD SWAP1 PUSH2 0xCC9 JUMP JUMPDEST SWAP7 MLOAD PUSH1 0x1F NOT DUP13 DUP10 SUB DUP2 ADD PUSH1 0x40 DUP15 ADD MSTORE SWAP8 SWAP1 PUSH2 0xCC9 JUMP JUMPDEST SWAP4 MLOAD SWAP1 DUP11 ADD MSTORE MLOAD PUSH1 0x80 DUP10 ADD MSTORE MLOAD SWAP3 PUSH1 0x3 DUP5 LT ISZERO PUSH2 0x67F JUMPI DUP8 SWAP7 PUSH1 0xFF PUSH2 0xCA4 SWAP5 DUP2 SWAP7 PUSH1 0xA0 DUP12 ADD MSTORE MLOAD AND PUSH1 0xC0 DUP10 ADD MSTORE MLOAD SWAP1 DUP8 DUP4 SUB ADD PUSH1 0xE0 DUP9 ADD MSTORE PUSH2 0xCC9 JUMP JUMPDEST SWAP3 MLOAD AND SWAP1 DUP4 ADD MSTORE SUB SWAP1 RETURN JUMPDEST CALLVALUE PUSH2 0x10E JUMPI PUSH0 CALLDATASIZE PUSH1 0x3 NOT ADD SLT PUSH2 0x10E JUMPI PUSH1 0x20 SWAP1 PUSH1 0x2 SLOAD DUP2 MSTORE RETURN JUMPDEST SWAP2 SWAP1 DUP3 MLOAD SWAP3 DUP4 DUP3 MSTORE PUSH0 JUMPDEST DUP5 DUP2 LT PUSH2 0xCF3 JUMPI POP POP DUP3 PUSH0 PUSH1 0x20 DUP1 SWAP5 SWAP6 DUP5 ADD ADD MSTORE PUSH1 0x1F DUP1 NOT SWAP2 ADD AND ADD ADD SWAP1 JUMP JUMPDEST PUSH1 0x20 DUP2 DUP4 ADD DUP2 ADD MLOAD DUP5 DUP4 ADD DUP3 ADD MSTORE ADD PUSH2 0xCD3 JUMP JUMPDEST PUSH1 0x4 CALLDATALOAD SWAP1 PUSH1 0x1 PUSH1 0x1 PUSH1 0xA0 SHL SUB DUP3 AND DUP3 SUB PUSH2 0x10E JUMPI JUMP JUMPDEST DUP1 SLOAD DUP3 LT ISZERO PUSH2 0xD32 JUMPI PUSH0 MSTORE PUSH1 0x20 PUSH0 KECCAK256 ADD SWAP1 PUSH0 SWAP1 JUMP JUMPDEST PUSH4 0x4E487B71 PUSH1 0xE0 SHL PUSH0 MSTORE PUSH1 0x32 PUSH1 0x4 MSTORE PUSH1 0x24 PUSH0 REVERT JUMPDEST PUSH2 0x100 DUP2 ADD SWAP1 DUP2 LT PUSH1 0x1 PUSH1 0x1 PUSH1 0x40 SHL SUB DUP3 GT OR PUSH2 0x66B JUMPI PUSH1 0x40 MSTORE JUMP JUMPDEST SWAP1 PUSH1 0x1F DUP1 NOT SWAP2 ADD AND DUP2 ADD SWAP1 DUP2 LT PUSH1 0x1 PUSH1 0x1 PUSH1 0x40 SHL SUB DUP3 GT OR PUSH2 0x66B JUMPI PUSH1 0x40 MSTORE JUMP JUMPDEST DUP2 PUSH1 0x1F DUP3 ADD SLT ISZERO PUSH2 0x10E JUMPI DUP1 CALLDATALOAD SWAP1 PUSH1 0x1 PUSH1 0x1 PUSH1 0x40 SHL SUB DUP3 GT PUSH2 0x66B JUMPI PUSH1 0x40 MLOAD SWAP3 PUSH2 0xDB7 PUSH1 0x1F DUP5 ADD PUSH1 0x1F NOT AND PUSH1 0x20 ADD DUP6 PUSH2 0xD62 JUMP JUMPDEST DUP3 DUP5 MSTORE PUSH1 0x20 DUP4 DUP4 ADD ADD GT PUSH2 0x10E JUMPI DUP2 PUSH0 SWAP3 PUSH1 0x20 DUP1 SWAP4 ADD DUP4 DUP7 ADD CALLDATACOPY DUP4 ADD ADD MSTORE SWAP1 JUMP JUMPDEST PUSH1 0x1 PUSH1 0x1 PUSH1 0x40 SHL SUB DUP2 GT PUSH2 0x66B JUMPI PUSH1 0x5 SHL PUSH1 0x20 ADD SWAP1 JUMP JUMPDEST SWAP1 DUP1 PUSH1 0x1F DUP4 ADD SLT ISZERO PUSH2 0x10E JUMPI DUP2 CALLDATALOAD SWAP1 PUSH2 0xE07 DUP3 PUSH2 0xDD8 JUMP JUMPDEST SWAP3 PUSH2 0xE15 PUSH1 0x40 MLOAD SWAP5 DUP6 PUSH2 0xD62 JUMP JUMPDEST DUP3 DUP5 MSTORE PUSH1 0x20 SWAP3 DUP4 DUP1 DUP7 ADD SWAP2 PUSH1 0x5 SHL DUP4 ADD ADD SWAP3 DUP1 DUP5 GT PUSH2 0x10E JUMPI DUP5 DUP4 ADD SWAP2 JUMPDEST DUP5 DUP4 LT PUSH2 0xE43 JUMPI POP POP POP POP POP POP SWAP1 JUMP JUMPDEST DUP3 CALLDATALOAD PUSH1 0x1 PUSH1 0x1 PUSH1 0x40 SHL SUB DUP2 GT PUSH2 0x10E JUMPI DUP7 SWAP2 PUSH2 0xE64 DUP5 DUP5 DUP1 SWAP5 DUP10 ADD ADD PUSH2 0xD83 JUMP JUMPDEST DUP2 MSTORE ADD SWAP3 ADD SWAP2 PUSH2 0xE33 JUMP JUMPDEST DUP2 PUSH1 0x1F DUP3 ADD SLT ISZERO PUSH2 0x10E JUMPI DUP1 CALLDATALOAD SWAP2 PUSH2 0xE86 DUP4 PUSH2 0xDD8 JUMP JUMPDEST SWAP3 PUSH2 0xE94 PUSH1 0x40 MLOAD SWAP5 DUP6 PUSH2 0xD62 JUMP JUMPDEST DUP1 DUP5 MSTORE PUSH1 0x20 SWAP3 DUP4 DUP1 DUP7 ADD SWAP3 PUSH1 0x5 SHL DUP3 ADD ADD SWAP3 DUP4 GT PUSH2 0x10E JUMPI DUP4 ADD SWAP1 JUMPDEST DUP3 DUP3 LT PUSH2 0xEBE JUMPI POP POP POP POP SWAP1 JUMP JUMPDEST DUP2 CALLDATALOAD DUP2 MSTORE SWAP1 DUP4 ADD SWAP1 DUP4 ADD PUSH2 0xEB0 JUMP JUMPDEST DUP2 PUSH1 0x1F DUP3 ADD SLT ISZERO PUSH2 0x10E JUMPI DUP1 CALLDATALOAD SWAP2 PUSH2 0xEE4 DUP4 PUSH2 0xDD8 JUMP JUMPDEST SWAP3 PUSH2 0xEF2 PUSH1 0x40 MLOAD SWAP5 DUP6 PUSH2 0xD62 JUMP JUMPDEST DUP1 DUP5 MSTORE PUSH1 0x20 SWAP3 DUP4 DUP1 DUP7 ADD SWAP3 PUSH1 0x5 SHL DUP3 ADD ADD SWAP3 DUP4 GT PUSH2 0x10E JUMPI DUP4 ADD SWAP1 JUMPDEST DUP3 DUP3 LT PUSH2 0xF1C JUMPI POP POP POP POP SWAP1 JUMP JUMPDEST DUP2 CALLDATALOAD PUSH1 0xFF DUP2 AND DUP2 SUB PUSH2 0x10E JUMPI DUP2 MSTORE SWAP1 DUP4 ADD SWAP1 DUP4 ADD PUSH2 0xF0E JUMP JUMPDEST SWAP1 PUSH1 0x1 DUP3 DUP2 SHR SWAP3 AND DUP1 ISZERO PUSH2 0xF63 JUMPI JUMPDEST PUSH1 0x20 DUP4 LT EQ PUSH2 0xF4F JUMPI JUMP JUMPDEST PUSH4 0x4E487B71 PUSH1 0xE0 SHL PUSH0 MSTORE PUSH1 0x22 PUSH1 0x4 MSTORE PUSH1 0x24 PUSH0 REVERT JUMPDEST SWAP2 PUSH1 0x7F AND SWAP2 PUSH2 0xF44 JUMP JUMPDEST SWAP1 PUSH1 0x40 MLOAD SWAP2 DUP3 PUSH0 DUP3 SLOAD SWAP3 PUSH2 0xF80 DUP5 PUSH2 0xF35 JUMP JUMPDEST SWAP1 DUP2 DUP5 MSTORE PUSH1 0x1 SWAP5 DUP6 DUP2 AND SWAP1 DUP2 PUSH0 EQ PUSH2 0xFEB JUMPI POP PUSH1 0x1 EQ PUSH2 0xFAB JUMPI JUMPDEST POP POP PUSH2 0xFA9 SWAP3 POP SUB DUP4 PUSH2 0xD62 JUMP JUMPDEST JUMP JUMPDEST SWAP1 SWAP4 SWAP2 POP PUSH0 MSTORE PUSH1 0x20 SWAP1 DUP2 PUSH0 KECCAK256 SWAP4 PUSH0 SWAP2 JUMPDEST DUP2 DUP4 LT PUSH2 0xFD3 JUMPI POP POP PUSH2 0xFA9 SWAP4 POP DUP3 ADD ADD PUSH0 DUP1 PUSH2 0xF9B JUMP JUMPDEST DUP6 SLOAD DUP9 DUP5 ADD DUP6 ADD MSTORE SWAP5 DUP6 ADD SWAP5 DUP8 SWAP5 POP SWAP2 DUP4 ADD SWAP2 PUSH2 0xFBB JUMP JUMPDEST SWAP2 POP POP PUSH2 0xFA9 SWAP5 POP PUSH1 0x20 SWAP3 POP PUSH1 0xFF NOT AND DUP3 DUP5 ADD MSTORE ISZERO ISZERO PUSH1 0x5 SHL DUP3 ADD ADD PUSH0 DUP1 PUSH2 0xF9B JUMP JUMPDEST PUSH0 NOT DUP2 EQ PUSH2 0x101C JUMPI PUSH1 0x1 ADD SWAP1 JUMP JUMPDEST PUSH4 0x4E487B71 PUSH1 0xE0 SHL PUSH0 MSTORE PUSH1 0x11 PUSH1 0x4 MSTORE PUSH1 0x24 PUSH0 REVERT JUMPDEST DUP1 MLOAD DUP3 LT ISZERO PUSH2 0xD32 JUMPI PUSH1 0x20 SWAP2 PUSH1 0x5 SHL ADD ADD SWAP1 JUMP JUMPDEST PUSH1 0x3 DUP3 LT ISZERO PUSH2 0x67F JUMPI MSTORE JUMP JUMPDEST DUP1 SLOAD DUP3 LT ISZERO PUSH2 0xD32 JUMPI PUSH0 MSTORE PUSH1 0x7 PUSH1 0x20 PUSH0 KECCAK256 SWAP2 MUL ADD SWAP1 PUSH0 SWAP1 JUMP INVALID LOG2 PUSH5 0x6970667358 0x22 SLT KECCAK256 0x27 CALLVALUE CREATE 0x23 0xD5 PUSH7 0x844C89E214B2AB SHL DUP4 0xFC 0xEA 0x2C SWAP10 SWAP15 0xF9 DUP4 0xD8 0xCC 0xCD DUP11 0xEF 0xE ADDMOD 0xA6 0xCC ORIGIN PUSH5 0x736F6C6343 STOP ADDMOD EQ STOP CALLER "},"methodIdentifiers":{"getReport(uint256)":"4e7f9b19","getReportToken(uint256,uint256)":"37fd932d","getUserReports(address)":"70a05afc","reportCount()":"185c6f84","reports(uint256)":"c942adf7","saveReport(uint256,uint8,string,string[],string[],uint256[],uint256[],uint8[],uint8[],string[],uint8[])":"7104b2b1","userReports(address,uint256)":"5a345e46"}}}}}