{"project/contracts/AgentRegistry.sol":{"AgentRegistry":{"abi":[{"anonymous":false,"inputs":[{"indexed":true,"internalType":"uint256","name":"agentId","type":"uint256"},{"indexed":true,"internalType":"address","name":"coordinator","type":"address"},{"indexed":false,"internalType":"string","name":"pair","type":"string"},{"indexed":false,"internalType":"uint256","name":"paidUSDC","type":"uint256"}],"name":"AgentHired","type":"event"},{"anonymous":false,"inputs":[{"indexed":true,"internalType":"uint256","name":"agentId","type":"uint256"},{"indexed":true,"internalType":"address","name":"owner","type":"address"},{"indexed":false,"internalType":"string","name":"name","type":"string"},{"indexed":false,"internalType":"enum AgentRegistry.AgentType","name":"agentType","type":"uint8"},{"indexed":false,"internalType":"uint256","name":"signalPrice","type":"uint256"}],"name":"AgentRegistered","type":"event"},{"anonymous":false,"inputs":[{"indexed":true,"internalType":"uint256","name":"agentId","type":"uint256"},{"indexed":false,"internalType":"string","name":"verdict","type":"string"},{"indexed":false,"internalType":"bool","name":"wasCorrect","type":"bool"}],"name":"SignalRecorded","type":"event"},{"inputs":[],"name":"agentCount","outputs":[{"internalType":"uint256","name":"","type":"uint256"}],"stateMutability":"view","type":"function"},{"inputs":[{"internalType":"uint256","name":"","type":"uint256"}],"name":"agents","outputs":[{"internalType":"uint256","name":"id","type":"uint256"},{"internalType":"address","name":"owner","type":"address"},{"internalType":"address","name":"agentWallet","type":"address"},{"internalType":"string","name":"name","type":"string"},{"internalType":"string","name":"description","type":"string"},{"internalType":"enum AgentRegistry.AgentType","name":"agentType","type":"uint8"},{"internalType":"enum AgentRegistry.AgentStatus","name":"status","type":"uint8"},{"internalType":"uint256","name":"signalPriceUSDC","type":"uint256"},{"internalType":"uint256","name":"totalHires","type":"uint256"},{"internalType":"uint256","name":"totalEarned","type":"uint256"},{"internalType":"uint256","name":"correctSignals","type":"uint256"},{"internalType":"uint256","name":"totalSignals","type":"uint256"},{"internalType":"string","name":"strategy","type":"string"},{"internalType":"uint256","name":"registeredAt","type":"uint256"},{"internalType":"uint256","name":"lastActiveAt","type":"uint256"}],"stateMutability":"view","type":"function"},{"inputs":[{"internalType":"uint256","name":"id","type":"uint256"}],"name":"getAgent","outputs":[{"components":[{"internalType":"uint256","name":"id","type":"uint256"},{"internalType":"address","name":"owner","type":"address"},{"internalType":"address","name":"agentWallet","type":"address"},{"internalType":"string","name":"name","type":"string"},{"internalType":"string","name":"description","type":"string"},{"internalType":"enum AgentRegistry.AgentType","name":"agentType","type":"uint8"},{"internalType":"enum AgentRegistry.AgentStatus","name":"status","type":"uint8"},{"internalType":"uint256","name":"signalPriceUSDC","type":"uint256"},{"internalType":"uint256","name":"totalHires","type":"uint256"},{"internalType":"uint256","name":"totalEarned","type":"uint256"},{"internalType":"uint256","name":"correctSignals","type":"uint256"},{"internalType":"uint256","name":"totalSignals","type":"uint256"},{"internalType":"string","name":"strategy","type":"string"},{"internalType":"uint256","name":"registeredAt","type":"uint256"},{"internalType":"uint256","name":"lastActiveAt","type":"uint256"}],"internalType":"struct AgentRegistry.Agent","name":"","type":"tuple"}],"stateMutability":"view","type":"function"},{"inputs":[{"internalType":"uint256","name":"id","type":"uint256"}],"name":"getAgentAccuracy","outputs":[{"internalType":"uint256","name":"","type":"uint256"}],"stateMutability":"view","type":"function"},{"inputs":[{"internalType":"address","name":"owner","type":"address"}],"name":"getOwnerAgents","outputs":[{"internalType":"uint256[]","name":"","type":"uint256[]"}],"stateMutability":"view","type":"function"},{"inputs":[{"internalType":"uint256","name":"limit","type":"uint256"}],"name":"getTopAgents","outputs":[{"components":[{"internalType":"uint256","name":"id","type":"uint256"},{"internalType":"address","name":"owner","type":"address"},{"internalType":"address","name":"agentWallet","type":"address"},{"internalType":"string","name":"name","type":"string"},{"internalType":"string","name":"description","type":"string"},{"internalType":"enum AgentRegistry.AgentType","name":"agentType","type":"uint8"},{"internalType":"enum AgentRegistry.AgentStatus","name":"status","type":"uint8"},{"internalType":"uint256","name":"signalPriceUSDC","type":"uint256"},{"internalType":"uint256","name":"totalHires","type":"uint256"},{"internalType":"uint256","name":"totalEarned","type":"uint256"},{"internalType":"uint256","name":"correctSignals","type":"uint256"},{"internalType":"uint256","name":"totalSignals","type":"uint256"},{"internalType":"string","name":"strategy","type":"string"},{"internalType":"uint256","name":"registeredAt","type":"uint256"},{"internalType":"uint256","name":"lastActiveAt","type":"uint256"}],"internalType":"struct AgentRegistry.Agent[]","name":"","type":"tuple[]"}],"stateMutability":"view","type":"function"},{"inputs":[{"internalType":"uint256","name":"","type":"uint256"},{"internalType":"uint256","name":"","type":"uint256"}],"name":"hireHistory","outputs":[{"internalType":"address","name":"coordinator","type":"address"},{"internalType":"string","name":"pair","type":"string"},{"internalType":"uint256","name":"paidUSDC","type":"uint256"},{"internalType":"string","name":"verdict","type":"string"},{"internalType":"bool","name":"wasCorrect","type":"bool"},{"internalType":"uint256","name":"timestamp","type":"uint256"}],"stateMutability":"view","type":"function"},{"inputs":[{"internalType":"address","name":"","type":"address"},{"internalType":"uint256","name":"","type":"uint256"}],"name":"ownerAgents","outputs":[{"internalType":"uint256","name":"","type":"uint256"}],"stateMutability":"view","type":"function"},{"inputs":[{"internalType":"uint256","name":"agentId","type":"uint256"}],"name":"pauseAgent","outputs":[],"stateMutability":"nonpayable","type":"function"},{"inputs":[{"internalType":"uint256","name":"agentId","type":"uint256"},{"internalType":"uint256","name":"hireIndex","type":"uint256"},{"internalType":"bool","name":"wasCorrect","type":"bool"}],"name":"recordAccuracy","outputs":[],"stateMutability":"nonpayable","type":"function"},{"inputs":[{"internalType":"uint256","name":"agentId","type":"uint256"},{"internalType":"address","name":"coordinator","type":"address"},{"internalType":"string","name":"pair","type":"string"},{"internalType":"uint256","name":"paidUSDC","type":"uint256"},{"internalType":"string","name":"verdict","type":"string"}],"name":"recordHire","outputs":[],"stateMutability":"nonpayable","type":"function"},{"inputs":[{"internalType":"string","name":"name","type":"string"},{"internalType":"string","name":"description","type":"string"},{"internalType":"string","name":"strategy","type":"string"},{"internalType":"enum AgentRegistry.AgentType","name":"agentType","type":"uint8"},{"internalType":"address","name":"agentWallet","type":"address"},{"internalType":"uint256","name":"signalPriceUSDC","type":"uint256"}],"name":"registerAgent","outputs":[{"internalType":"uint256","name":"","type":"uint256"}],"stateMutability":"nonpayable","type":"function"}],"evm":{"bytecode":{"linkReferences":{},"object":"6080806040523461001657611941908161001b8239f35b5f80fdfe60806040526004361015610011575f80fd5b5f3560e01c80630a206008146113665780630cdff725146113405780632de5aaf714611228578063513856c8146110fc5780635afe82d0146109e957806362febe4f146109925780636ac189871461094b5780637585840a146108a3578063852a0e1514610717578063b1e29ea414610537578063b7dc12841461051a5763d36f2c621461009d575f80fd5b346105025760a0366003190112610502576024356001600160a01b0381168103610502576044356001600160401b038111610502576100e090369060040161168d565b906084356001600160401b0381116105025761010090369060040161168d565b6004355f525f60205260405f2060ff600582015460081c166003811015610506576105025760078101610133815461170d565b90556008810154606435810181116104ee57606435016008820155600a810161015c815461170d565b9055600d429101556004355f52600360205260405f20604051908160c08101106001600160401b0360c0840111176103fe5760c0820160405260018060a01b03841682526020820192858452606435604084015260608301525f60808301524260a08301528054600160401b8110156103fe576101de91600182018155611417565b9290926104db57815183546001600160a01b0319166001600160a01b0391909116178355518051906001600160401b0382116103fe5781906102236001860154611444565b601f811161048b575b50602090601f831160011461041d575f92610412575b50508160011b915f199060031b1c19161760018301555b6040810151600283015560608101518051906001600160401b0382116103fe576102866003850154611444565b601f81116103ba575b50602090601f83116001146103495791806005949260a0945f9261033e575b50508160011b915f199060031b1c19161760038501555b6102e460808201511515600486019060ff801983541691151516179055565b01519101557f36a7c90a1b3f57e92180db75d77e2fb22d0508f162feb6b96cd8ef010807070061031f6040519360408552604085019061155a565b60643560208501526001600160a01b03909216926004359281900390a3005b015190505f806102ae565b90600385015f5260205f20915f5b601f19851681106103a25750926005949260019260a09583601f1981161061038a575b505050811b0160038501556102c5565b01515f1960f88460031b161c191690555f808061037a565b91926020600181928685015181550194019201610357565b600385015f5260205f20601f840160051c8101602085106103f7575b601f830160051c820181106103ec57505061028f565b5f81556001016103d6565b50806103d6565b634e487b7160e01b5f52604160045260245ffd5b015190505f80610242565b9250600185015f5260205f20905f935b601f1984168510610470576001945083601f19811610610458575b505050811b016001830155610259565b01515f1960f88460031b161c191690555f8080610448565b8181015183556020948501946001909301929091019061042d565b909150600185015f5260205f20601f840160051c8101602085106104d4575b90849392915b601f830160051c820181106104c657505061022c565b5f81558594506001016104b0565b50806104aa565b634e487b7160e01b5f525f60045260245ffd5b634e487b7160e01b5f52601160045260245ffd5b5f80fd5b634e487b7160e01b5f52602160045260245ffd5b34610502575f366003190112610502576020600254604051908152f35b346105025760208060031936011261050257600280546004358082101561071057505b610563816118e0565b916105716040519384611498565b818352601f19610580836118e0565b01845f5b8281106106fa575050505f5b8281106105f8575050506040519082820192808352815180945260408301938160408260051b8601019301915f955b8287106105cc5785850386f35b9091929382806105e8600193603f198a820301865288516115b2565b96019201960195929190926105bf565b806106f5915f525f865260405f20600d604051916106158361147c565b8054835260018101546001600160a01b039081168a85015286820154166040840152610643600382016114b9565b6060840152610654600482016114b9565b6080840152600581015461068160ff61067281841660a0880161171b565b600892831c1660c08601611727565b600682015460e085015260078201546101008501528101546101208401526009810154610140840152600a8101546101608401526106c1600b82016114b9565b610180840152600c8101546101a084015201546101c08201526106e482876118f7565b526106ef81866118f7565b5061170d565b610590565b610702611733565b828288010152018590610584565b905061055a565b34610502576060806003193601126105025760043590604435908115156024358184036105025761078760039185610884575b865f5261077860209684885260046107658460405f20611417565b50019060ff801983541691151516179055565b865f5282865260405f20611417565b50019260405192604084525f94805461079f81611444565b9182604088015260019182811690815f1461084657506001146107ec575b887f81180d88ae26e3d83037388a2045b8d5ed1f60425bf018446d2cda2a683d576f88808b8a8a8301520390a2005b9092939596505f52845f20915f925b828410610833575050508401019291817f81180d88ae26e3d83037388a2045b8d5ed1f60425bf018446d2cda2a683d576f84886107bd565b80548885018601529286019281016107fb565b60ff191685890152505050151560051b8401019350817f81180d88ae26e3d83037388a2045b8d5ed1f60425bf018446d2cda2a683d576f84886107bd565b865f525f602052600960405f200161089c815461170d565b905561074a565b3461050257602080600319360112610502576001600160a01b036108c56116e2565b165f5260019081815260405f2091604051918281855491828152019081955f52825f20905f5b8181106109385750505083610901910384611498565b6040519281840190828552518091526040840194915f5b8281106109255785870386f35b8351875295810195928101928401610918565b82548452928401929185019185016108eb565b34610502576020366003190112610502576004355f90815260208190526040902060018101546001600160a01b0316330361050257600501805461ff001916610100179055005b34610502576040366003190112610502576109ab6116e2565b6001600160a01b03165f90815260016020526040902080546024359190821015610502576020916109db916116f8565b90546040519160031b1c8152f35b346105025760c0366003190112610502576004356001600160401b03811161050257610a1990369060040161168d565b6024356001600160401b03811161050257610a3890369060040161168d565b6044356001600160401b03811161050257610a5790369060040161168d565b6006606435101561050257608435906001600160a01b0382168203610502578351156110c75780511561108e57620186a060a43510611049576298968060a435116110045760025492610aa98461170d565b60025560405192610ab98461147c565b8484523360208501526001600160a01b03166040840152606083018590526080830152610aeb60643560a0840161171b565b5f60c083015260a43560e08301525f6101008301525f6101208301525f6101408301525f610160830152610180820152426101a0820152426101c0820152815f525f60205260405f2090805182556001820160018060a01b03602083015116906bffffffffffffffffffffffff60a01b9182825416179055600283019060018060a01b036040840151169082541617905560608101518051906001600160401b0382116103fe578190610ba16003860154611444565b601f8111610fb4575b50602090601f8311600114610f46575f92610f3b575b50508160011b915f199060031b1c19161760038301555b60808101518051906001600160401b0382116103fe578190610bfc6004860154611444565b601f8111610eeb575b50602090601f8311600114610e7d575f92610e72575b50508160011b915f199060031b1c19161760048301555b60a08101516006811015610506576005830190815460c084015160038110156105065761ff0060ff9160081b1692169061ffff19161717905560e08101516006830155610100810151600783015561012081015160088301556101408101516009830155610160810151600a8301556101808101518051906001600160401b0382116103fe57610cc5600b850154611444565b601f8111610e2e575b50602090601f8311600114610dbe579180600d94926101c0945f92610db3575b50508160011b915f199060031b1c191617600b8501555b6101a0810151600c8501550151910155335f52600160205260405f2091825492600160401b8410156103fe5783610d439160016020960181556116f8565b81549060031b9084821b915f19901b1916179055817fad4f4fe2e3781f239a4fd5fc6b57837f9b422262490c3e9a772135bdda8c6d06610d8e6040519360608552606085019061155a565b92610d9d868201606435611598565b60a43560408201528033940390a3604051908152f35b015190508880610cee565b90601f19831691600b86015f5260205f20925f5b818110610e1657509260019285926101c096600d989610610dfe575b505050811b01600b850155610d05565b01515f1960f88460031b161c19169055888080610dee565b92936020600181928786015181550195019301610dd2565b600b85015f5260205f20601f840160051c810160208510610e6b575b601f830160051c82018110610e60575050610cce565b5f8155600101610e4a565b5080610e4a565b015190508680610c1b565b9250600485015f5260205f20905f935b601f1984168510610ed0576001945083601f19811610610eb8575b505050811b016004830155610c32565b01515f1960f88460031b161c19169055868080610ea8565b81810151835560209485019460019093019290910190610e8d565b909150600485015f5260205f20601f840160051c810160208510610f34575b90849392915b601f830160051c82018110610f26575050610c05565b5f8155859450600101610f10565b5080610f0a565b015190508680610bc0565b9250600385015f5260205f20905f935b601f1984168510610f99576001945083601f19811610610f81575b505050811b016003830155610bd7565b01515f1960f88460031b161c19169055868080610f71565b81810151835560209485019460019093019290910190610f56565b909150600385015f5260205f20601f840160051c810160208510610ffd575b90849392915b601f830160051c82018110610fef575050610baa565b5f8155859450600101610fd9565b5080610fd3565b60405162461bcd60e51b815260206004820152601860248201527f4d6178207072696365206973202431302e3030205553444300000000000000006044820152606490fd5b60405162461bcd60e51b815260206004820152601760248201527f4d696e2070726963652069732024302e313020555344430000000000000000006044820152606490fd5b60405162461bcd60e51b815260206004820152601160248201527014dd1c985d1959de481c995c5d5a5c9959607a1b6044820152606490fd5b60405162461bcd60e51b815260206004820152600d60248201526c13985b59481c995c5d5a5c9959609a1b6044820152606490fd5b34610502576020366003190112610502576004355f9081526020819052604090208054600182015460028301546001600160a01b03918216939116611143600383016114b9565b61114f600484016114b9565b60058401549060068501546007860154600887015490600988015492600a89015494600b8a0161117e906114b9565b97600c8b01549a600d0154996040519d8e809e81526020015260408d01528b6101e06060819201528c016111b19161155a565b8b810360808d01526111c29161155a565b956111d360a08c0160ff8316611598565b60c08b019060081c60ff16906111e8916115a5565b60e08a01526101008901526101208801526101408701526101608601528481036101808601526112179161155a565b916101a08401526101c08301520390f35b3461050257602036600319011261050257611241611733565b506004355f525f60205261133c60405f20600d604051916112618361147c565b8054835260018101546001600160a01b0390811660208501526002820154166040840152611291600382016114b9565b60608401526112a2600482016114b9565b60808401526112cd60ff60058301546112c082821660a0880161171b565b60081c1660c08501611727565b600681015460e0840152600781015461010084015260088101546101208401526009810154610140840152600a81015461016084015261130f600b82016114b9565b610180840152600c8101546101a084015201546101c08201526040519182916020835260208301906115b2565b0390f35b3461050257602036600319011261050257602061135e6004356117a3565b604051908152f35b34610502576040366003190112610502576024356004355f52600360205260405f209081548110156105025761139b91611417565b5080546001600160a01b03166113b3600183016114b9565b9160028101546114066113c8600384016114b9565b91600560ff600486015416940154926113f3604051978897885260c0602089015260c088019061155a565b916040870152858203606087015261155a565b911515608084015260a08301520390f35b8054821015611430575f52600660205f20910201905f90565b634e487b7160e01b5f52603260045260245ffd5b90600182811c92168015611472575b602083101461145e57565b634e487b7160e01b5f52602260045260245ffd5b91607f1691611453565b6101e081019081106001600160401b038211176103fe57604052565b90601f801991011681019081106001600160401b038211176103fe57604052565b9060405191825f8254926114cc84611444565b9081845260019485811690815f1461153757506001146114f7575b50506114f592500383611498565b565b909391505f52602090815f20935f915b81831061151f5750506114f593508201015f806114e7565b85548884018501529485019487945091830191611507565b9150506114f594506020925060ff191682840152151560051b8201015f806114e7565b91908251928382525f5b848110611584575050825f602080949584010152601f8019910116010190565b602081830181015184830182015201611564565b9060068210156105065752565b9060038210156105065752565b908151815260018060a01b0380602084015116602083015260408301511660408201526116746116066115f460608501516101e080606087015285019061155a565b6080850151848203608086015261155a565b61161860a085015160a0850190611598565b61162a60c085015160c08501906115a5565b60e084015160e0840152610100808501519084015261012080850151908401526101408085015190840152610160808501519084015261018080850151908483039085015261155a565b916101a080820151908301526101c08091015191015290565b81601f82011215610502578035906001600160401b0382116103fe57604051926116c1601f8401601f191660200185611498565b8284526020838301011161050257815f926020809301838601378301015290565b600435906001600160a01b038216820361050257565b8054821015611430575f5260205f2001905f90565b5f1981146104ee5760010190565b60068210156105065752565b60038210156105065752565b604051906117408261147c565b816101c05f91828152826020820152826040820152606080820152606060808201528260a08201528260c08201528260e0820152826101008201528261012082015282610140820152826101608201526060610180820152826101a08201520152565b5f90815280602052604081206040516117bb8161147c565b8154815260018201546001600160a01b03908116602083015260028301541660408201526117eb600383016114b9565b60608201526117fc600483016114b9565b608082015261182760ff600584015461181a82821660a0860161171b565b60081c1660c08301611727565b600682015460e08201526007820154610100820152600882015461012082015260098201549061014081019182526101c0600d600a850154946101608401958652611874600b82016114b9565b610180850152600c8101546101a085015201549101528151156118db5751906064820291808304606414901517156118c757519182156118b357500490565b634e487b7160e01b81526012600452602490fd5b634e487b7160e01b83526011600452602483fd5b505090565b6001600160401b0381116103fe5760051b60200190565b80518210156114305760209160051b01019056fea26469706673582212206671c646cb7ff7f608eae2a030b438fd03e09e6d2d69cff556999b6f5810ba2264736f6c63430008140033","opcodes":"PUSH1 0x80 DUP1 PUSH1 0x40 MSTORE CALLVALUE PUSH2 0x16 JUMPI PUSH2 0x1941 SWAP1 DUP2 PUSH2 0x1B DUP3 CODECOPY RETURN JUMPDEST PUSH0 DUP1 REVERT INVALID PUSH1 0x80 PUSH1 0x40 MSTORE PUSH1 0x4 CALLDATASIZE LT ISZERO PUSH2 0x11 JUMPI PUSH0 DUP1 REVERT JUMPDEST PUSH0 CALLDATALOAD PUSH1 0xE0 SHR DUP1 PUSH4 0xA206008 EQ PUSH2 0x1366 JUMPI DUP1 PUSH4 0xCDFF725 EQ PUSH2 0x1340 JUMPI DUP1 PUSH4 0x2DE5AAF7 EQ PUSH2 0x1228 JUMPI DUP1 PUSH4 0x513856C8 EQ PUSH2 0x10FC JUMPI DUP1 PUSH4 0x5AFE82D0 EQ PUSH2 0x9E9 JUMPI DUP1 PUSH4 0x62FEBE4F EQ PUSH2 0x992 JUMPI DUP1 PUSH4 0x6AC18987 EQ PUSH2 0x94B JUMPI DUP1 PUSH4 0x7585840A EQ PUSH2 0x8A3 JUMPI DUP1 PUSH4 0x852A0E15 EQ PUSH2 0x717 JUMPI DUP1 PUSH4 0xB1E29EA4 EQ PUSH2 0x537 JUMPI DUP1 PUSH4 0xB7DC1284 EQ PUSH2 0x51A JUMPI PUSH4 0xD36F2C62 EQ PUSH2 0x9D JUMPI PUSH0 DUP1 REVERT JUMPDEST CALLVALUE PUSH2 0x502 JUMPI PUSH1 0xA0 CALLDATASIZE PUSH1 0x3 NOT ADD SLT PUSH2 0x502 JUMPI PUSH1 0x24 CALLDATALOAD PUSH1 0x1 PUSH1 0x1 PUSH1 0xA0 SHL SUB DUP2 AND DUP2 SUB PUSH2 0x502 JUMPI PUSH1 0x44 CALLDATALOAD PUSH1 0x1 PUSH1 0x1 PUSH1 0x40 SHL SUB DUP2 GT PUSH2 0x502 JUMPI PUSH2 0xE0 SWAP1 CALLDATASIZE SWAP1 PUSH1 0x4 ADD PUSH2 0x168D JUMP JUMPDEST SWAP1 PUSH1 0x84 CALLDATALOAD PUSH1 0x1 PUSH1 0x1 PUSH1 0x40 SHL SUB DUP2 GT PUSH2 0x502 JUMPI PUSH2 0x100 SWAP1 CALLDATASIZE SWAP1 PUSH1 0x4 ADD PUSH2 0x168D JUMP JUMPDEST PUSH1 0x4 CALLDATALOAD PUSH0 MSTORE PUSH0 PUSH1 0x20 MSTORE PUSH1 0x40 PUSH0 KECCAK256 PUSH1 0xFF PUSH1 0x5 DUP3 ADD SLOAD PUSH1 0x8 SHR AND PUSH1 0x3 DUP2 LT ISZERO PUSH2 0x506 JUMPI PUSH2 0x502 JUMPI PUSH1 0x7 DUP2 ADD PUSH2 0x133 DUP2 SLOAD PUSH2 0x170D JUMP JUMPDEST SWAP1 SSTORE PUSH1 0x8 DUP2 ADD SLOAD PUSH1 0x64 CALLDATALOAD DUP2 ADD DUP2 GT PUSH2 0x4EE JUMPI PUSH1 0x64 CALLDATALOAD ADD PUSH1 0x8 DUP3 ADD SSTORE PUSH1 0xA DUP2 ADD PUSH2 0x15C DUP2 SLOAD PUSH2 0x170D JUMP JUMPDEST SWAP1 SSTORE PUSH1 0xD TIMESTAMP SWAP2 ADD SSTORE PUSH1 0x4 CALLDATALOAD PUSH0 MSTORE PUSH1 0x3 PUSH1 0x20 MSTORE PUSH1 0x40 PUSH0 KECCAK256 PUSH1 0x40 MLOAD SWAP1 DUP2 PUSH1 0xC0 DUP2 ADD LT PUSH1 0x1 PUSH1 0x1 PUSH1 0x40 SHL SUB PUSH1 0xC0 DUP5 ADD GT OR PUSH2 0x3FE JUMPI PUSH1 0xC0 DUP3 ADD PUSH1 0x40 MSTORE PUSH1 0x1 DUP1 PUSH1 0xA0 SHL SUB DUP5 AND DUP3 MSTORE PUSH1 0x20 DUP3 ADD SWAP3 DUP6 DUP5 MSTORE PUSH1 0x64 CALLDATALOAD PUSH1 0x40 DUP5 ADD MSTORE PUSH1 0x60 DUP4 ADD MSTORE PUSH0 PUSH1 0x80 DUP4 ADD MSTORE TIMESTAMP PUSH1 0xA0 DUP4 ADD MSTORE DUP1 SLOAD PUSH1 0x1 PUSH1 0x40 SHL DUP2 LT ISZERO PUSH2 0x3FE JUMPI PUSH2 0x1DE SWAP2 PUSH1 0x1 DUP3 ADD DUP2 SSTORE PUSH2 0x1417 JUMP JUMPDEST SWAP3 SWAP1 SWAP3 PUSH2 0x4DB JUMPI DUP2 MLOAD DUP4 SLOAD PUSH1 0x1 PUSH1 0x1 PUSH1 0xA0 SHL SUB NOT AND PUSH1 0x1 PUSH1 0x1 PUSH1 0xA0 SHL SUB SWAP2 SWAP1 SWAP2 AND OR DUP4 SSTORE MLOAD DUP1 MLOAD SWAP1 PUSH1 0x1 PUSH1 0x1 PUSH1 0x40 SHL SUB DUP3 GT PUSH2 0x3FE JUMPI DUP2 SWAP1 PUSH2 0x223 PUSH1 0x1 DUP7 ADD SLOAD PUSH2 0x1444 JUMP JUMPDEST PUSH1 0x1F DUP2 GT PUSH2 0x48B JUMPI JUMPDEST POP PUSH1 0x20 SWAP1 PUSH1 0x1F DUP4 GT PUSH1 0x1 EQ PUSH2 0x41D JUMPI PUSH0 SWAP3 PUSH2 0x412 JUMPI JUMPDEST POP POP DUP2 PUSH1 0x1 SHL SWAP2 PUSH0 NOT SWAP1 PUSH1 0x3 SHL SHR NOT AND OR PUSH1 0x1 DUP4 ADD SSTORE JUMPDEST PUSH1 0x40 DUP2 ADD MLOAD PUSH1 0x2 DUP4 ADD SSTORE PUSH1 0x60 DUP2 ADD MLOAD DUP1 MLOAD SWAP1 PUSH1 0x1 PUSH1 0x1 PUSH1 0x40 SHL SUB DUP3 GT PUSH2 0x3FE JUMPI PUSH2 0x286 PUSH1 0x3 DUP6 ADD SLOAD PUSH2 0x1444 JUMP JUMPDEST PUSH1 0x1F DUP2 GT PUSH2 0x3BA JUMPI JUMPDEST POP PUSH1 0x20 SWAP1 PUSH1 0x1F DUP4 GT PUSH1 0x1 EQ PUSH2 0x349 JUMPI SWAP2 DUP1 PUSH1 0x5 SWAP5 SWAP3 PUSH1 0xA0 SWAP5 PUSH0 SWAP3 PUSH2 0x33E JUMPI JUMPDEST POP POP DUP2 PUSH1 0x1 SHL SWAP2 PUSH0 NOT SWAP1 PUSH1 0x3 SHL SHR NOT AND OR PUSH1 0x3 DUP6 ADD SSTORE JUMPDEST PUSH2 0x2E4 PUSH1 0x80 DUP3 ADD MLOAD ISZERO ISZERO PUSH1 0x4 DUP7 ADD SWAP1 PUSH1 0xFF DUP1 NOT DUP4 SLOAD AND SWAP2 ISZERO ISZERO AND OR SWAP1 SSTORE JUMP JUMPDEST ADD MLOAD SWAP2 ADD SSTORE PUSH32 0x36A7C90A1B3F57E92180DB75D77E2FB22D0508F162FEB6B96CD8EF0108070700 PUSH2 0x31F PUSH1 0x40 MLOAD SWAP4 PUSH1 0x40 DUP6 MSTORE PUSH1 0x40 DUP6 ADD SWAP1 PUSH2 0x155A JUMP JUMPDEST PUSH1 0x64 CALLDATALOAD PUSH1 0x20 DUP6 ADD MSTORE PUSH1 0x1 PUSH1 0x1 PUSH1 0xA0 SHL SUB SWAP1 SWAP3 AND SWAP3 PUSH1 0x4 CALLDATALOAD SWAP3 DUP2 SWAP1 SUB SWAP1 LOG3 STOP JUMPDEST ADD MLOAD SWAP1 POP PUSH0 DUP1 PUSH2 0x2AE JUMP JUMPDEST SWAP1 PUSH1 0x3 DUP6 ADD PUSH0 MSTORE PUSH1 0x20 PUSH0 KECCAK256 SWAP2 PUSH0 JUMPDEST PUSH1 0x1F NOT DUP6 AND DUP2 LT PUSH2 0x3A2 JUMPI POP SWAP3 PUSH1 0x5 SWAP5 SWAP3 PUSH1 0x1 SWAP3 PUSH1 0xA0 SWAP6 DUP4 PUSH1 0x1F NOT DUP2 AND LT PUSH2 0x38A JUMPI JUMPDEST POP POP POP DUP2 SHL ADD PUSH1 0x3 DUP6 ADD SSTORE PUSH2 0x2C5 JUMP JUMPDEST ADD MLOAD PUSH0 NOT PUSH1 0xF8 DUP5 PUSH1 0x3 SHL AND SHR NOT AND SWAP1 SSTORE PUSH0 DUP1 DUP1 PUSH2 0x37A JUMP JUMPDEST SWAP2 SWAP3 PUSH1 0x20 PUSH1 0x1 DUP2 SWAP3 DUP7 DUP6 ADD MLOAD DUP2 SSTORE ADD SWAP5 ADD SWAP3 ADD PUSH2 0x357 JUMP JUMPDEST PUSH1 0x3 DUP6 ADD PUSH0 MSTORE PUSH1 0x20 PUSH0 KECCAK256 PUSH1 0x1F DUP5 ADD PUSH1 0x5 SHR DUP2 ADD PUSH1 0x20 DUP6 LT PUSH2 0x3F7 JUMPI JUMPDEST PUSH1 0x1F DUP4 ADD PUSH1 0x5 SHR DUP3 ADD DUP2 LT PUSH2 0x3EC JUMPI POP POP PUSH2 0x28F JUMP JUMPDEST PUSH0 DUP2 SSTORE PUSH1 0x1 ADD PUSH2 0x3D6 JUMP JUMPDEST POP DUP1 PUSH2 0x3D6 JUMP JUMPDEST PUSH4 0x4E487B71 PUSH1 0xE0 SHL PUSH0 MSTORE PUSH1 0x41 PUSH1 0x4 MSTORE PUSH1 0x24 PUSH0 REVERT JUMPDEST ADD MLOAD SWAP1 POP PUSH0 DUP1 PUSH2 0x242 JUMP JUMPDEST SWAP3 POP PUSH1 0x1 DUP6 ADD PUSH0 MSTORE PUSH1 0x20 PUSH0 KECCAK256 SWAP1 PUSH0 SWAP4 JUMPDEST PUSH1 0x1F NOT DUP5 AND DUP6 LT PUSH2 0x470 JUMPI PUSH1 0x1 SWAP5 POP DUP4 PUSH1 0x1F NOT DUP2 AND LT PUSH2 0x458 JUMPI JUMPDEST POP POP POP DUP2 SHL ADD PUSH1 0x1 DUP4 ADD SSTORE PUSH2 0x259 JUMP JUMPDEST ADD MLOAD PUSH0 NOT PUSH1 0xF8 DUP5 PUSH1 0x3 SHL AND SHR NOT AND SWAP1 SSTORE PUSH0 DUP1 DUP1 PUSH2 0x448 JUMP JUMPDEST DUP2 DUP2 ADD MLOAD DUP4 SSTORE PUSH1 0x20 SWAP5 DUP6 ADD SWAP5 PUSH1 0x1 SWAP1 SWAP4 ADD SWAP3 SWAP1 SWAP2 ADD SWAP1 PUSH2 0x42D JUMP JUMPDEST SWAP1 SWAP2 POP PUSH1 0x1 DUP6 ADD PUSH0 MSTORE PUSH1 0x20 PUSH0 KECCAK256 PUSH1 0x1F DUP5 ADD PUSH1 0x5 SHR DUP2 ADD PUSH1 0x20 DUP6 LT PUSH2 0x4D4 JUMPI JUMPDEST SWAP1 DUP5 SWAP4 SWAP3 SWAP2 JUMPDEST PUSH1 0x1F DUP4 ADD PUSH1 0x5 SHR DUP3 ADD DUP2 LT PUSH2 0x4C6 JUMPI POP POP PUSH2 0x22C JUMP JUMPDEST PUSH0 DUP2 SSTORE DUP6 SWAP5 POP PUSH1 0x1 ADD PUSH2 0x4B0 JUMP JUMPDEST POP DUP1 PUSH2 0x4AA JUMP JUMPDEST PUSH4 0x4E487B71 PUSH1 0xE0 SHL PUSH0 MSTORE PUSH0 PUSH1 0x4 MSTORE PUSH1 0x24 PUSH0 REVERT JUMPDEST PUSH4 0x4E487B71 PUSH1 0xE0 SHL PUSH0 MSTORE PUSH1 0x11 PUSH1 0x4 MSTORE PUSH1 0x24 PUSH0 REVERT JUMPDEST PUSH0 DUP1 REVERT JUMPDEST PUSH4 0x4E487B71 PUSH1 0xE0 SHL PUSH0 MSTORE PUSH1 0x21 PUSH1 0x4 MSTORE PUSH1 0x24 PUSH0 REVERT JUMPDEST CALLVALUE PUSH2 0x502 JUMPI PUSH0 CALLDATASIZE PUSH1 0x3 NOT ADD SLT PUSH2 0x502 JUMPI PUSH1 0x20 PUSH1 0x2 SLOAD PUSH1 0x40 MLOAD SWAP1 DUP2 MSTORE RETURN JUMPDEST CALLVALUE PUSH2 0x502 JUMPI PUSH1 0x20 DUP1 PUSH1 0x3 NOT CALLDATASIZE ADD SLT PUSH2 0x502 JUMPI PUSH1 0x2 DUP1 SLOAD PUSH1 0x4 CALLDATALOAD DUP1 DUP3 LT ISZERO PUSH2 0x710 JUMPI POP JUMPDEST PUSH2 0x563 DUP2 PUSH2 0x18E0 JUMP JUMPDEST SWAP2 PUSH2 0x571 PUSH1 0x40 MLOAD SWAP4 DUP5 PUSH2 0x1498 JUMP JUMPDEST DUP2 DUP4 MSTORE PUSH1 0x1F NOT PUSH2 0x580 DUP4 PUSH2 0x18E0 JUMP JUMPDEST ADD DUP5 PUSH0 JUMPDEST DUP3 DUP2 LT PUSH2 0x6FA JUMPI POP POP POP PUSH0 JUMPDEST DUP3 DUP2 LT PUSH2 0x5F8 JUMPI POP POP POP PUSH1 0x40 MLOAD SWAP1 DUP3 DUP3 ADD SWAP3 DUP1 DUP4 MSTORE DUP2 MLOAD DUP1 SWAP5 MSTORE PUSH1 0x40 DUP4 ADD SWAP4 DUP2 PUSH1 0x40 DUP3 PUSH1 0x5 SHL DUP7 ADD ADD SWAP4 ADD SWAP2 PUSH0 SWAP6 JUMPDEST DUP3 DUP8 LT PUSH2 0x5CC JUMPI DUP6 DUP6 SUB DUP7 RETURN JUMPDEST SWAP1 SWAP2 SWAP3 SWAP4 DUP3 DUP1 PUSH2 0x5E8 PUSH1 0x1 SWAP4 PUSH1 0x3F NOT DUP11 DUP3 SUB ADD DUP7 MSTORE DUP9 MLOAD PUSH2 0x15B2 JUMP JUMPDEST SWAP7 ADD SWAP3 ADD SWAP7 ADD SWAP6 SWAP3 SWAP2 SWAP1 SWAP3 PUSH2 0x5BF JUMP JUMPDEST DUP1 PUSH2 0x6F5 SWAP2 PUSH0 MSTORE PUSH0 DUP7 MSTORE PUSH1 0x40 PUSH0 KECCAK256 PUSH1 0xD PUSH1 0x40 MLOAD SWAP2 PUSH2 0x615 DUP4 PUSH2 0x147C JUMP JUMPDEST DUP1 SLOAD DUP4 MSTORE PUSH1 0x1 DUP2 ADD SLOAD PUSH1 0x1 PUSH1 0x1 PUSH1 0xA0 SHL SUB SWAP1 DUP2 AND DUP11 DUP6 ADD MSTORE DUP7 DUP3 ADD SLOAD AND PUSH1 0x40 DUP5 ADD MSTORE PUSH2 0x643 PUSH1 0x3 DUP3 ADD PUSH2 0x14B9 JUMP JUMPDEST PUSH1 0x60 DUP5 ADD MSTORE PUSH2 0x654 PUSH1 0x4 DUP3 ADD PUSH2 0x14B9 JUMP JUMPDEST PUSH1 0x80 DUP5 ADD MSTORE PUSH1 0x5 DUP2 ADD SLOAD PUSH2 0x681 PUSH1 0xFF PUSH2 0x672 DUP2 DUP5 AND PUSH1 0xA0 DUP9 ADD PUSH2 0x171B JUMP JUMPDEST PUSH1 0x8 SWAP3 DUP4 SHR AND PUSH1 0xC0 DUP7 ADD PUSH2 0x1727 JUMP JUMPDEST PUSH1 0x6 DUP3 ADD SLOAD PUSH1 0xE0 DUP6 ADD MSTORE PUSH1 0x7 DUP3 ADD SLOAD PUSH2 0x100 DUP6 ADD MSTORE DUP2 ADD SLOAD PUSH2 0x120 DUP5 ADD MSTORE PUSH1 0x9 DUP2 ADD SLOAD PUSH2 0x140 DUP5 ADD MSTORE PUSH1 0xA DUP2 ADD SLOAD PUSH2 0x160 DUP5 ADD MSTORE PUSH2 0x6C1 PUSH1 0xB DUP3 ADD PUSH2 0x14B9 JUMP JUMPDEST PUSH2 0x180 DUP5 ADD MSTORE PUSH1 0xC DUP2 ADD SLOAD PUSH2 0x1A0 DUP5 ADD MSTORE ADD SLOAD PUSH2 0x1C0 DUP3 ADD MSTORE PUSH2 0x6E4 DUP3 DUP8 PUSH2 0x18F7 JUMP JUMPDEST MSTORE PUSH2 0x6EF DUP2 DUP7 PUSH2 0x18F7 JUMP JUMPDEST POP PUSH2 0x170D JUMP JUMPDEST PUSH2 0x590 JUMP JUMPDEST PUSH2 0x702 PUSH2 0x1733 JUMP JUMPDEST DUP3 DUP3 DUP9 ADD ADD MSTORE ADD DUP6 SWAP1 PUSH2 0x584 JUMP JUMPDEST SWAP1 POP PUSH2 0x55A JUMP JUMPDEST CALLVALUE PUSH2 0x502 JUMPI PUSH1 0x60 DUP1 PUSH1 0x3 NOT CALLDATASIZE ADD SLT PUSH2 0x502 JUMPI PUSH1 0x4 CALLDATALOAD SWAP1 PUSH1 0x44 CALLDATALOAD SWAP1 DUP2 ISZERO ISZERO PUSH1 0x24 CALLDATALOAD DUP2 DUP5 SUB PUSH2 0x502 JUMPI PUSH2 0x787 PUSH1 0x3 SWAP2 DUP6 PUSH2 0x884 JUMPI JUMPDEST DUP7 PUSH0 MSTORE PUSH2 0x778 PUSH1 0x20 SWAP7 DUP5 DUP9 MSTORE PUSH1 0x4 PUSH2 0x765 DUP5 PUSH1 0x40 PUSH0 KECCAK256 PUSH2 0x1417 JUMP JUMPDEST POP ADD SWAP1 PUSH1 0xFF DUP1 NOT DUP4 SLOAD AND SWAP2 ISZERO ISZERO AND OR SWAP1 SSTORE JUMP JUMPDEST DUP7 PUSH0 MSTORE DUP3 DUP7 MSTORE PUSH1 0x40 PUSH0 KECCAK256 PUSH2 0x1417 JUMP JUMPDEST POP ADD SWAP3 PUSH1 0x40 MLOAD SWAP3 PUSH1 0x40 DUP5 MSTORE PUSH0 SWAP5 DUP1 SLOAD PUSH2 0x79F DUP2 PUSH2 0x1444 JUMP JUMPDEST SWAP2 DUP3 PUSH1 0x40 DUP9 ADD MSTORE PUSH1 0x1 SWAP2 DUP3 DUP2 AND SWAP1 DUP2 PUSH0 EQ PUSH2 0x846 JUMPI POP PUSH1 0x1 EQ PUSH2 0x7EC JUMPI JUMPDEST DUP9 PUSH32 0x81180D88AE26E3D83037388A2045B8D5ED1F60425BF018446D2CDA2A683D576F DUP9 DUP1 DUP12 DUP11 DUP11 DUP4 ADD MSTORE SUB SWAP1 LOG2 STOP JUMPDEST SWAP1 SWAP3 SWAP4 SWAP6 SWAP7 POP PUSH0 MSTORE DUP5 PUSH0 KECCAK256 SWAP2 PUSH0 SWAP3 JUMPDEST DUP3 DUP5 LT PUSH2 0x833 JUMPI POP POP POP DUP5 ADD ADD SWAP3 SWAP2 DUP2 PUSH32 0x81180D88AE26E3D83037388A2045B8D5ED1F60425BF018446D2CDA2A683D576F DUP5 DUP9 PUSH2 0x7BD JUMP JUMPDEST DUP1 SLOAD DUP9 DUP6 ADD DUP7 ADD MSTORE SWAP3 DUP7 ADD SWAP3 DUP2 ADD PUSH2 0x7FB JUMP JUMPDEST PUSH1 0xFF NOT AND DUP6 DUP10 ADD MSTORE POP POP POP ISZERO ISZERO PUSH1 0x5 SHL DUP5 ADD ADD SWAP4 POP DUP2 PUSH32 0x81180D88AE26E3D83037388A2045B8D5ED1F60425BF018446D2CDA2A683D576F DUP5 DUP9 PUSH2 0x7BD JUMP JUMPDEST DUP7 PUSH0 MSTORE PUSH0 PUSH1 0x20 MSTORE PUSH1 0x9 PUSH1 0x40 PUSH0 KECCAK256 ADD PUSH2 0x89C DUP2 SLOAD PUSH2 0x170D JUMP JUMPDEST SWAP1 SSTORE PUSH2 0x74A JUMP JUMPDEST CALLVALUE PUSH2 0x502 JUMPI PUSH1 0x20 DUP1 PUSH1 0x3 NOT CALLDATASIZE ADD SLT PUSH2 0x502 JUMPI PUSH1 0x1 PUSH1 0x1 PUSH1 0xA0 SHL SUB PUSH2 0x8C5 PUSH2 0x16E2 JUMP JUMPDEST AND PUSH0 MSTORE PUSH1 0x1 SWAP1 DUP2 DUP2 MSTORE PUSH1 0x40 PUSH0 KECCAK256 SWAP2 PUSH1 0x40 MLOAD SWAP2 DUP3 DUP2 DUP6 SLOAD SWAP2 DUP3 DUP2 MSTORE ADD SWAP1 DUP2 SWAP6 PUSH0 MSTORE DUP3 PUSH0 KECCAK256 SWAP1 PUSH0 JUMPDEST DUP2 DUP2 LT PUSH2 0x938 JUMPI POP POP POP DUP4 PUSH2 0x901 SWAP2 SUB DUP5 PUSH2 0x1498 JUMP JUMPDEST PUSH1 0x40 MLOAD SWAP3 DUP2 DUP5 ADD SWAP1 DUP3 DUP6 MSTORE MLOAD DUP1 SWAP2 MSTORE PUSH1 0x40 DUP5 ADD SWAP5 SWAP2 PUSH0 JUMPDEST DUP3 DUP2 LT PUSH2 0x925 JUMPI DUP6 DUP8 SUB DUP7 RETURN JUMPDEST DUP4 MLOAD DUP8 MSTORE SWAP6 DUP2 ADD SWAP6 SWAP3 DUP2 ADD SWAP3 DUP5 ADD PUSH2 0x918 JUMP JUMPDEST DUP3 SLOAD DUP5 MSTORE SWAP3 DUP5 ADD SWAP3 SWAP2 DUP6 ADD SWAP2 DUP6 ADD PUSH2 0x8EB JUMP JUMPDEST CALLVALUE PUSH2 0x502 JUMPI PUSH1 0x20 CALLDATASIZE PUSH1 0x3 NOT ADD SLT PUSH2 0x502 JUMPI PUSH1 0x4 CALLDATALOAD PUSH0 SWAP1 DUP2 MSTORE PUSH1 0x20 DUP2 SWAP1 MSTORE PUSH1 0x40 SWAP1 KECCAK256 PUSH1 0x1 DUP2 ADD SLOAD PUSH1 0x1 PUSH1 0x1 PUSH1 0xA0 SHL SUB AND CALLER SUB PUSH2 0x502 JUMPI PUSH1 0x5 ADD DUP1 SLOAD PUSH2 0xFF00 NOT AND PUSH2 0x100 OR SWAP1 SSTORE STOP JUMPDEST CALLVALUE PUSH2 0x502 JUMPI PUSH1 0x40 CALLDATASIZE PUSH1 0x3 NOT ADD SLT PUSH2 0x502 JUMPI PUSH2 0x9AB PUSH2 0x16E2 JUMP JUMPDEST PUSH1 0x1 PUSH1 0x1 PUSH1 0xA0 SHL SUB AND PUSH0 SWAP1 DUP2 MSTORE PUSH1 0x1 PUSH1 0x20 MSTORE PUSH1 0x40 SWAP1 KECCAK256 DUP1 SLOAD PUSH1 0x24 CALLDATALOAD SWAP2 SWAP1 DUP3 LT ISZERO PUSH2 0x502 JUMPI PUSH1 0x20 SWAP2 PUSH2 0x9DB SWAP2 PUSH2 0x16F8 JUMP JUMPDEST SWAP1 SLOAD PUSH1 0x40 MLOAD SWAP2 PUSH1 0x3 SHL SHR DUP2 MSTORE RETURN JUMPDEST CALLVALUE PUSH2 0x502 JUMPI PUSH1 0xC0 CALLDATASIZE PUSH1 0x3 NOT ADD SLT PUSH2 0x502 JUMPI PUSH1 0x4 CALLDATALOAD PUSH1 0x1 PUSH1 0x1 PUSH1 0x40 SHL SUB DUP2 GT PUSH2 0x502 JUMPI PUSH2 0xA19 SWAP1 CALLDATASIZE SWAP1 PUSH1 0x4 ADD PUSH2 0x168D JUMP JUMPDEST PUSH1 0x24 CALLDATALOAD PUSH1 0x1 PUSH1 0x1 PUSH1 0x40 SHL SUB DUP2 GT PUSH2 0x502 JUMPI PUSH2 0xA38 SWAP1 CALLDATASIZE SWAP1 PUSH1 0x4 ADD PUSH2 0x168D JUMP JUMPDEST PUSH1 0x44 CALLDATALOAD PUSH1 0x1 PUSH1 0x1 PUSH1 0x40 SHL SUB DUP2 GT PUSH2 0x502 JUMPI PUSH2 0xA57 SWAP1 CALLDATASIZE SWAP1 PUSH1 0x4 ADD PUSH2 0x168D JUMP JUMPDEST PUSH1 0x6 PUSH1 0x64 CALLDATALOAD LT ISZERO PUSH2 0x502 JUMPI PUSH1 0x84 CALLDATALOAD SWAP1 PUSH1 0x1 PUSH1 0x1 PUSH1 0xA0 SHL SUB DUP3 AND DUP3 SUB PUSH2 0x502 JUMPI DUP4 MLOAD ISZERO PUSH2 0x10C7 JUMPI DUP1 MLOAD ISZERO PUSH2 0x108E JUMPI PUSH3 0x186A0 PUSH1 0xA4 CALLDATALOAD LT PUSH2 0x1049 JUMPI PUSH3 0x989680 PUSH1 0xA4 CALLDATALOAD GT PUSH2 0x1004 JUMPI PUSH1 0x2 SLOAD SWAP3 PUSH2 0xAA9 DUP5 PUSH2 0x170D JUMP JUMPDEST PUSH1 0x2 SSTORE PUSH1 0x40 MLOAD SWAP3 PUSH2 0xAB9 DUP5 PUSH2 0x147C JUMP JUMPDEST DUP5 DUP5 MSTORE CALLER PUSH1 0x20 DUP6 ADD MSTORE PUSH1 0x1 PUSH1 0x1 PUSH1 0xA0 SHL SUB AND PUSH1 0x40 DUP5 ADD MSTORE PUSH1 0x60 DUP4 ADD DUP6 SWAP1 MSTORE PUSH1 0x80 DUP4 ADD MSTORE PUSH2 0xAEB PUSH1 0x64 CALLDATALOAD PUSH1 0xA0 DUP5 ADD PUSH2 0x171B JUMP JUMPDEST PUSH0 PUSH1 0xC0 DUP4 ADD MSTORE PUSH1 0xA4 CALLDATALOAD PUSH1 0xE0 DUP4 ADD MSTORE PUSH0 PUSH2 0x100 DUP4 ADD MSTORE PUSH0 PUSH2 0x120 DUP4 ADD MSTORE PUSH0 PUSH2 0x140 DUP4 ADD MSTORE PUSH0 PUSH2 0x160 DUP4 ADD MSTORE PUSH2 0x180 DUP3 ADD MSTORE TIMESTAMP PUSH2 0x1A0 DUP3 ADD MSTORE TIMESTAMP PUSH2 0x1C0 DUP3 ADD MSTORE DUP2 PUSH0 MSTORE PUSH0 PUSH1 0x20 MSTORE PUSH1 0x40 PUSH0 KECCAK256 SWAP1 DUP1 MLOAD DUP3 SSTORE PUSH1 0x1 DUP3 ADD PUSH1 0x1 DUP1 PUSH1 0xA0 SHL SUB PUSH1 0x20 DUP4 ADD MLOAD AND SWAP1 PUSH12 0xFFFFFFFFFFFFFFFFFFFFFFFF PUSH1 0xA0 SHL SWAP2 DUP3 DUP3 SLOAD AND OR SWAP1 SSTORE PUSH1 0x2 DUP4 ADD SWAP1 PUSH1 0x1 DUP1 PUSH1 0xA0 SHL SUB PUSH1 0x40 DUP5 ADD MLOAD AND SWAP1 DUP3 SLOAD AND OR SWAP1 SSTORE PUSH1 0x60 DUP2 ADD MLOAD DUP1 MLOAD SWAP1 PUSH1 0x1 PUSH1 0x1 PUSH1 0x40 SHL SUB DUP3 GT PUSH2 0x3FE JUMPI DUP2 SWAP1 PUSH2 0xBA1 PUSH1 0x3 DUP7 ADD SLOAD PUSH2 0x1444 JUMP JUMPDEST PUSH1 0x1F DUP2 GT PUSH2 0xFB4 JUMPI JUMPDEST POP PUSH1 0x20 SWAP1 PUSH1 0x1F DUP4 GT PUSH1 0x1 EQ PUSH2 0xF46 JUMPI PUSH0 SWAP3 PUSH2 0xF3B JUMPI JUMPDEST POP POP DUP2 PUSH1 0x1 SHL SWAP2 PUSH0 NOT SWAP1 PUSH1 0x3 SHL SHR NOT AND OR PUSH1 0x3 DUP4 ADD SSTORE JUMPDEST PUSH1 0x80 DUP2 ADD MLOAD DUP1 MLOAD SWAP1 PUSH1 0x1 PUSH1 0x1 PUSH1 0x40 SHL SUB DUP3 GT PUSH2 0x3FE JUMPI DUP2 SWAP1 PUSH2 0xBFC PUSH1 0x4 DUP7 ADD SLOAD PUSH2 0x1444 JUMP JUMPDEST PUSH1 0x1F DUP2 GT PUSH2 0xEEB JUMPI JUMPDEST POP PUSH1 0x20 SWAP1 PUSH1 0x1F DUP4 GT PUSH1 0x1 EQ PUSH2 0xE7D JUMPI PUSH0 SWAP3 PUSH2 0xE72 JUMPI JUMPDEST POP POP DUP2 PUSH1 0x1 SHL SWAP2 PUSH0 NOT SWAP1 PUSH1 0x3 SHL SHR NOT AND OR PUSH1 0x4 DUP4 ADD SSTORE JUMPDEST PUSH1 0xA0 DUP2 ADD MLOAD PUSH1 0x6 DUP2 LT ISZERO PUSH2 0x506 JUMPI PUSH1 0x5 DUP4 ADD SWAP1 DUP2 SLOAD PUSH1 0xC0 DUP5 ADD MLOAD PUSH1 0x3 DUP2 LT ISZERO PUSH2 0x506 JUMPI PUSH2 0xFF00 PUSH1 0xFF SWAP2 PUSH1 0x8 SHL AND SWAP3 AND SWAP1 PUSH2 0xFFFF NOT AND OR OR SWAP1 SSTORE PUSH1 0xE0 DUP2 ADD MLOAD PUSH1 0x6 DUP4 ADD SSTORE PUSH2 0x100 DUP2 ADD MLOAD PUSH1 0x7 DUP4 ADD SSTORE PUSH2 0x120 DUP2 ADD MLOAD PUSH1 0x8 DUP4 ADD SSTORE PUSH2 0x140 DUP2 ADD MLOAD PUSH1 0x9 DUP4 ADD SSTORE PUSH2 0x160 DUP2 ADD MLOAD PUSH1 0xA DUP4 ADD SSTORE PUSH2 0x180 DUP2 ADD MLOAD DUP1 MLOAD SWAP1 PUSH1 0x1 PUSH1 0x1 PUSH1 0x40 SHL SUB DUP3 GT PUSH2 0x3FE JUMPI PUSH2 0xCC5 PUSH1 0xB DUP6 ADD SLOAD PUSH2 0x1444 JUMP JUMPDEST PUSH1 0x1F DUP2 GT PUSH2 0xE2E JUMPI JUMPDEST POP PUSH1 0x20 SWAP1 PUSH1 0x1F DUP4 GT PUSH1 0x1 EQ PUSH2 0xDBE JUMPI SWAP2 DUP1 PUSH1 0xD SWAP5 SWAP3 PUSH2 0x1C0 SWAP5 PUSH0 SWAP3 PUSH2 0xDB3 JUMPI JUMPDEST POP POP DUP2 PUSH1 0x1 SHL SWAP2 PUSH0 NOT SWAP1 PUSH1 0x3 SHL SHR NOT AND OR PUSH1 0xB DUP6 ADD SSTORE JUMPDEST PUSH2 0x1A0 DUP2 ADD MLOAD PUSH1 0xC DUP6 ADD SSTORE ADD MLOAD SWAP2 ADD SSTORE CALLER PUSH0 MSTORE PUSH1 0x1 PUSH1 0x20 MSTORE PUSH1 0x40 PUSH0 KECCAK256 SWAP2 DUP3 SLOAD SWAP3 PUSH1 0x1 PUSH1 0x40 SHL DUP5 LT ISZERO PUSH2 0x3FE JUMPI DUP4 PUSH2 0xD43 SWAP2 PUSH1 0x1 PUSH1 0x20 SWAP7 ADD DUP2 SSTORE PUSH2 0x16F8 JUMP JUMPDEST DUP2 SLOAD SWAP1 PUSH1 0x3 SHL SWAP1 DUP5 DUP3 SHL SWAP2 PUSH0 NOT SWAP1 SHL NOT AND OR SWAP1 SSTORE DUP2 PUSH32 0xAD4F4FE2E3781F239A4FD5FC6B57837F9B422262490C3E9A772135BDDA8C6D06 PUSH2 0xD8E PUSH1 0x40 MLOAD SWAP4 PUSH1 0x60 DUP6 MSTORE PUSH1 0x60 DUP6 ADD SWAP1 PUSH2 0x155A JUMP JUMPDEST SWAP3 PUSH2 0xD9D DUP7 DUP3 ADD PUSH1 0x64 CALLDATALOAD PUSH2 0x1598 JUMP JUMPDEST PUSH1 0xA4 CALLDATALOAD PUSH1 0x40 DUP3 ADD MSTORE DUP1 CALLER SWAP5 SUB SWAP1 LOG3 PUSH1 0x40 MLOAD SWAP1 DUP2 MSTORE RETURN JUMPDEST ADD MLOAD SWAP1 POP DUP9 DUP1 PUSH2 0xCEE JUMP JUMPDEST SWAP1 PUSH1 0x1F NOT DUP4 AND SWAP2 PUSH1 0xB DUP7 ADD PUSH0 MSTORE PUSH1 0x20 PUSH0 KECCAK256 SWAP3 PUSH0 JUMPDEST DUP2 DUP2 LT PUSH2 0xE16 JUMPI POP SWAP3 PUSH1 0x1 SWAP3 DUP6 SWAP3 PUSH2 0x1C0 SWAP7 PUSH1 0xD SWAP9 SWAP7 LT PUSH2 0xDFE JUMPI JUMPDEST POP POP POP DUP2 SHL ADD PUSH1 0xB DUP6 ADD SSTORE PUSH2 0xD05 JUMP JUMPDEST ADD MLOAD PUSH0 NOT PUSH1 0xF8 DUP5 PUSH1 0x3 SHL AND SHR NOT AND SWAP1 SSTORE DUP9 DUP1 DUP1 PUSH2 0xDEE JUMP JUMPDEST SWAP3 SWAP4 PUSH1 0x20 PUSH1 0x1 DUP2 SWAP3 DUP8 DUP7 ADD MLOAD DUP2 SSTORE ADD SWAP6 ADD SWAP4 ADD PUSH2 0xDD2 JUMP JUMPDEST PUSH1 0xB DUP6 ADD PUSH0 MSTORE PUSH1 0x20 PUSH0 KECCAK256 PUSH1 0x1F DUP5 ADD PUSH1 0x5 SHR DUP2 ADD PUSH1 0x20 DUP6 LT PUSH2 0xE6B JUMPI JUMPDEST PUSH1 0x1F DUP4 ADD PUSH1 0x5 SHR DUP3 ADD DUP2 LT PUSH2 0xE60 JUMPI POP POP PUSH2 0xCCE JUMP JUMPDEST PUSH0 DUP2 SSTORE PUSH1 0x1 ADD PUSH2 0xE4A JUMP JUMPDEST POP DUP1 PUSH2 0xE4A JUMP JUMPDEST ADD MLOAD SWAP1 POP DUP7 DUP1 PUSH2 0xC1B JUMP JUMPDEST SWAP3 POP PUSH1 0x4 DUP6 ADD PUSH0 MSTORE PUSH1 0x20 PUSH0 KECCAK256 SWAP1 PUSH0 SWAP4 JUMPDEST PUSH1 0x1F NOT DUP5 AND DUP6 LT PUSH2 0xED0 JUMPI PUSH1 0x1 SWAP5 POP DUP4 PUSH1 0x1F NOT DUP2 AND LT PUSH2 0xEB8 JUMPI JUMPDEST POP POP POP DUP2 SHL ADD PUSH1 0x4 DUP4 ADD SSTORE PUSH2 0xC32 JUMP JUMPDEST ADD MLOAD PUSH0 NOT PUSH1 0xF8 DUP5 PUSH1 0x3 SHL AND SHR NOT AND SWAP1 SSTORE DUP7 DUP1 DUP1 PUSH2 0xEA8 JUMP JUMPDEST DUP2 DUP2 ADD MLOAD DUP4 SSTORE PUSH1 0x20 SWAP5 DUP6 ADD SWAP5 PUSH1 0x1 SWAP1 SWAP4 ADD SWAP3 SWAP1 SWAP2 ADD SWAP1 PUSH2 0xE8D JUMP JUMPDEST SWAP1 SWAP2 POP PUSH1 0x4 DUP6 ADD PUSH0 MSTORE PUSH1 0x20 PUSH0 KECCAK256 PUSH1 0x1F DUP5 ADD PUSH1 0x5 SHR DUP2 ADD PUSH1 0x20 DUP6 LT PUSH2 0xF34 JUMPI JUMPDEST SWAP1 DUP5 SWAP4 SWAP3 SWAP2 JUMPDEST PUSH1 0x1F DUP4 ADD PUSH1 0x5 SHR DUP3 ADD DUP2 LT PUSH2 0xF26 JUMPI POP POP PUSH2 0xC05 JUMP JUMPDEST PUSH0 DUP2 SSTORE DUP6 SWAP5 POP PUSH1 0x1 ADD PUSH2 0xF10 JUMP JUMPDEST POP DUP1 PUSH2 0xF0A JUMP JUMPDEST ADD MLOAD SWAP1 POP DUP7 DUP1 PUSH2 0xBC0 JUMP JUMPDEST SWAP3 POP PUSH1 0x3 DUP6 ADD PUSH0 MSTORE PUSH1 0x20 PUSH0 KECCAK256 SWAP1 PUSH0 SWAP4 JUMPDEST PUSH1 0x1F NOT DUP5 AND DUP6 LT PUSH2 0xF99 JUMPI PUSH1 0x1 SWAP5 POP DUP4 PUSH1 0x1F NOT DUP2 AND LT PUSH2 0xF81 JUMPI JUMPDEST POP POP POP DUP2 SHL ADD PUSH1 0x3 DUP4 ADD SSTORE PUSH2 0xBD7 JUMP JUMPDEST ADD MLOAD PUSH0 NOT PUSH1 0xF8 DUP5 PUSH1 0x3 SHL AND SHR NOT AND SWAP1 SSTORE DUP7 DUP1 DUP1 PUSH2 0xF71 JUMP JUMPDEST DUP2 DUP2 ADD MLOAD DUP4 SSTORE PUSH1 0x20 SWAP5 DUP6 ADD SWAP5 PUSH1 0x1 SWAP1 SWAP4 ADD SWAP3 SWAP1 SWAP2 ADD SWAP1 PUSH2 0xF56 JUMP JUMPDEST SWAP1 SWAP2 POP PUSH1 0x3 DUP6 ADD PUSH0 MSTORE PUSH1 0x20 PUSH0 KECCAK256 PUSH1 0x1F DUP5 ADD PUSH1 0x5 SHR DUP2 ADD PUSH1 0x20 DUP6 LT PUSH2 0xFFD JUMPI JUMPDEST SWAP1 DUP5 SWAP4 SWAP3 SWAP2 JUMPDEST PUSH1 0x1F DUP4 ADD PUSH1 0x5 SHR DUP3 ADD DUP2 LT PUSH2 0xFEF JUMPI POP POP PUSH2 0xBAA JUMP JUMPDEST PUSH0 DUP2 SSTORE DUP6 SWAP5 POP PUSH1 0x1 ADD PUSH2 0xFD9 JUMP JUMPDEST POP DUP1 PUSH2 0xFD3 JUMP JUMPDEST PUSH1 0x40 MLOAD PUSH3 0x461BCD PUSH1 0xE5 SHL DUP2 MSTORE PUSH1 0x20 PUSH1 0x4 DUP3 ADD MSTORE PUSH1 0x18 PUSH1 0x24 DUP3 ADD MSTORE PUSH32 0x4D6178207072696365206973202431302E303020555344430000000000000000 PUSH1 0x44 DUP3 ADD MSTORE PUSH1 0x64 SWAP1 REVERT JUMPDEST PUSH1 0x40 MLOAD PUSH3 0x461BCD PUSH1 0xE5 SHL DUP2 MSTORE PUSH1 0x20 PUSH1 0x4 DUP3 ADD MSTORE PUSH1 0x17 PUSH1 0x24 DUP3 ADD MSTORE PUSH32 0x4D696E2070726963652069732024302E31302055534443000000000000000000 PUSH1 0x44 DUP3 ADD MSTORE PUSH1 0x64 SWAP1 REVERT JUMPDEST PUSH1 0x40 MLOAD PUSH3 0x461BCD PUSH1 0xE5 SHL DUP2 MSTORE PUSH1 0x20 PUSH1 0x4 DUP3 ADD MSTORE PUSH1 0x11 PUSH1 0x24 DUP3 ADD MSTORE PUSH17 0x14DD1C985D1959DE481C995C5D5A5C9959 PUSH1 0x7A SHL PUSH1 0x44 DUP3 ADD MSTORE PUSH1 0x64 SWAP1 REVERT JUMPDEST PUSH1 0x40 MLOAD PUSH3 0x461BCD PUSH1 0xE5 SHL DUP2 MSTORE PUSH1 0x20 PUSH1 0x4 DUP3 ADD MSTORE PUSH1 0xD PUSH1 0x24 DUP3 ADD MSTORE PUSH13 0x13985B59481C995C5D5A5C9959 PUSH1 0x9A SHL PUSH1 0x44 DUP3 ADD MSTORE PUSH1 0x64 SWAP1 REVERT JUMPDEST CALLVALUE PUSH2 0x502 JUMPI PUSH1 0x20 CALLDATASIZE PUSH1 0x3 NOT ADD SLT PUSH2 0x502 JUMPI PUSH1 0x4 CALLDATALOAD PUSH0 SWAP1 DUP2 MSTORE PUSH1 0x20 DUP2 SWAP1 MSTORE PUSH1 0x40 SWAP1 KECCAK256 DUP1 SLOAD PUSH1 0x1 DUP3 ADD SLOAD PUSH1 0x2 DUP4 ADD SLOAD PUSH1 0x1 PUSH1 0x1 PUSH1 0xA0 SHL SUB SWAP2 DUP3 AND SWAP4 SWAP2 AND PUSH2 0x1143 PUSH1 0x3 DUP4 ADD PUSH2 0x14B9 JUMP JUMPDEST PUSH2 0x114F PUSH1 0x4 DUP5 ADD PUSH2 0x14B9 JUMP JUMPDEST PUSH1 0x5 DUP5 ADD SLOAD SWAP1 PUSH1 0x6 DUP6 ADD SLOAD PUSH1 0x7 DUP7 ADD SLOAD PUSH1 0x8 DUP8 ADD SLOAD SWAP1 PUSH1 0x9 DUP9 ADD SLOAD SWAP3 PUSH1 0xA DUP10 ADD SLOAD SWAP5 PUSH1 0xB DUP11 ADD PUSH2 0x117E SWAP1 PUSH2 0x14B9 JUMP JUMPDEST SWAP8 PUSH1 0xC DUP12 ADD SLOAD SWAP11 PUSH1 0xD ADD SLOAD SWAP10 PUSH1 0x40 MLOAD SWAP14 DUP15 DUP1 SWAP15 DUP2 MSTORE PUSH1 0x20 ADD MSTORE PUSH1 0x40 DUP14 ADD MSTORE DUP12 PUSH2 0x1E0 PUSH1 0x60 DUP2 SWAP3 ADD MSTORE DUP13 ADD PUSH2 0x11B1 SWAP2 PUSH2 0x155A JUMP JUMPDEST DUP12 DUP2 SUB PUSH1 0x80 DUP14 ADD MSTORE PUSH2 0x11C2 SWAP2 PUSH2 0x155A JUMP JUMPDEST SWAP6 PUSH2 0x11D3 PUSH1 0xA0 DUP13 ADD PUSH1 0xFF DUP4 AND PUSH2 0x1598 JUMP JUMPDEST PUSH1 0xC0 DUP12 ADD SWAP1 PUSH1 0x8 SHR PUSH1 0xFF AND SWAP1 PUSH2 0x11E8 SWAP2 PUSH2 0x15A5 JUMP JUMPDEST PUSH1 0xE0 DUP11 ADD MSTORE PUSH2 0x100 DUP10 ADD MSTORE PUSH2 0x120 DUP9 ADD MSTORE PUSH2 0x140 DUP8 ADD MSTORE PUSH2 0x160 DUP7 ADD MSTORE DUP5 DUP2 SUB PUSH2 0x180 DUP7 ADD MSTORE PUSH2 0x1217 SWAP2 PUSH2 0x155A JUMP JUMPDEST SWAP2 PUSH2 0x1A0 DUP5 ADD MSTORE PUSH2 0x1C0 DUP4 ADD MSTORE SUB SWAP1 RETURN JUMPDEST CALLVALUE PUSH2 0x502 JUMPI PUSH1 0x20 CALLDATASIZE PUSH1 0x3 NOT ADD SLT PUSH2 0x502 JUMPI PUSH2 0x1241 PUSH2 0x1733 JUMP JUMPDEST POP PUSH1 0x4 CALLDATALOAD PUSH0 MSTORE PUSH0 PUSH1 0x20 MSTORE PUSH2 0x133C PUSH1 0x40 PUSH0 KECCAK256 PUSH1 0xD PUSH1 0x40 MLOAD SWAP2 PUSH2 0x1261 DUP4 PUSH2 0x147C JUMP JUMPDEST DUP1 SLOAD DUP4 MSTORE PUSH1 0x1 DUP2 ADD SLOAD PUSH1 0x1 PUSH1 0x1 PUSH1 0xA0 SHL SUB SWAP1 DUP2 AND PUSH1 0x20 DUP6 ADD MSTORE PUSH1 0x2 DUP3 ADD SLOAD AND PUSH1 0x40 DUP5 ADD MSTORE PUSH2 0x1291 PUSH1 0x3 DUP3 ADD PUSH2 0x14B9 JUMP JUMPDEST PUSH1 0x60 DUP5 ADD MSTORE PUSH2 0x12A2 PUSH1 0x4 DUP3 ADD PUSH2 0x14B9 JUMP JUMPDEST PUSH1 0x80 DUP5 ADD MSTORE PUSH2 0x12CD PUSH1 0xFF PUSH1 0x5 DUP4 ADD SLOAD PUSH2 0x12C0 DUP3 DUP3 AND PUSH1 0xA0 DUP9 ADD PUSH2 0x171B JUMP JUMPDEST PUSH1 0x8 SHR AND PUSH1 0xC0 DUP6 ADD PUSH2 0x1727 JUMP JUMPDEST PUSH1 0x6 DUP2 ADD SLOAD PUSH1 0xE0 DUP5 ADD MSTORE PUSH1 0x7 DUP2 ADD SLOAD PUSH2 0x100 DUP5 ADD MSTORE PUSH1 0x8 DUP2 ADD SLOAD PUSH2 0x120 DUP5 ADD MSTORE PUSH1 0x9 DUP2 ADD SLOAD PUSH2 0x140 DUP5 ADD MSTORE PUSH1 0xA DUP2 ADD SLOAD PUSH2 0x160 DUP5 ADD MSTORE PUSH2 0x130F PUSH1 0xB DUP3 ADD PUSH2 0x14B9 JUMP JUMPDEST PUSH2 0x180 DUP5 ADD MSTORE PUSH1 0xC DUP2 ADD SLOAD PUSH2 0x1A0 DUP5 ADD MSTORE ADD SLOAD PUSH2 0x1C0 DUP3 ADD MSTORE PUSH1 0x40 MLOAD SWAP2 DUP3 SWAP2 PUSH1 0x20 DUP4 MSTORE PUSH1 0x20 DUP4 ADD SWAP1 PUSH2 0x15B2 JUMP JUMPDEST SUB SWAP1 RETURN JUMPDEST CALLVALUE PUSH2 0x502 JUMPI PUSH1 0x20 CALLDATASIZE PUSH1 0x3 NOT ADD SLT PUSH2 0x502 JUMPI PUSH1 0x20 PUSH2 0x135E PUSH1 0x4 CALLDATALOAD PUSH2 0x17A3 JUMP JUMPDEST PUSH1 0x40 MLOAD SWAP1 DUP2 MSTORE RETURN JUMPDEST CALLVALUE PUSH2 0x502 JUMPI PUSH1 0x40 CALLDATASIZE PUSH1 0x3 NOT ADD SLT PUSH2 0x502 JUMPI PUSH1 0x24 CALLDATALOAD PUSH1 0x4 CALLDATALOAD PUSH0 MSTORE PUSH1 0x3 PUSH1 0x20 MSTORE PUSH1 0x40 PUSH0 KECCAK256 SWAP1 DUP2 SLOAD DUP2 LT ISZERO PUSH2 0x502 JUMPI PUSH2 0x139B SWAP2 PUSH2 0x1417 JUMP JUMPDEST POP DUP1 SLOAD PUSH1 0x1 PUSH1 0x1 PUSH1 0xA0 SHL SUB AND PUSH2 0x13B3 PUSH1 0x1 DUP4 ADD PUSH2 0x14B9 JUMP JUMPDEST SWAP2 PUSH1 0x2 DUP2 ADD SLOAD PUSH2 0x1406 PUSH2 0x13C8 PUSH1 0x3 DUP5 ADD PUSH2 0x14B9 JUMP JUMPDEST SWAP2 PUSH1 0x5 PUSH1 0xFF PUSH1 0x4 DUP7 ADD SLOAD AND SWAP5 ADD SLOAD SWAP3 PUSH2 0x13F3 PUSH1 0x40 MLOAD SWAP8 DUP9 SWAP8 DUP9 MSTORE PUSH1 0xC0 PUSH1 0x20 DUP10 ADD MSTORE PUSH1 0xC0 DUP9 ADD SWAP1 PUSH2 0x155A JUMP JUMPDEST SWAP2 PUSH1 0x40 DUP8 ADD MSTORE DUP6 DUP3 SUB PUSH1 0x60 DUP8 ADD MSTORE PUSH2 0x155A JUMP JUMPDEST SWAP2 ISZERO ISZERO PUSH1 0x80 DUP5 ADD MSTORE PUSH1 0xA0 DUP4 ADD MSTORE SUB SWAP1 RETURN JUMPDEST DUP1 SLOAD DUP3 LT ISZERO PUSH2 0x1430 JUMPI PUSH0 MSTORE PUSH1 0x6 PUSH1 0x20 PUSH0 KECCAK256 SWAP2 MUL ADD SWAP1 PUSH0 SWAP1 JUMP JUMPDEST PUSH4 0x4E487B71 PUSH1 0xE0 SHL PUSH0 MSTORE PUSH1 0x32 PUSH1 0x4 MSTORE PUSH1 0x24 PUSH0 REVERT JUMPDEST SWAP1 PUSH1 0x1 DUP3 DUP2 SHR SWAP3 AND DUP1 ISZERO PUSH2 0x1472 JUMPI JUMPDEST PUSH1 0x20 DUP4 LT EQ PUSH2 0x145E JUMPI JUMP JUMPDEST PUSH4 0x4E487B71 PUSH1 0xE0 SHL PUSH0 MSTORE PUSH1 0x22 PUSH1 0x4 MSTORE PUSH1 0x24 PUSH0 REVERT JUMPDEST SWAP2 PUSH1 0x7F AND SWAP2 PUSH2 0x1453 JUMP JUMPDEST PUSH2 0x1E0 DUP2 ADD SWAP1 DUP2 LT PUSH1 0x1 PUSH1 0x1 PUSH1 0x40 SHL SUB DUP3 GT OR PUSH2 0x3FE JUMPI PUSH1 0x40 MSTORE JUMP JUMPDEST SWAP1 PUSH1 0x1F DUP1 NOT SWAP2 ADD AND DUP2 ADD SWAP1 DUP2 LT PUSH1 0x1 PUSH1 0x1 PUSH1 0x40 SHL SUB DUP3 GT OR PUSH2 0x3FE JUMPI PUSH1 0x40 MSTORE JUMP JUMPDEST SWAP1 PUSH1 0x40 MLOAD SWAP2 DUP3 PUSH0 DUP3 SLOAD SWAP3 PUSH2 0x14CC DUP5 PUSH2 0x1444 JUMP JUMPDEST SWAP1 DUP2 DUP5 MSTORE PUSH1 0x1 SWAP5 DUP6 DUP2 AND SWAP1 DUP2 PUSH0 EQ PUSH2 0x1537 JUMPI POP PUSH1 0x1 EQ PUSH2 0x14F7 JUMPI JUMPDEST POP POP PUSH2 0x14F5 SWAP3 POP SUB DUP4 PUSH2 0x1498 JUMP JUMPDEST JUMP JUMPDEST SWAP1 SWAP4 SWAP2 POP PUSH0 MSTORE PUSH1 0x20 SWAP1 DUP2 PUSH0 KECCAK256 SWAP4 PUSH0 SWAP2 JUMPDEST DUP2 DUP4 LT PUSH2 0x151F JUMPI POP POP PUSH2 0x14F5 SWAP4 POP DUP3 ADD ADD PUSH0 DUP1 PUSH2 0x14E7 JUMP JUMPDEST DUP6 SLOAD DUP9 DUP5 ADD DUP6 ADD MSTORE SWAP5 DUP6 ADD SWAP5 DUP8 SWAP5 POP SWAP2 DUP4 ADD SWAP2 PUSH2 0x1507 JUMP JUMPDEST SWAP2 POP POP PUSH2 0x14F5 SWAP5 POP PUSH1 0x20 SWAP3 POP PUSH1 0xFF NOT AND DUP3 DUP5 ADD MSTORE ISZERO ISZERO PUSH1 0x5 SHL DUP3 ADD ADD PUSH0 DUP1 PUSH2 0x14E7 JUMP JUMPDEST SWAP2 SWAP1 DUP3 MLOAD SWAP3 DUP4 DUP3 MSTORE PUSH0 JUMPDEST DUP5 DUP2 LT PUSH2 0x1584 JUMPI POP POP DUP3 PUSH0 PUSH1 0x20 DUP1 SWAP5 SWAP6 DUP5 ADD ADD MSTORE PUSH1 0x1F DUP1 NOT SWAP2 ADD AND ADD ADD SWAP1 JUMP JUMPDEST PUSH1 0x20 DUP2 DUP4 ADD DUP2 ADD MLOAD DUP5 DUP4 ADD DUP3 ADD MSTORE ADD PUSH2 0x1564 JUMP JUMPDEST SWAP1 PUSH1 0x6 DUP3 LT ISZERO PUSH2 0x506 JUMPI MSTORE JUMP JUMPDEST SWAP1 PUSH1 0x3 DUP3 LT ISZERO PUSH2 0x506 JUMPI MSTORE JUMP JUMPDEST SWAP1 DUP2 MLOAD DUP2 MSTORE PUSH1 0x1 DUP1 PUSH1 0xA0 SHL SUB DUP1 PUSH1 0x20 DUP5 ADD MLOAD AND PUSH1 0x20 DUP4 ADD MSTORE PUSH1 0x40 DUP4 ADD MLOAD AND PUSH1 0x40 DUP3 ADD MSTORE PUSH2 0x1674 PUSH2 0x1606 PUSH2 0x15F4 PUSH1 0x60 DUP6 ADD MLOAD PUSH2 0x1E0 DUP1 PUSH1 0x60 DUP8 ADD MSTORE DUP6 ADD SWAP1 PUSH2 0x155A JUMP JUMPDEST PUSH1 0x80 DUP6 ADD MLOAD DUP5 DUP3 SUB PUSH1 0x80 DUP7 ADD MSTORE PUSH2 0x155A JUMP JUMPDEST PUSH2 0x1618 PUSH1 0xA0 DUP6 ADD MLOAD PUSH1 0xA0 DUP6 ADD SWAP1 PUSH2 0x1598 JUMP JUMPDEST PUSH2 0x162A PUSH1 0xC0 DUP6 ADD MLOAD PUSH1 0xC0 DUP6 ADD SWAP1 PUSH2 0x15A5 JUMP JUMPDEST PUSH1 0xE0 DUP5 ADD MLOAD PUSH1 0xE0 DUP5 ADD MSTORE PUSH2 0x100 DUP1 DUP6 ADD MLOAD SWAP1 DUP5 ADD MSTORE PUSH2 0x120 DUP1 DUP6 ADD MLOAD SWAP1 DUP5 ADD MSTORE PUSH2 0x140 DUP1 DUP6 ADD MLOAD SWAP1 DUP5 ADD MSTORE PUSH2 0x160 DUP1 DUP6 ADD MLOAD SWAP1 DUP5 ADD MSTORE PUSH2 0x180 DUP1 DUP6 ADD MLOAD SWAP1 DUP5 DUP4 SUB SWAP1 DUP6 ADD MSTORE PUSH2 0x155A JUMP JUMPDEST SWAP2 PUSH2 0x1A0 DUP1 DUP3 ADD MLOAD SWAP1 DUP4 ADD MSTORE PUSH2 0x1C0 DUP1 SWAP2 ADD MLOAD SWAP2 ADD MSTORE SWAP1 JUMP JUMPDEST DUP2 PUSH1 0x1F DUP3 ADD SLT ISZERO PUSH2 0x502 JUMPI DUP1 CALLDATALOAD SWAP1 PUSH1 0x1 PUSH1 0x1 PUSH1 0x40 SHL SUB DUP3 GT PUSH2 0x3FE JUMPI PUSH1 0x40 MLOAD SWAP3 PUSH2 0x16C1 PUSH1 0x1F DUP5 ADD PUSH1 0x1F NOT AND PUSH1 0x20 ADD DUP6 PUSH2 0x1498 JUMP JUMPDEST DUP3 DUP5 MSTORE PUSH1 0x20 DUP4 DUP4 ADD ADD GT PUSH2 0x502 JUMPI DUP2 PUSH0 SWAP3 PUSH1 0x20 DUP1 SWAP4 ADD DUP4 DUP7 ADD CALLDATACOPY DUP4 ADD ADD MSTORE SWAP1 JUMP JUMPDEST PUSH1 0x4 CALLDATALOAD SWAP1 PUSH1 0x1 PUSH1 0x1 PUSH1 0xA0 SHL SUB DUP3 AND DUP3 SUB PUSH2 0x502 JUMPI JUMP JUMPDEST DUP1 SLOAD DUP3 LT ISZERO PUSH2 0x1430 JUMPI PUSH0 MSTORE PUSH1 0x20 PUSH0 KECCAK256 ADD SWAP1 PUSH0 SWAP1 JUMP JUMPDEST PUSH0 NOT DUP2 EQ PUSH2 0x4EE JUMPI PUSH1 0x1 ADD SWAP1 JUMP JUMPDEST PUSH1 0x6 DUP3 LT ISZERO PUSH2 0x506 JUMPI MSTORE JUMP JUMPDEST PUSH1 0x3 DUP3 LT ISZERO PUSH2 0x506 JUMPI MSTORE JUMP JUMPDEST PUSH1 0x40 MLOAD SWAP1 PUSH2 0x1740 DUP3 PUSH2 0x147C JUMP JUMPDEST DUP2 PUSH2 0x1C0 PUSH0 SWAP2 DUP3 DUP2 MSTORE DUP3 PUSH1 0x20 DUP3 ADD MSTORE DUP3 PUSH1 0x40 DUP3 ADD MSTORE PUSH1 0x60 DUP1 DUP3 ADD MSTORE PUSH1 0x60 PUSH1 0x80 DUP3 ADD MSTORE DUP3 PUSH1 0xA0 DUP3 ADD MSTORE DUP3 PUSH1 0xC0 DUP3 ADD MSTORE DUP3 PUSH1 0xE0 DUP3 ADD MSTORE DUP3 PUSH2 0x100 DUP3 ADD MSTORE DUP3 PUSH2 0x120 DUP3 ADD MSTORE DUP3 PUSH2 0x140 DUP3 ADD MSTORE DUP3 PUSH2 0x160 DUP3 ADD MSTORE PUSH1 0x60 PUSH2 0x180 DUP3 ADD MSTORE DUP3 PUSH2 0x1A0 DUP3 ADD MSTORE ADD MSTORE JUMP JUMPDEST PUSH0 SWAP1 DUP2 MSTORE DUP1 PUSH1 0x20 MSTORE PUSH1 0x40 DUP2 KECCAK256 PUSH1 0x40 MLOAD PUSH2 0x17BB DUP2 PUSH2 0x147C JUMP JUMPDEST DUP2 SLOAD DUP2 MSTORE PUSH1 0x1 DUP3 ADD SLOAD PUSH1 0x1 PUSH1 0x1 PUSH1 0xA0 SHL SUB SWAP1 DUP2 AND PUSH1 0x20 DUP4 ADD MSTORE PUSH1 0x2 DUP4 ADD SLOAD AND PUSH1 0x40 DUP3 ADD MSTORE PUSH2 0x17EB PUSH1 0x3 DUP4 ADD PUSH2 0x14B9 JUMP JUMPDEST PUSH1 0x60 DUP3 ADD MSTORE PUSH2 0x17FC PUSH1 0x4 DUP4 ADD PUSH2 0x14B9 JUMP JUMPDEST PUSH1 0x80 DUP3 ADD MSTORE PUSH2 0x1827 PUSH1 0xFF PUSH1 0x5 DUP5 ADD SLOAD PUSH2 0x181A DUP3 DUP3 AND PUSH1 0xA0 DUP7 ADD PUSH2 0x171B JUMP JUMPDEST PUSH1 0x8 SHR AND PUSH1 0xC0 DUP4 ADD PUSH2 0x1727 JUMP JUMPDEST PUSH1 0x6 DUP3 ADD SLOAD PUSH1 0xE0 DUP3 ADD MSTORE PUSH1 0x7 DUP3 ADD SLOAD PUSH2 0x100 DUP3 ADD MSTORE PUSH1 0x8 DUP3 ADD SLOAD PUSH2 0x120 DUP3 ADD MSTORE PUSH1 0x9 DUP3 ADD SLOAD SWAP1 PUSH2 0x140 DUP2 ADD SWAP2 DUP3 MSTORE PUSH2 0x1C0 PUSH1 0xD PUSH1 0xA DUP6 ADD SLOAD SWAP5 PUSH2 0x160 DUP5 ADD SWAP6 DUP7 MSTORE PUSH2 0x1874 PUSH1 0xB DUP3 ADD PUSH2 0x14B9 JUMP JUMPDEST PUSH2 0x180 DUP6 ADD MSTORE PUSH1 0xC DUP2 ADD SLOAD PUSH2 0x1A0 DUP6 ADD MSTORE ADD SLOAD SWAP2 ADD MSTORE DUP2 MLOAD ISZERO PUSH2 0x18DB JUMPI MLOAD SWAP1 PUSH1 0x64 DUP3 MUL SWAP2 DUP1 DUP4 DIV PUSH1 0x64 EQ SWAP1 ISZERO OR ISZERO PUSH2 0x18C7 JUMPI MLOAD SWAP2 DUP3 ISZERO PUSH2 0x18B3 JUMPI POP DIV SWAP1 JUMP JUMPDEST PUSH4 0x4E487B71 PUSH1 0xE0 SHL DUP2 MSTORE PUSH1 0x12 PUSH1 0x4 MSTORE PUSH1 0x24 SWAP1 REVERT JUMPDEST PUSH4 0x4E487B71 PUSH1 0xE0 SHL DUP4 MSTORE PUSH1 0x11 PUSH1 0x4 MSTORE PUSH1 0x24 DUP4 REVERT JUMPDEST POP POP SWAP1 JUMP JUMPDEST PUSH1 0x1 PUSH1 0x1 PUSH1 0x40 SHL SUB DUP2 GT PUSH2 0x3FE JUMPI PUSH1 0x5 SHL PUSH1 0x20 ADD SWAP1 JUMP JUMPDEST DUP1 MLOAD DUP3 LT ISZERO PUSH2 0x1430 JUMPI PUSH1 0x20 SWAP2 PUSH1 0x5 SHL ADD ADD SWAP1 JUMP INVALID LOG2 PUSH5 0x6970667358 0x22 SLT KECCAK256 PUSH7 0x71C646CB7FF7F6 ADDMOD 0xEA 0xE2 LOG0 ADDRESS 0xB4 CODESIZE REVERT SUB 0xE0 SWAP15 PUSH14 0x2D69CFF556999B6F5810BA226473 PUSH16 0x6C634300081400330000000000000000 "},"methodIdentifiers":{"agentCount()":"b7dc1284","agents(uint256)":"513856c8","getAgent(uint256)":"2de5aaf7","getAgentAccuracy(uint256)":"0cdff725","getOwnerAgents(address)":"7585840a","getTopAgents(uint256)":"b1e29ea4","hireHistory(uint256,uint256)":"0a206008","ownerAgents(address,uint256)":"62febe4f","pauseAgent(uint256)":"6ac18987","recordAccuracy(uint256,uint256,bool)":"852a0e15","recordHire(uint256,address,string,uint256,string)":"d36f2c62","registerAgent(string,string,string,uint8,address,uint256)":"5afe82d0"}}}}}