{"project/contracts/TradeJournal.sol":{"TradeJournal":{"abi":[{"anonymous":false,"inputs":[{"indexed":true,"internalType":"uint256","name":"tradeId","type":"uint256"},{"indexed":true,"internalType":"address","name":"trader","type":"address"},{"indexed":false,"internalType":"uint256","name":"exitPrice","type":"uint256"},{"indexed":false,"internalType":"int256","name":"pnl","type":"int256"}],"name":"TradeClosed","type":"event"},{"anonymous":false,"inputs":[{"indexed":true,"internalType":"uint256","name":"tradeId","type":"uint256"},{"indexed":true,"internalType":"address","name":"trader","type":"address"},{"indexed":false,"internalType":"string","name":"pair","type":"string"},{"indexed":false,"internalType":"enum TradeJournal.TradeSide","name":"side","type":"uint8"},{"indexed":false,"internalType":"uint256","name":"entryPrice","type":"uint256"},{"indexed":false,"internalType":"uint256","name":"positionSize","type":"uint256"}],"name":"TradeOpened","type":"event"},{"inputs":[{"internalType":"uint256","name":"tradeId","type":"uint256"},{"internalType":"uint256","name":"exitPrice","type":"uint256"}],"name":"closeTrade","outputs":[],"stateMutability":"nonpayable","type":"function"},{"inputs":[{"internalType":"uint256","name":"limit","type":"uint256"}],"name":"getRecentTrades","outputs":[{"components":[{"internalType":"uint256","name":"id","type":"uint256"},{"internalType":"address","name":"trader","type":"address"},{"internalType":"string","name":"pair","type":"string"},{"internalType":"enum TradeJournal.TradeSide","name":"side","type":"uint8"},{"internalType":"uint256","name":"entryPrice","type":"uint256"},{"internalType":"uint256","name":"exitPrice","type":"uint256"},{"internalType":"uint256","name":"positionSize","type":"uint256"},{"internalType":"uint8","name":"signalConfidence","type":"uint8"},{"internalType":"int256","name":"pnl","type":"int256"},{"internalType":"enum TradeJournal.TradeStatus","name":"status","type":"uint8"},{"internalType":"uint256","name":"openedAt","type":"uint256"},{"internalType":"uint256","name":"closedAt","type":"uint256"},{"internalType":"string","name":"notes","type":"string"}],"internalType":"struct TradeJournal.Trade[]","name":"","type":"tuple[]"}],"stateMutability":"view","type":"function"},{"inputs":[{"internalType":"uint256","name":"id","type":"uint256"}],"name":"getTrade","outputs":[{"components":[{"internalType":"uint256","name":"id","type":"uint256"},{"internalType":"address","name":"trader","type":"address"},{"internalType":"string","name":"pair","type":"string"},{"internalType":"enum TradeJournal.TradeSide","name":"side","type":"uint8"},{"internalType":"uint256","name":"entryPrice","type":"uint256"},{"internalType":"uint256","name":"exitPrice","type":"uint256"},{"internalType":"uint256","name":"positionSize","type":"uint256"},{"internalType":"uint8","name":"signalConfidence","type":"uint8"},{"internalType":"int256","name":"pnl","type":"int256"},{"internalType":"enum TradeJournal.TradeStatus","name":"status","type":"uint8"},{"internalType":"uint256","name":"openedAt","type":"uint256"},{"internalType":"uint256","name":"closedAt","type":"uint256"},{"internalType":"string","name":"notes","type":"string"}],"internalType":"struct TradeJournal.Trade","name":"","type":"tuple"}],"stateMutability":"view","type":"function"},{"inputs":[{"internalType":"address","name":"user","type":"address"}],"name":"getUserStats","outputs":[{"internalType":"uint256","name":"total","type":"uint256"},{"internalType":"uint256","name":"wins","type":"uint256"},{"internalType":"int256","name":"pnl","type":"int256"},{"internalType":"uint256","name":"winRate","type":"uint256"}],"stateMutability":"view","type":"function"},{"inputs":[{"internalType":"address","name":"user","type":"address"}],"name":"getUserTrades","outputs":[{"internalType":"uint256[]","name":"","type":"uint256[]"}],"stateMutability":"view","type":"function"},{"inputs":[],"name":"globalTradeCount","outputs":[{"internalType":"uint256","name":"","type":"uint256"}],"stateMutability":"view","type":"function"},{"inputs":[{"internalType":"string","name":"pair","type":"string"},{"internalType":"enum TradeJournal.TradeSide","name":"side","type":"uint8"},{"internalType":"uint256","name":"entryPrice","type":"uint256"},{"internalType":"uint256","name":"positionSize","type":"uint256"},{"internalType":"uint8","name":"signalConfidence","type":"uint8"},{"internalType":"string","name":"notes","type":"string"}],"name":"openTrade","outputs":[{"internalType":"uint256","name":"","type":"uint256"}],"stateMutability":"nonpayable","type":"function"},{"inputs":[{"internalType":"address","name":"","type":"address"}],"name":"totalPnL","outputs":[{"internalType":"int256","name":"","type":"int256"}],"stateMutability":"view","type":"function"},{"inputs":[{"internalType":"address","name":"","type":"address"}],"name":"totalTrades","outputs":[{"internalType":"uint256","name":"","type":"uint256"}],"stateMutability":"view","type":"function"},{"inputs":[{"internalType":"uint256","name":"","type":"uint256"}],"name":"trades","outputs":[{"internalType":"uint256","name":"id","type":"uint256"},{"internalType":"address","name":"trader","type":"address"},{"internalType":"string","name":"pair","type":"string"},{"internalType":"enum TradeJournal.TradeSide","name":"side","type":"uint8"},{"internalType":"uint256","name":"entryPrice","type":"uint256"},{"internalType":"uint256","name":"exitPrice","type":"uint256"},{"internalType":"uint256","name":"positionSize","type":"uint256"},{"internalType":"uint8","name":"signalConfidence","type":"uint8"},{"internalType":"int256","name":"pnl","type":"int256"},{"internalType":"enum TradeJournal.TradeStatus","name":"status","type":"uint8"},{"internalType":"uint256","name":"openedAt","type":"uint256"},{"internalType":"uint256","name":"closedAt","type":"uint256"},{"internalType":"string","name":"notes","type":"string"}],"stateMutability":"view","type":"function"},{"inputs":[{"internalType":"address","name":"","type":"address"},{"internalType":"uint256","name":"","type":"uint256"}],"name":"userTrades","outputs":[{"internalType":"uint256","name":"","type":"uint256"}],"stateMutability":"view","type":"function"},{"inputs":[{"internalType":"address","name":"","type":"address"}],"name":"winningTrades","outputs":[{"internalType":"uint256","name":"","type":"uint256"}],"stateMutability":"view","type":"function"}],"evm":{"bytecode":{"linkReferences":{},"object":"60808060405234610016576111bf908161001b8239f35b5f80fdfe6080806040526004361015610012575f80fd5b5f3560e01c9081630a05760314610de3575080631e6c598e14610ce65780632db25e0514610c0557806333ea4b7814610be85780634e43603a14610b455780636152904314610b0d57806369f504a81461062c57806373b1caa3146103cf578063927c774214610327578063b1b1ffab146102d0578063c63877eb146100dc5763d4290e99146100a0575f80fd5b346100d85760203660031901126100d8576001600160a01b036100c1610e17565b165f526003602052602060405f2054604051908152f35b5f80fd5b346100d8576020806003193601126100d85760058054909190600435808210156102ca5750805b61010c8261115d565b9161011a6040519384610e82565b808352601f196101298261115d565b01845f5b8281106102b4575091925f19808201935091508083115f5b8581106101a757604080518981528851818b018190525f92818d1b83018101918b8d01918d9085015b82871061017b5785850386f35b909192938280610197600193603f198a82030186528851610f9d565b960192019601959291909261016e565b816102a0578381840301908582116102a05761029b915f525f89528861027a600c8c61025e60405f2091604051956101de87610e65565b8354875260018401546001600160a01b03169087015261020060028401610ea4565b604087015260ff9061021b82600386015416606089016110e6565b6004840154608088015283015460a0870152600683015460c08701528060078401541660e0870152600883015461010087015260098301541661012086016110f2565b600a810154610140850152600b81015461016085015201610ea4565b61018082015261028a828a611175565b526102958189611175565b506110d8565b610145565b634e487b7160e01b5f52601160045260245ffd5b6102bc6110fe565b82828801015201859061012d565b90610103565b346100d85760403660031901126100d8576102e9610e17565b6001600160a01b03165f908152600160205260409020805460243591908210156100d857602091610319916110af565b90546040519160031b1c8152f35b346100d8576020806003193601126100d8576001600160a01b03610349610e17565b165f5260019081815260405f2091604051918281855491828152019081955f52825f20905f5b8181106103bc5750505083610385910384610e82565b6040519281840190828552518091526040840194915f5b8281106103a95785870386f35b835187529581019592810192840161039c565b825484529284019291850191850161036f565b346100d85760403660031901126100d857600435602490813591815f526020905f825260405f2060018060a01b0360018201541633036105f75760098101805460ff811660038110156105e4576105b5576005830187905542600b84015560ff1916600117905560048101548086035f821280158883131688831290911617610541578060ff60038501541660028110156105a25760011461058d575b50600683015481810291600160ff1b91905f82128382141661057a5781840514901517156105675782156105545781145f19831416610541579060089105910191818355335f526004845260405f209081545f848201948512911290801582169115161761052e5750555f815413610512575b54906040519384528301527fc3c5fd6b6aa1a8af6a7e7b8af72bb2d6ebe133c0222262fa8a3e73a68a83c42560403393a3005b335f526003825260405f2061052781546110d8565b90556104df565b634e487b7160e01b5f9081526011600452fd5b83634e487b7160e01b5f5260116004525ffd5b84634e487b7160e01b5f5260126004525ffd5b84634e487b7160e01b5f5260116004525ffd5b86634e487b7160e01b5f5260116004525ffd5b9050600160ff1b8114610541575f038761046c565b85634e487b7160e01b5f5260216004525ffd5b60405162461bcd60e51b815260048101869052600881860152672737ba1037b832b760c11b6044820152606490fd5b84634e487b7160e01b5f5260216004525ffd5b60405162461bcd60e51b815260048101849052600e818401526d4e6f7420796f757220747261646560901b6044820152606490fd5b346100d85760c03660031901126100d85760043567ffffffffffffffff81116100d85761065d903690600401611059565b600260243510156100d85760843560ff811681036100d85760a43567ffffffffffffffff81116100d857610695903690600401611059565b90600554916106a3836110d8565b60055560ff604051926106b584610e65565b8484523360208501528560408501526106d3602435606086016110e6565b60443560808501525f60a085015260643560c08501521660e08301525f6101008301525f610120830152426101408301525f610160830152610180820152815f525f60205260405f2090805182556001820160018060a01b036020830151166bffffffffffffffffffffffff60a01b825416179055604081015180519067ffffffffffffffff821161096357819061076e6002860154610e2d565b601f8111610abd575b50602090601f8311600114610a4f575f92610a44575b50508160011b915f199060031b1c19161760028301555b6060810151906002821015610a30576003830160ff199260ff8483541691161790556080810151600484015560a0810151600584015560c081015160068401556007830160ff60e083015116838254161790556101008101516008840155600983016101208201516003811015610a305760ff610180948354169116179055610140810151600a840155610160810151600b840155015180519067ffffffffffffffff82116109635761085a600c840154610e2d565b601f81116109ec575b50602090601f831160011461098257600c92915f9183610977575b50508160011b915f199060031b1c1916179101555b335f52600160205260405f20918254926801000000000000000084101561096357836108c69160016020960181556110af565b81549060031b9084821b915f19901b1916179055335f526002835260405f206108ef81546110d8565b90556108fc6005546110d8565b600555817f1334919b911d21f44c77240785b7a8f1365134db2ced843d6372f362524b3e3c61093660405193608085526080850190610f45565b92610945868201602435610f83565b604435604082015260643560608201528033940390a3604051908152f35b634e487b7160e01b5f52604160045260245ffd5b01519050868061087e565b90601f19831691600c85015f5260205f20925f5b8181106109d45750916001939185600c9694106109bc575b505050811b01910155610893565b01515f1960f88460031b161c191690558680806109ae565b92936020600181928786015181550195019301610996565b600c84015f5260205f20601f840160051c810160208510610a29575b601f830160051c82018110610a1e575050610863565b5f8155600101610a08565b5080610a08565b634e487b7160e01b5f52602160045260245ffd5b01519050868061078d565b9250600285015f5260205f20905f935b601f1984168510610aa2576001945083601f19811610610a8a575b505050811b0160028301556107a4565b01515f1960f88460031b161c19169055868080610a7a565b81810151835560209485019460019093019290910190610a5f565b909150600285015f5260205f20601f840160051c810160208510610b06575b90849392915b601f830160051c82018110610af8575050610777565b5f8155859450600101610ae2565b5080610adc565b346100d85760203660031901126100d8576001600160a01b03610b2e610e17565b165f526002602052602060405f2054604051908152f35b346100d85760203660031901126100d8576001600160a01b03610b66610e17565b165f52600260205260405f2054600360205260405f205490600460205260405f20549181159283155f14610bdd576064820293828504606414831517156102a057610bc9578260809404915b604051938452602084015260408301526060820152f35b634e487b7160e01b5f52601260045260245ffd5b608093505f91610bb2565b346100d8575f3660031901126100d8576020600554604051908152f35b346100d85760203660031901126100d857610c1e6110fe565b506004355f525f602052610ce260405f20610cc8600c60405192610c4184610e65565b8054845260018101546001600160a01b03166020850152610c6460028201610ea4565b6040850152610c7d60ff600383015416606086016110e6565b60048101546080850152600581015460a0850152600681015460c085015260ff60078201541660e0850152600881015461010085015261025e60ff60098301541661012086016110f2565b610180820152604051918291602083526020830190610f9d565b0390f35b346100d85760203660031901126100d8576004355f908152602081905260409020805460018201546001600160a01b031691610d2460028201610ea4565b90600381015460ff1690600481015460058201546006830154600784015460ff16600885015491600986015460ff1693600a87015495600b88015497600c01610d6c90610ea4565b996040519c8d9c8d5260208d01528b6101a06040819201528c01610d8f91610f45565b9860608c01610d9d91610f83565b60808b015260a08a015260c089015260e08801526101008701526101208601610dc591610f90565b610140850152610160840152828103610180840152610ce291610f45565b346100d85760203660031901126100d8576020906001600160a01b03610e07610e17565b165f526004825260405f20548152f35b600435906001600160a01b03821682036100d857565b90600182811c92168015610e5b575b6020831014610e4757565b634e487b7160e01b5f52602260045260245ffd5b91607f1691610e3c565b6101a0810190811067ffffffffffffffff82111761096357604052565b90601f8019910116810190811067ffffffffffffffff82111761096357604052565b9060405191825f825492610eb784610e2d565b9081845260019485811690815f14610f225750600114610ee2575b5050610ee092500383610e82565b565b909391505f52602090815f20935f915b818310610f0a575050610ee093508201015f80610ed2565b85548884018501529485019487945091830191610ef2565b915050610ee094506020925060ff191682840152151560051b8201015f80610ed2565b91908251928382525f5b848110610f6f575050825f602080949584010152601f8019910116010190565b602081830181015184830182015201610f4f565b906002821015610a305752565b906003821015610a305752565b90611056918051825260018060a01b036020820151166020830152610fd160408201516101a0806040860152840190610f45565b91610fe460608301516060830190610f83565b6080820151608082015260a082015160a082015260c082015160c082015260ff60e08301511660e0820152610100808301519082015261102d6101208084015190830190610f90565b610140808301519082015261016080830151908201526101808092015191818403910152610f45565b90565b81601f820112156100d85780359067ffffffffffffffff8211610963576040519261108e601f8401601f191660200185610e82565b828452602083830101116100d857815f926020809301838601378301015290565b80548210156110c4575f5260205f2001905f90565b634e487b7160e01b5f52603260045260245ffd5b5f1981146102a05760010190565b6002821015610a305752565b6003821015610a305752565b6040519061110b82610e65565b6060610180835f80825280602083015283604083015280848301528060808301528060a08301528060c08301528060e08301528061010083015280610120830152806101408301526101608201520152565b67ffffffffffffffff81116109635760051b60200190565b80518210156110c45760209160051b01019056fea2646970667358221220c0986bbf03f2a703d13f061d13567ed85dcf2290761b2d1eb681be7dec1feffa64736f6c63430008140033","opcodes":"PUSH1 0x80 DUP1 PUSH1 0x40 MSTORE CALLVALUE PUSH2 0x16 JUMPI PUSH2 0x11BF SWAP1 DUP2 PUSH2 0x1B DUP3 CODECOPY RETURN JUMPDEST PUSH0 DUP1 REVERT INVALID PUSH1 0x80 DUP1 PUSH1 0x40 MSTORE PUSH1 0x4 CALLDATASIZE LT ISZERO PUSH2 0x12 JUMPI PUSH0 DUP1 REVERT JUMPDEST PUSH0 CALLDATALOAD PUSH1 0xE0 SHR SWAP1 DUP2 PUSH4 0xA057603 EQ PUSH2 0xDE3 JUMPI POP DUP1 PUSH4 0x1E6C598E EQ PUSH2 0xCE6 JUMPI DUP1 PUSH4 0x2DB25E05 EQ PUSH2 0xC05 JUMPI DUP1 PUSH4 0x33EA4B78 EQ PUSH2 0xBE8 JUMPI DUP1 PUSH4 0x4E43603A EQ PUSH2 0xB45 JUMPI DUP1 PUSH4 0x61529043 EQ PUSH2 0xB0D JUMPI DUP1 PUSH4 0x69F504A8 EQ PUSH2 0x62C JUMPI DUP1 PUSH4 0x73B1CAA3 EQ PUSH2 0x3CF JUMPI DUP1 PUSH4 0x927C7742 EQ PUSH2 0x327 JUMPI DUP1 PUSH4 0xB1B1FFAB EQ PUSH2 0x2D0 JUMPI DUP1 PUSH4 0xC63877EB EQ PUSH2 0xDC JUMPI PUSH4 0xD4290E99 EQ PUSH2 0xA0 JUMPI PUSH0 DUP1 REVERT JUMPDEST CALLVALUE PUSH2 0xD8 JUMPI PUSH1 0x20 CALLDATASIZE PUSH1 0x3 NOT ADD SLT PUSH2 0xD8 JUMPI PUSH1 0x1 PUSH1 0x1 PUSH1 0xA0 SHL SUB PUSH2 0xC1 PUSH2 0xE17 JUMP JUMPDEST AND PUSH0 MSTORE PUSH1 0x3 PUSH1 0x20 MSTORE PUSH1 0x20 PUSH1 0x40 PUSH0 KECCAK256 SLOAD PUSH1 0x40 MLOAD SWAP1 DUP2 MSTORE RETURN JUMPDEST PUSH0 DUP1 REVERT JUMPDEST CALLVALUE PUSH2 0xD8 JUMPI PUSH1 0x20 DUP1 PUSH1 0x3 NOT CALLDATASIZE ADD SLT PUSH2 0xD8 JUMPI PUSH1 0x5 DUP1 SLOAD SWAP1 SWAP2 SWAP1 PUSH1 0x4 CALLDATALOAD DUP1 DUP3 LT ISZERO PUSH2 0x2CA JUMPI POP DUP1 JUMPDEST PUSH2 0x10C DUP3 PUSH2 0x115D JUMP JUMPDEST SWAP2 PUSH2 0x11A PUSH1 0x40 MLOAD SWAP4 DUP5 PUSH2 0xE82 JUMP JUMPDEST DUP1 DUP4 MSTORE PUSH1 0x1F NOT PUSH2 0x129 DUP3 PUSH2 0x115D JUMP JUMPDEST ADD DUP5 PUSH0 JUMPDEST DUP3 DUP2 LT PUSH2 0x2B4 JUMPI POP SWAP2 SWAP3 PUSH0 NOT DUP1 DUP3 ADD SWAP4 POP SWAP2 POP DUP1 DUP4 GT PUSH0 JUMPDEST DUP6 DUP2 LT PUSH2 0x1A7 JUMPI PUSH1 0x40 DUP1 MLOAD DUP10 DUP2 MSTORE DUP9 MLOAD DUP2 DUP12 ADD DUP2 SWAP1 MSTORE PUSH0 SWAP3 DUP2 DUP14 SHL DUP4 ADD DUP2 ADD SWAP2 DUP12 DUP14 ADD SWAP2 DUP14 SWAP1 DUP6 ADD JUMPDEST DUP3 DUP8 LT PUSH2 0x17B JUMPI DUP6 DUP6 SUB DUP7 RETURN JUMPDEST SWAP1 SWAP2 SWAP3 SWAP4 DUP3 DUP1 PUSH2 0x197 PUSH1 0x1 SWAP4 PUSH1 0x3F NOT DUP11 DUP3 SUB ADD DUP7 MSTORE DUP9 MLOAD PUSH2 0xF9D JUMP JUMPDEST SWAP7 ADD SWAP3 ADD SWAP7 ADD SWAP6 SWAP3 SWAP2 SWAP1 SWAP3 PUSH2 0x16E JUMP JUMPDEST DUP2 PUSH2 0x2A0 JUMPI DUP4 DUP2 DUP5 SUB ADD SWAP1 DUP6 DUP3 GT PUSH2 0x2A0 JUMPI PUSH2 0x29B SWAP2 PUSH0 MSTORE PUSH0 DUP10 MSTORE DUP9 PUSH2 0x27A PUSH1 0xC DUP13 PUSH2 0x25E PUSH1 0x40 PUSH0 KECCAK256 SWAP2 PUSH1 0x40 MLOAD SWAP6 PUSH2 0x1DE DUP8 PUSH2 0xE65 JUMP JUMPDEST DUP4 SLOAD DUP8 MSTORE PUSH1 0x1 DUP5 ADD SLOAD PUSH1 0x1 PUSH1 0x1 PUSH1 0xA0 SHL SUB AND SWAP1 DUP8 ADD MSTORE PUSH2 0x200 PUSH1 0x2 DUP5 ADD PUSH2 0xEA4 JUMP JUMPDEST PUSH1 0x40 DUP8 ADD MSTORE PUSH1 0xFF SWAP1 PUSH2 0x21B DUP3 PUSH1 0x3 DUP7 ADD SLOAD AND PUSH1 0x60 DUP10 ADD PUSH2 0x10E6 JUMP JUMPDEST PUSH1 0x4 DUP5 ADD SLOAD PUSH1 0x80 DUP9 ADD MSTORE DUP4 ADD SLOAD PUSH1 0xA0 DUP8 ADD MSTORE PUSH1 0x6 DUP4 ADD SLOAD PUSH1 0xC0 DUP8 ADD MSTORE DUP1 PUSH1 0x7 DUP5 ADD SLOAD AND PUSH1 0xE0 DUP8 ADD MSTORE PUSH1 0x8 DUP4 ADD SLOAD PUSH2 0x100 DUP8 ADD MSTORE PUSH1 0x9 DUP4 ADD SLOAD AND PUSH2 0x120 DUP7 ADD PUSH2 0x10F2 JUMP JUMPDEST PUSH1 0xA DUP2 ADD SLOAD PUSH2 0x140 DUP6 ADD MSTORE PUSH1 0xB DUP2 ADD SLOAD PUSH2 0x160 DUP6 ADD MSTORE ADD PUSH2 0xEA4 JUMP JUMPDEST PUSH2 0x180 DUP3 ADD MSTORE PUSH2 0x28A DUP3 DUP11 PUSH2 0x1175 JUMP JUMPDEST MSTORE PUSH2 0x295 DUP2 DUP10 PUSH2 0x1175 JUMP JUMPDEST POP PUSH2 0x10D8 JUMP JUMPDEST PUSH2 0x145 JUMP JUMPDEST PUSH4 0x4E487B71 PUSH1 0xE0 SHL PUSH0 MSTORE PUSH1 0x11 PUSH1 0x4 MSTORE PUSH1 0x24 PUSH0 REVERT JUMPDEST PUSH2 0x2BC PUSH2 0x10FE JUMP JUMPDEST DUP3 DUP3 DUP9 ADD ADD MSTORE ADD DUP6 SWAP1 PUSH2 0x12D JUMP JUMPDEST SWAP1 PUSH2 0x103 JUMP JUMPDEST CALLVALUE PUSH2 0xD8 JUMPI PUSH1 0x40 CALLDATASIZE PUSH1 0x3 NOT ADD SLT PUSH2 0xD8 JUMPI PUSH2 0x2E9 PUSH2 0xE17 JUMP JUMPDEST PUSH1 0x1 PUSH1 0x1 PUSH1 0xA0 SHL SUB AND PUSH0 SWAP1 DUP2 MSTORE PUSH1 0x1 PUSH1 0x20 MSTORE PUSH1 0x40 SWAP1 KECCAK256 DUP1 SLOAD PUSH1 0x24 CALLDATALOAD SWAP2 SWAP1 DUP3 LT ISZERO PUSH2 0xD8 JUMPI PUSH1 0x20 SWAP2 PUSH2 0x319 SWAP2 PUSH2 0x10AF JUMP JUMPDEST SWAP1 SLOAD PUSH1 0x40 MLOAD SWAP2 PUSH1 0x3 SHL SHR DUP2 MSTORE RETURN JUMPDEST CALLVALUE PUSH2 0xD8 JUMPI PUSH1 0x20 DUP1 PUSH1 0x3 NOT CALLDATASIZE ADD SLT PUSH2 0xD8 JUMPI PUSH1 0x1 PUSH1 0x1 PUSH1 0xA0 SHL SUB PUSH2 0x349 PUSH2 0xE17 JUMP JUMPDEST AND PUSH0 MSTORE PUSH1 0x1 SWAP1 DUP2 DUP2 MSTORE PUSH1 0x40 PUSH0 KECCAK256 SWAP2 PUSH1 0x40 MLOAD SWAP2 DUP3 DUP2 DUP6 SLOAD SWAP2 DUP3 DUP2 MSTORE ADD SWAP1 DUP2 SWAP6 PUSH0 MSTORE DUP3 PUSH0 KECCAK256 SWAP1 PUSH0 JUMPDEST DUP2 DUP2 LT PUSH2 0x3BC JUMPI POP POP POP DUP4 PUSH2 0x385 SWAP2 SUB DUP5 PUSH2 0xE82 JUMP JUMPDEST PUSH1 0x40 MLOAD SWAP3 DUP2 DUP5 ADD SWAP1 DUP3 DUP6 MSTORE MLOAD DUP1 SWAP2 MSTORE PUSH1 0x40 DUP5 ADD SWAP5 SWAP2 PUSH0 JUMPDEST DUP3 DUP2 LT PUSH2 0x3A9 JUMPI DUP6 DUP8 SUB DUP7 RETURN JUMPDEST DUP4 MLOAD DUP8 MSTORE SWAP6 DUP2 ADD SWAP6 SWAP3 DUP2 ADD SWAP3 DUP5 ADD PUSH2 0x39C JUMP JUMPDEST DUP3 SLOAD DUP5 MSTORE SWAP3 DUP5 ADD SWAP3 SWAP2 DUP6 ADD SWAP2 DUP6 ADD PUSH2 0x36F JUMP JUMPDEST CALLVALUE PUSH2 0xD8 JUMPI PUSH1 0x40 CALLDATASIZE PUSH1 0x3 NOT ADD SLT PUSH2 0xD8 JUMPI PUSH1 0x4 CALLDATALOAD PUSH1 0x24 SWAP1 DUP2 CALLDATALOAD SWAP2 DUP2 PUSH0 MSTORE PUSH1 0x20 SWAP1 PUSH0 DUP3 MSTORE PUSH1 0x40 PUSH0 KECCAK256 PUSH1 0x1 DUP1 PUSH1 0xA0 SHL SUB PUSH1 0x1 DUP3 ADD SLOAD AND CALLER SUB PUSH2 0x5F7 JUMPI PUSH1 0x9 DUP2 ADD DUP1 SLOAD PUSH1 0xFF DUP2 AND PUSH1 0x3 DUP2 LT ISZERO PUSH2 0x5E4 JUMPI PUSH2 0x5B5 JUMPI PUSH1 0x5 DUP4 ADD DUP8 SWAP1 SSTORE TIMESTAMP PUSH1 0xB DUP5 ADD SSTORE PUSH1 0xFF NOT AND PUSH1 0x1 OR SWAP1 SSTORE PUSH1 0x4 DUP2 ADD SLOAD DUP1 DUP7 SUB PUSH0 DUP3 SLT DUP1 ISZERO DUP9 DUP4 SGT AND DUP9 DUP4 SLT SWAP1 SWAP2 AND OR PUSH2 0x541 JUMPI DUP1 PUSH1 0xFF PUSH1 0x3 DUP6 ADD SLOAD AND PUSH1 0x2 DUP2 LT ISZERO PUSH2 0x5A2 JUMPI PUSH1 0x1 EQ PUSH2 0x58D JUMPI JUMPDEST POP PUSH1 0x6 DUP4 ADD SLOAD DUP2 DUP2 MUL SWAP2 PUSH1 0x1 PUSH1 0xFF SHL SWAP2 SWAP1 PUSH0 DUP3 SLT DUP4 DUP3 EQ AND PUSH2 0x57A JUMPI DUP2 DUP5 SDIV EQ SWAP1 ISZERO OR ISZERO PUSH2 0x567 JUMPI DUP3 ISZERO PUSH2 0x554 JUMPI DUP2 EQ PUSH0 NOT DUP4 EQ AND PUSH2 0x541 JUMPI SWAP1 PUSH1 0x8 SWAP2 SDIV SWAP2 ADD SWAP2 DUP2 DUP4 SSTORE CALLER PUSH0 MSTORE PUSH1 0x4 DUP5 MSTORE PUSH1 0x40 PUSH0 KECCAK256 SWAP1 DUP2 SLOAD PUSH0 DUP5 DUP3 ADD SWAP5 DUP6 SLT SWAP2 SLT SWAP1 DUP1 ISZERO DUP3 AND SWAP2 ISZERO AND OR PUSH2 0x52E JUMPI POP SSTORE PUSH0 DUP2 SLOAD SGT PUSH2 0x512 JUMPI JUMPDEST SLOAD SWAP1 PUSH1 0x40 MLOAD SWAP4 DUP5 MSTORE DUP4 ADD MSTORE PUSH32 0xC3C5FD6B6AA1A8AF6A7E7B8AF72BB2D6EBE133C0222262FA8A3E73A68A83C425 PUSH1 0x40 CALLER SWAP4 LOG3 STOP JUMPDEST CALLER PUSH0 MSTORE PUSH1 0x3 DUP3 MSTORE PUSH1 0x40 PUSH0 KECCAK256 PUSH2 0x527 DUP2 SLOAD PUSH2 0x10D8 JUMP JUMPDEST SWAP1 SSTORE PUSH2 0x4DF JUMP JUMPDEST PUSH4 0x4E487B71 PUSH1 0xE0 SHL PUSH0 SWAP1 DUP2 MSTORE PUSH1 0x11 PUSH1 0x4 MSTORE REVERT JUMPDEST DUP4 PUSH4 0x4E487B71 PUSH1 0xE0 SHL PUSH0 MSTORE PUSH1 0x11 PUSH1 0x4 MSTORE PUSH0 REVERT JUMPDEST DUP5 PUSH4 0x4E487B71 PUSH1 0xE0 SHL PUSH0 MSTORE PUSH1 0x12 PUSH1 0x4 MSTORE PUSH0 REVERT JUMPDEST DUP5 PUSH4 0x4E487B71 PUSH1 0xE0 SHL PUSH0 MSTORE PUSH1 0x11 PUSH1 0x4 MSTORE PUSH0 REVERT JUMPDEST DUP7 PUSH4 0x4E487B71 PUSH1 0xE0 SHL PUSH0 MSTORE PUSH1 0x11 PUSH1 0x4 MSTORE PUSH0 REVERT JUMPDEST SWAP1 POP PUSH1 0x1 PUSH1 0xFF SHL DUP2 EQ PUSH2 0x541 JUMPI PUSH0 SUB DUP8 PUSH2 0x46C JUMP JUMPDEST DUP6 PUSH4 0x4E487B71 PUSH1 0xE0 SHL PUSH0 MSTORE PUSH1 0x21 PUSH1 0x4 MSTORE PUSH0 REVERT JUMPDEST PUSH1 0x40 MLOAD PUSH3 0x461BCD PUSH1 0xE5 SHL DUP2 MSTORE PUSH1 0x4 DUP2 ADD DUP7 SWAP1 MSTORE PUSH1 0x8 DUP2 DUP7 ADD MSTORE PUSH8 0x2737BA1037B832B7 PUSH1 0xC1 SHL PUSH1 0x44 DUP3 ADD MSTORE PUSH1 0x64 SWAP1 REVERT JUMPDEST DUP5 PUSH4 0x4E487B71 PUSH1 0xE0 SHL PUSH0 MSTORE PUSH1 0x21 PUSH1 0x4 MSTORE PUSH0 REVERT JUMPDEST PUSH1 0x40 MLOAD PUSH3 0x461BCD PUSH1 0xE5 SHL DUP2 MSTORE PUSH1 0x4 DUP2 ADD DUP5 SWAP1 MSTORE PUSH1 0xE DUP2 DUP5 ADD MSTORE PUSH14 0x4E6F7420796F7572207472616465 PUSH1 0x90 SHL PUSH1 0x44 DUP3 ADD MSTORE PUSH1 0x64 SWAP1 REVERT JUMPDEST CALLVALUE PUSH2 0xD8 JUMPI PUSH1 0xC0 CALLDATASIZE PUSH1 0x3 NOT ADD SLT PUSH2 0xD8 JUMPI PUSH1 0x4 CALLDATALOAD PUSH8 0xFFFFFFFFFFFFFFFF DUP2 GT PUSH2 0xD8 JUMPI PUSH2 0x65D SWAP1 CALLDATASIZE SWAP1 PUSH1 0x4 ADD PUSH2 0x1059 JUMP JUMPDEST PUSH1 0x2 PUSH1 0x24 CALLDATALOAD LT ISZERO PUSH2 0xD8 JUMPI PUSH1 0x84 CALLDATALOAD PUSH1 0xFF DUP2 AND DUP2 SUB PUSH2 0xD8 JUMPI PUSH1 0xA4 CALLDATALOAD PUSH8 0xFFFFFFFFFFFFFFFF DUP2 GT PUSH2 0xD8 JUMPI PUSH2 0x695 SWAP1 CALLDATASIZE SWAP1 PUSH1 0x4 ADD PUSH2 0x1059 JUMP JUMPDEST SWAP1 PUSH1 0x5 SLOAD SWAP2 PUSH2 0x6A3 DUP4 PUSH2 0x10D8 JUMP JUMPDEST PUSH1 0x5 SSTORE PUSH1 0xFF PUSH1 0x40 MLOAD SWAP3 PUSH2 0x6B5 DUP5 PUSH2 0xE65 JUMP JUMPDEST DUP5 DUP5 MSTORE CALLER PUSH1 0x20 DUP6 ADD MSTORE DUP6 PUSH1 0x40 DUP6 ADD MSTORE PUSH2 0x6D3 PUSH1 0x24 CALLDATALOAD PUSH1 0x60 DUP7 ADD PUSH2 0x10E6 JUMP JUMPDEST PUSH1 0x44 CALLDATALOAD PUSH1 0x80 DUP6 ADD MSTORE PUSH0 PUSH1 0xA0 DUP6 ADD MSTORE PUSH1 0x64 CALLDATALOAD PUSH1 0xC0 DUP6 ADD MSTORE AND PUSH1 0xE0 DUP4 ADD MSTORE PUSH0 PUSH2 0x100 DUP4 ADD MSTORE PUSH0 PUSH2 0x120 DUP4 ADD MSTORE TIMESTAMP PUSH2 0x140 DUP4 ADD MSTORE PUSH0 PUSH2 0x160 DUP4 ADD MSTORE PUSH2 0x180 DUP3 ADD MSTORE DUP2 PUSH0 MSTORE PUSH0 PUSH1 0x20 MSTORE PUSH1 0x40 PUSH0 KECCAK256 SWAP1 DUP1 MLOAD DUP3 SSTORE PUSH1 0x1 DUP3 ADD PUSH1 0x1 DUP1 PUSH1 0xA0 SHL SUB PUSH1 0x20 DUP4 ADD MLOAD AND PUSH12 0xFFFFFFFFFFFFFFFFFFFFFFFF PUSH1 0xA0 SHL DUP3 SLOAD AND OR SWAP1 SSTORE PUSH1 0x40 DUP2 ADD MLOAD DUP1 MLOAD SWAP1 PUSH8 0xFFFFFFFFFFFFFFFF DUP3 GT PUSH2 0x963 JUMPI DUP2 SWAP1 PUSH2 0x76E PUSH1 0x2 DUP7 ADD SLOAD PUSH2 0xE2D JUMP JUMPDEST PUSH1 0x1F DUP2 GT PUSH2 0xABD JUMPI JUMPDEST POP PUSH1 0x20 SWAP1 PUSH1 0x1F DUP4 GT PUSH1 0x1 EQ PUSH2 0xA4F JUMPI PUSH0 SWAP3 PUSH2 0xA44 JUMPI JUMPDEST POP POP DUP2 PUSH1 0x1 SHL SWAP2 PUSH0 NOT SWAP1 PUSH1 0x3 SHL SHR NOT AND OR PUSH1 0x2 DUP4 ADD SSTORE JUMPDEST PUSH1 0x60 DUP2 ADD MLOAD SWAP1 PUSH1 0x2 DUP3 LT ISZERO PUSH2 0xA30 JUMPI PUSH1 0x3 DUP4 ADD PUSH1 0xFF NOT SWAP3 PUSH1 0xFF DUP5 DUP4 SLOAD AND SWAP2 AND OR SWAP1 SSTORE PUSH1 0x80 DUP2 ADD MLOAD PUSH1 0x4 DUP5 ADD SSTORE PUSH1 0xA0 DUP2 ADD MLOAD PUSH1 0x5 DUP5 ADD SSTORE PUSH1 0xC0 DUP2 ADD MLOAD PUSH1 0x6 DUP5 ADD SSTORE PUSH1 0x7 DUP4 ADD PUSH1 0xFF PUSH1 0xE0 DUP4 ADD MLOAD AND DUP4 DUP3 SLOAD AND OR SWAP1 SSTORE PUSH2 0x100 DUP2 ADD MLOAD PUSH1 0x8 DUP5 ADD SSTORE PUSH1 0x9 DUP4 ADD PUSH2 0x120 DUP3 ADD MLOAD PUSH1 0x3 DUP2 LT ISZERO PUSH2 0xA30 JUMPI PUSH1 0xFF PUSH2 0x180 SWAP5 DUP4 SLOAD AND SWAP2 AND OR SWAP1 SSTORE PUSH2 0x140 DUP2 ADD MLOAD PUSH1 0xA DUP5 ADD SSTORE PUSH2 0x160 DUP2 ADD MLOAD PUSH1 0xB DUP5 ADD SSTORE ADD MLOAD DUP1 MLOAD SWAP1 PUSH8 0xFFFFFFFFFFFFFFFF DUP3 GT PUSH2 0x963 JUMPI PUSH2 0x85A PUSH1 0xC DUP5 ADD SLOAD PUSH2 0xE2D JUMP JUMPDEST PUSH1 0x1F DUP2 GT PUSH2 0x9EC JUMPI JUMPDEST POP PUSH1 0x20 SWAP1 PUSH1 0x1F DUP4 GT PUSH1 0x1 EQ PUSH2 0x982 JUMPI PUSH1 0xC SWAP3 SWAP2 PUSH0 SWAP2 DUP4 PUSH2 0x977 JUMPI JUMPDEST POP POP DUP2 PUSH1 0x1 SHL SWAP2 PUSH0 NOT SWAP1 PUSH1 0x3 SHL SHR NOT AND OR SWAP2 ADD SSTORE JUMPDEST CALLER PUSH0 MSTORE PUSH1 0x1 PUSH1 0x20 MSTORE PUSH1 0x40 PUSH0 KECCAK256 SWAP2 DUP3 SLOAD SWAP3 PUSH9 0x10000000000000000 DUP5 LT ISZERO PUSH2 0x963 JUMPI DUP4 PUSH2 0x8C6 SWAP2 PUSH1 0x1 PUSH1 0x20 SWAP7 ADD DUP2 SSTORE PUSH2 0x10AF JUMP JUMPDEST DUP2 SLOAD SWAP1 PUSH1 0x3 SHL SWAP1 DUP5 DUP3 SHL SWAP2 PUSH0 NOT SWAP1 SHL NOT AND OR SWAP1 SSTORE CALLER PUSH0 MSTORE PUSH1 0x2 DUP4 MSTORE PUSH1 0x40 PUSH0 KECCAK256 PUSH2 0x8EF DUP2 SLOAD PUSH2 0x10D8 JUMP JUMPDEST SWAP1 SSTORE PUSH2 0x8FC PUSH1 0x5 SLOAD PUSH2 0x10D8 JUMP JUMPDEST PUSH1 0x5 SSTORE DUP2 PUSH32 0x1334919B911D21F44C77240785B7A8F1365134DB2CED843D6372F362524B3E3C PUSH2 0x936 PUSH1 0x40 MLOAD SWAP4 PUSH1 0x80 DUP6 MSTORE PUSH1 0x80 DUP6 ADD SWAP1 PUSH2 0xF45 JUMP JUMPDEST SWAP3 PUSH2 0x945 DUP7 DUP3 ADD PUSH1 0x24 CALLDATALOAD PUSH2 0xF83 JUMP JUMPDEST PUSH1 0x44 CALLDATALOAD PUSH1 0x40 DUP3 ADD MSTORE PUSH1 0x64 CALLDATALOAD PUSH1 0x60 DUP3 ADD MSTORE DUP1 CALLER SWAP5 SUB SWAP1 LOG3 PUSH1 0x40 MLOAD SWAP1 DUP2 MSTORE RETURN JUMPDEST PUSH4 0x4E487B71 PUSH1 0xE0 SHL PUSH0 MSTORE PUSH1 0x41 PUSH1 0x4 MSTORE PUSH1 0x24 PUSH0 REVERT JUMPDEST ADD MLOAD SWAP1 POP DUP7 DUP1 PUSH2 0x87E JUMP JUMPDEST SWAP1 PUSH1 0x1F NOT DUP4 AND SWAP2 PUSH1 0xC DUP6 ADD PUSH0 MSTORE PUSH1 0x20 PUSH0 KECCAK256 SWAP3 PUSH0 JUMPDEST DUP2 DUP2 LT PUSH2 0x9D4 JUMPI POP SWAP2 PUSH1 0x1 SWAP4 SWAP2 DUP6 PUSH1 0xC SWAP7 SWAP5 LT PUSH2 0x9BC JUMPI JUMPDEST POP POP POP DUP2 SHL ADD SWAP2 ADD SSTORE PUSH2 0x893 JUMP JUMPDEST ADD MLOAD PUSH0 NOT PUSH1 0xF8 DUP5 PUSH1 0x3 SHL AND SHR NOT AND SWAP1 SSTORE DUP7 DUP1 DUP1 PUSH2 0x9AE JUMP JUMPDEST SWAP3 SWAP4 PUSH1 0x20 PUSH1 0x1 DUP2 SWAP3 DUP8 DUP7 ADD MLOAD DUP2 SSTORE ADD SWAP6 ADD SWAP4 ADD PUSH2 0x996 JUMP JUMPDEST PUSH1 0xC DUP5 ADD PUSH0 MSTORE PUSH1 0x20 PUSH0 KECCAK256 PUSH1 0x1F DUP5 ADD PUSH1 0x5 SHR DUP2 ADD PUSH1 0x20 DUP6 LT PUSH2 0xA29 JUMPI JUMPDEST PUSH1 0x1F DUP4 ADD PUSH1 0x5 SHR DUP3 ADD DUP2 LT PUSH2 0xA1E JUMPI POP POP PUSH2 0x863 JUMP JUMPDEST PUSH0 DUP2 SSTORE PUSH1 0x1 ADD PUSH2 0xA08 JUMP JUMPDEST POP DUP1 PUSH2 0xA08 JUMP JUMPDEST PUSH4 0x4E487B71 PUSH1 0xE0 SHL PUSH0 MSTORE PUSH1 0x21 PUSH1 0x4 MSTORE PUSH1 0x24 PUSH0 REVERT JUMPDEST ADD MLOAD SWAP1 POP DUP7 DUP1 PUSH2 0x78D JUMP JUMPDEST SWAP3 POP PUSH1 0x2 DUP6 ADD PUSH0 MSTORE PUSH1 0x20 PUSH0 KECCAK256 SWAP1 PUSH0 SWAP4 JUMPDEST PUSH1 0x1F NOT DUP5 AND DUP6 LT PUSH2 0xAA2 JUMPI PUSH1 0x1 SWAP5 POP DUP4 PUSH1 0x1F NOT DUP2 AND LT PUSH2 0xA8A JUMPI JUMPDEST POP POP POP DUP2 SHL ADD PUSH1 0x2 DUP4 ADD SSTORE PUSH2 0x7A4 JUMP JUMPDEST ADD MLOAD PUSH0 NOT PUSH1 0xF8 DUP5 PUSH1 0x3 SHL AND SHR NOT AND SWAP1 SSTORE DUP7 DUP1 DUP1 PUSH2 0xA7A JUMP JUMPDEST DUP2 DUP2 ADD MLOAD DUP4 SSTORE PUSH1 0x20 SWAP5 DUP6 ADD SWAP5 PUSH1 0x1 SWAP1 SWAP4 ADD SWAP3 SWAP1 SWAP2 ADD SWAP1 PUSH2 0xA5F JUMP JUMPDEST SWAP1 SWAP2 POP PUSH1 0x2 DUP6 ADD PUSH0 MSTORE PUSH1 0x20 PUSH0 KECCAK256 PUSH1 0x1F DUP5 ADD PUSH1 0x5 SHR DUP2 ADD PUSH1 0x20 DUP6 LT PUSH2 0xB06 JUMPI JUMPDEST SWAP1 DUP5 SWAP4 SWAP3 SWAP2 JUMPDEST PUSH1 0x1F DUP4 ADD PUSH1 0x5 SHR DUP3 ADD DUP2 LT PUSH2 0xAF8 JUMPI POP POP PUSH2 0x777 JUMP JUMPDEST PUSH0 DUP2 SSTORE DUP6 SWAP5 POP PUSH1 0x1 ADD PUSH2 0xAE2 JUMP JUMPDEST POP DUP1 PUSH2 0xADC JUMP JUMPDEST CALLVALUE PUSH2 0xD8 JUMPI PUSH1 0x20 CALLDATASIZE PUSH1 0x3 NOT ADD SLT PUSH2 0xD8 JUMPI PUSH1 0x1 PUSH1 0x1 PUSH1 0xA0 SHL SUB PUSH2 0xB2E PUSH2 0xE17 JUMP JUMPDEST AND PUSH0 MSTORE PUSH1 0x2 PUSH1 0x20 MSTORE PUSH1 0x20 PUSH1 0x40 PUSH0 KECCAK256 SLOAD PUSH1 0x40 MLOAD SWAP1 DUP2 MSTORE RETURN JUMPDEST CALLVALUE PUSH2 0xD8 JUMPI PUSH1 0x20 CALLDATASIZE PUSH1 0x3 NOT ADD SLT PUSH2 0xD8 JUMPI PUSH1 0x1 PUSH1 0x1 PUSH1 0xA0 SHL SUB PUSH2 0xB66 PUSH2 0xE17 JUMP JUMPDEST AND PUSH0 MSTORE PUSH1 0x2 PUSH1 0x20 MSTORE PUSH1 0x40 PUSH0 KECCAK256 SLOAD PUSH1 0x3 PUSH1 0x20 MSTORE PUSH1 0x40 PUSH0 KECCAK256 SLOAD SWAP1 PUSH1 0x4 PUSH1 0x20 MSTORE PUSH1 0x40 PUSH0 KECCAK256 SLOAD SWAP2 DUP2 ISZERO SWAP3 DUP4 ISZERO PUSH0 EQ PUSH2 0xBDD JUMPI PUSH1 0x64 DUP3 MUL SWAP4 DUP3 DUP6 DIV PUSH1 0x64 EQ DUP4 ISZERO OR ISZERO PUSH2 0x2A0 JUMPI PUSH2 0xBC9 JUMPI DUP3 PUSH1 0x80 SWAP5 DIV SWAP2 JUMPDEST PUSH1 0x40 MLOAD SWAP4 DUP5 MSTORE PUSH1 0x20 DUP5 ADD MSTORE PUSH1 0x40 DUP4 ADD MSTORE PUSH1 0x60 DUP3 ADD MSTORE RETURN JUMPDEST PUSH4 0x4E487B71 PUSH1 0xE0 SHL PUSH0 MSTORE PUSH1 0x12 PUSH1 0x4 MSTORE PUSH1 0x24 PUSH0 REVERT JUMPDEST PUSH1 0x80 SWAP4 POP PUSH0 SWAP2 PUSH2 0xBB2 JUMP JUMPDEST CALLVALUE PUSH2 0xD8 JUMPI PUSH0 CALLDATASIZE PUSH1 0x3 NOT ADD SLT PUSH2 0xD8 JUMPI PUSH1 0x20 PUSH1 0x5 SLOAD PUSH1 0x40 MLOAD SWAP1 DUP2 MSTORE RETURN JUMPDEST CALLVALUE PUSH2 0xD8 JUMPI PUSH1 0x20 CALLDATASIZE PUSH1 0x3 NOT ADD SLT PUSH2 0xD8 JUMPI PUSH2 0xC1E PUSH2 0x10FE JUMP JUMPDEST POP PUSH1 0x4 CALLDATALOAD PUSH0 MSTORE PUSH0 PUSH1 0x20 MSTORE PUSH2 0xCE2 PUSH1 0x40 PUSH0 KECCAK256 PUSH2 0xCC8 PUSH1 0xC PUSH1 0x40 MLOAD SWAP3 PUSH2 0xC41 DUP5 PUSH2 0xE65 JUMP JUMPDEST DUP1 SLOAD DUP5 MSTORE PUSH1 0x1 DUP2 ADD SLOAD PUSH1 0x1 PUSH1 0x1 PUSH1 0xA0 SHL SUB AND PUSH1 0x20 DUP6 ADD MSTORE PUSH2 0xC64 PUSH1 0x2 DUP3 ADD PUSH2 0xEA4 JUMP JUMPDEST PUSH1 0x40 DUP6 ADD MSTORE PUSH2 0xC7D PUSH1 0xFF PUSH1 0x3 DUP4 ADD SLOAD AND PUSH1 0x60 DUP7 ADD PUSH2 0x10E6 JUMP JUMPDEST PUSH1 0x4 DUP2 ADD SLOAD PUSH1 0x80 DUP6 ADD MSTORE PUSH1 0x5 DUP2 ADD SLOAD PUSH1 0xA0 DUP6 ADD MSTORE PUSH1 0x6 DUP2 ADD SLOAD PUSH1 0xC0 DUP6 ADD MSTORE PUSH1 0xFF PUSH1 0x7 DUP3 ADD SLOAD AND PUSH1 0xE0 DUP6 ADD MSTORE PUSH1 0x8 DUP2 ADD SLOAD PUSH2 0x100 DUP6 ADD MSTORE PUSH2 0x25E PUSH1 0xFF PUSH1 0x9 DUP4 ADD SLOAD AND PUSH2 0x120 DUP7 ADD PUSH2 0x10F2 JUMP JUMPDEST PUSH2 0x180 DUP3 ADD MSTORE PUSH1 0x40 MLOAD SWAP2 DUP3 SWAP2 PUSH1 0x20 DUP4 MSTORE PUSH1 0x20 DUP4 ADD SWAP1 PUSH2 0xF9D JUMP JUMPDEST SUB SWAP1 RETURN JUMPDEST CALLVALUE PUSH2 0xD8 JUMPI PUSH1 0x20 CALLDATASIZE PUSH1 0x3 NOT ADD SLT PUSH2 0xD8 JUMPI PUSH1 0x4 CALLDATALOAD PUSH0 SWAP1 DUP2 MSTORE PUSH1 0x20 DUP2 SWAP1 MSTORE PUSH1 0x40 SWAP1 KECCAK256 DUP1 SLOAD PUSH1 0x1 DUP3 ADD SLOAD PUSH1 0x1 PUSH1 0x1 PUSH1 0xA0 SHL SUB AND SWAP2 PUSH2 0xD24 PUSH1 0x2 DUP3 ADD PUSH2 0xEA4 JUMP JUMPDEST SWAP1 PUSH1 0x3 DUP2 ADD SLOAD PUSH1 0xFF AND SWAP1 PUSH1 0x4 DUP2 ADD SLOAD PUSH1 0x5 DUP3 ADD SLOAD PUSH1 0x6 DUP4 ADD SLOAD PUSH1 0x7 DUP5 ADD SLOAD PUSH1 0xFF AND PUSH1 0x8 DUP6 ADD SLOAD SWAP2 PUSH1 0x9 DUP7 ADD SLOAD PUSH1 0xFF AND SWAP4 PUSH1 0xA DUP8 ADD SLOAD SWAP6 PUSH1 0xB DUP9 ADD SLOAD SWAP8 PUSH1 0xC ADD PUSH2 0xD6C SWAP1 PUSH2 0xEA4 JUMP JUMPDEST SWAP10 PUSH1 0x40 MLOAD SWAP13 DUP14 SWAP13 DUP14 MSTORE PUSH1 0x20 DUP14 ADD MSTORE DUP12 PUSH2 0x1A0 PUSH1 0x40 DUP2 SWAP3 ADD MSTORE DUP13 ADD PUSH2 0xD8F SWAP2 PUSH2 0xF45 JUMP JUMPDEST SWAP9 PUSH1 0x60 DUP13 ADD PUSH2 0xD9D SWAP2 PUSH2 0xF83 JUMP JUMPDEST PUSH1 0x80 DUP12 ADD MSTORE PUSH1 0xA0 DUP11 ADD MSTORE PUSH1 0xC0 DUP10 ADD MSTORE PUSH1 0xE0 DUP9 ADD MSTORE PUSH2 0x100 DUP8 ADD MSTORE PUSH2 0x120 DUP7 ADD PUSH2 0xDC5 SWAP2 PUSH2 0xF90 JUMP JUMPDEST PUSH2 0x140 DUP6 ADD MSTORE PUSH2 0x160 DUP5 ADD MSTORE DUP3 DUP2 SUB PUSH2 0x180 DUP5 ADD MSTORE PUSH2 0xCE2 SWAP2 PUSH2 0xF45 JUMP JUMPDEST CALLVALUE PUSH2 0xD8 JUMPI PUSH1 0x20 CALLDATASIZE PUSH1 0x3 NOT ADD SLT PUSH2 0xD8 JUMPI PUSH1 0x20 SWAP1 PUSH1 0x1 PUSH1 0x1 PUSH1 0xA0 SHL SUB PUSH2 0xE07 PUSH2 0xE17 JUMP JUMPDEST AND PUSH0 MSTORE PUSH1 0x4 DUP3 MSTORE PUSH1 0x40 PUSH0 KECCAK256 SLOAD DUP2 MSTORE RETURN JUMPDEST PUSH1 0x4 CALLDATALOAD SWAP1 PUSH1 0x1 PUSH1 0x1 PUSH1 0xA0 SHL SUB DUP3 AND DUP3 SUB PUSH2 0xD8 JUMPI JUMP JUMPDEST SWAP1 PUSH1 0x1 DUP3 DUP2 SHR SWAP3 AND DUP1 ISZERO PUSH2 0xE5B JUMPI JUMPDEST PUSH1 0x20 DUP4 LT EQ PUSH2 0xE47 JUMPI JUMP JUMPDEST PUSH4 0x4E487B71 PUSH1 0xE0 SHL PUSH0 MSTORE PUSH1 0x22 PUSH1 0x4 MSTORE PUSH1 0x24 PUSH0 REVERT JUMPDEST SWAP2 PUSH1 0x7F AND SWAP2 PUSH2 0xE3C JUMP JUMPDEST PUSH2 0x1A0 DUP2 ADD SWAP1 DUP2 LT PUSH8 0xFFFFFFFFFFFFFFFF DUP3 GT OR PUSH2 0x963 JUMPI PUSH1 0x40 MSTORE JUMP JUMPDEST SWAP1 PUSH1 0x1F DUP1 NOT SWAP2 ADD AND DUP2 ADD SWAP1 DUP2 LT PUSH8 0xFFFFFFFFFFFFFFFF DUP3 GT OR PUSH2 0x963 JUMPI PUSH1 0x40 MSTORE JUMP JUMPDEST SWAP1 PUSH1 0x40 MLOAD SWAP2 DUP3 PUSH0 DUP3 SLOAD SWAP3 PUSH2 0xEB7 DUP5 PUSH2 0xE2D JUMP JUMPDEST SWAP1 DUP2 DUP5 MSTORE PUSH1 0x1 SWAP5 DUP6 DUP2 AND SWAP1 DUP2 PUSH0 EQ PUSH2 0xF22 JUMPI POP PUSH1 0x1 EQ PUSH2 0xEE2 JUMPI JUMPDEST POP POP PUSH2 0xEE0 SWAP3 POP SUB DUP4 PUSH2 0xE82 JUMP JUMPDEST JUMP JUMPDEST SWAP1 SWAP4 SWAP2 POP PUSH0 MSTORE PUSH1 0x20 SWAP1 DUP2 PUSH0 KECCAK256 SWAP4 PUSH0 SWAP2 JUMPDEST DUP2 DUP4 LT PUSH2 0xF0A JUMPI POP POP PUSH2 0xEE0 SWAP4 POP DUP3 ADD ADD PUSH0 DUP1 PUSH2 0xED2 JUMP JUMPDEST DUP6 SLOAD DUP9 DUP5 ADD DUP6 ADD MSTORE SWAP5 DUP6 ADD SWAP5 DUP8 SWAP5 POP SWAP2 DUP4 ADD SWAP2 PUSH2 0xEF2 JUMP JUMPDEST SWAP2 POP POP PUSH2 0xEE0 SWAP5 POP PUSH1 0x20 SWAP3 POP PUSH1 0xFF NOT AND DUP3 DUP5 ADD MSTORE ISZERO ISZERO PUSH1 0x5 SHL DUP3 ADD ADD PUSH0 DUP1 PUSH2 0xED2 JUMP JUMPDEST SWAP2 SWAP1 DUP3 MLOAD SWAP3 DUP4 DUP3 MSTORE PUSH0 JUMPDEST DUP5 DUP2 LT PUSH2 0xF6F JUMPI POP POP DUP3 PUSH0 PUSH1 0x20 DUP1 SWAP5 SWAP6 DUP5 ADD ADD MSTORE PUSH1 0x1F DUP1 NOT SWAP2 ADD AND ADD ADD SWAP1 JUMP JUMPDEST PUSH1 0x20 DUP2 DUP4 ADD DUP2 ADD MLOAD DUP5 DUP4 ADD DUP3 ADD MSTORE ADD PUSH2 0xF4F JUMP JUMPDEST SWAP1 PUSH1 0x2 DUP3 LT ISZERO PUSH2 0xA30 JUMPI MSTORE JUMP JUMPDEST SWAP1 PUSH1 0x3 DUP3 LT ISZERO PUSH2 0xA30 JUMPI MSTORE JUMP JUMPDEST SWAP1 PUSH2 0x1056 SWAP2 DUP1 MLOAD DUP3 MSTORE PUSH1 0x1 DUP1 PUSH1 0xA0 SHL SUB PUSH1 0x20 DUP3 ADD MLOAD AND PUSH1 0x20 DUP4 ADD MSTORE PUSH2 0xFD1 PUSH1 0x40 DUP3 ADD MLOAD PUSH2 0x1A0 DUP1 PUSH1 0x40 DUP7 ADD MSTORE DUP5 ADD SWAP1 PUSH2 0xF45 JUMP JUMPDEST SWAP2 PUSH2 0xFE4 PUSH1 0x60 DUP4 ADD MLOAD PUSH1 0x60 DUP4 ADD SWAP1 PUSH2 0xF83 JUMP JUMPDEST PUSH1 0x80 DUP3 ADD MLOAD PUSH1 0x80 DUP3 ADD MSTORE PUSH1 0xA0 DUP3 ADD MLOAD PUSH1 0xA0 DUP3 ADD MSTORE PUSH1 0xC0 DUP3 ADD MLOAD PUSH1 0xC0 DUP3 ADD MSTORE PUSH1 0xFF PUSH1 0xE0 DUP4 ADD MLOAD AND PUSH1 0xE0 DUP3 ADD MSTORE PUSH2 0x100 DUP1 DUP4 ADD MLOAD SWAP1 DUP3 ADD MSTORE PUSH2 0x102D PUSH2 0x120 DUP1 DUP5 ADD MLOAD SWAP1 DUP4 ADD SWAP1 PUSH2 0xF90 JUMP JUMPDEST PUSH2 0x140 DUP1 DUP4 ADD MLOAD SWAP1 DUP3 ADD MSTORE PUSH2 0x160 DUP1 DUP4 ADD MLOAD SWAP1 DUP3 ADD MSTORE PUSH2 0x180 DUP1 SWAP3 ADD MLOAD SWAP2 DUP2 DUP5 SUB SWAP2 ADD MSTORE PUSH2 0xF45 JUMP JUMPDEST SWAP1 JUMP JUMPDEST DUP2 PUSH1 0x1F DUP3 ADD SLT ISZERO PUSH2 0xD8 JUMPI DUP1 CALLDATALOAD SWAP1 PUSH8 0xFFFFFFFFFFFFFFFF DUP3 GT PUSH2 0x963 JUMPI PUSH1 0x40 MLOAD SWAP3 PUSH2 0x108E PUSH1 0x1F DUP5 ADD PUSH1 0x1F NOT AND PUSH1 0x20 ADD DUP6 PUSH2 0xE82 JUMP JUMPDEST DUP3 DUP5 MSTORE PUSH1 0x20 DUP4 DUP4 ADD ADD GT PUSH2 0xD8 JUMPI DUP2 PUSH0 SWAP3 PUSH1 0x20 DUP1 SWAP4 ADD DUP4 DUP7 ADD CALLDATACOPY DUP4 ADD ADD MSTORE SWAP1 JUMP JUMPDEST DUP1 SLOAD DUP3 LT ISZERO PUSH2 0x10C4 JUMPI PUSH0 MSTORE PUSH1 0x20 PUSH0 KECCAK256 ADD SWAP1 PUSH0 SWAP1 JUMP JUMPDEST PUSH4 0x4E487B71 PUSH1 0xE0 SHL PUSH0 MSTORE PUSH1 0x32 PUSH1 0x4 MSTORE PUSH1 0x24 PUSH0 REVERT JUMPDEST PUSH0 NOT DUP2 EQ PUSH2 0x2A0 JUMPI PUSH1 0x1 ADD SWAP1 JUMP JUMPDEST PUSH1 0x2 DUP3 LT ISZERO PUSH2 0xA30 JUMPI MSTORE JUMP JUMPDEST PUSH1 0x3 DUP3 LT ISZERO PUSH2 0xA30 JUMPI MSTORE JUMP JUMPDEST PUSH1 0x40 MLOAD SWAP1 PUSH2 0x110B DUP3 PUSH2 0xE65 JUMP JUMPDEST PUSH1 0x60 PUSH2 0x180 DUP4 PUSH0 DUP1 DUP3 MSTORE DUP1 PUSH1 0x20 DUP4 ADD MSTORE DUP4 PUSH1 0x40 DUP4 ADD MSTORE DUP1 DUP5 DUP4 ADD MSTORE DUP1 PUSH1 0x80 DUP4 ADD MSTORE DUP1 PUSH1 0xA0 DUP4 ADD MSTORE DUP1 PUSH1 0xC0 DUP4 ADD MSTORE DUP1 PUSH1 0xE0 DUP4 ADD MSTORE DUP1 PUSH2 0x100 DUP4 ADD MSTORE DUP1 PUSH2 0x120 DUP4 ADD MSTORE DUP1 PUSH2 0x140 DUP4 ADD MSTORE PUSH2 0x160 DUP3 ADD MSTORE ADD MSTORE JUMP JUMPDEST PUSH8 0xFFFFFFFFFFFFFFFF DUP2 GT PUSH2 0x963 JUMPI PUSH1 0x5 SHL PUSH1 0x20 ADD SWAP1 JUMP JUMPDEST DUP1 MLOAD DUP3 LT ISZERO PUSH2 0x10C4 JUMPI PUSH1 0x20 SWAP2 PUSH1 0x5 SHL ADD ADD SWAP1 JUMP INVALID LOG2 PUSH5 0x6970667358 0x22 SLT KECCAK256 0xC0 SWAP9 PUSH12 0xBF03F2A703D13F061D13567E 0xD8 0x5D 0xCF 0x22 SWAP1 PUSH23 0x1B2D1EB681BE7DEC1FEFFA64736F6C6343000814003300 "},"methodIdentifiers":{"closeTrade(uint256,uint256)":"73b1caa3","getRecentTrades(uint256)":"c63877eb","getTrade(uint256)":"2db25e05","getUserStats(address)":"4e43603a","getUserTrades(address)":"927c7742","globalTradeCount()":"33ea4b78","openTrade(string,uint8,uint256,uint256,uint8,string)":"69f504a8","totalPnL(address)":"0a057603","totalTrades(address)":"61529043","trades(uint256)":"1e6c598e","userTrades(address,uint256)":"b1b1ffab","winningTrades(address)":"d4290e99"}}}}}