{"project/contracts/SignalRegistry.sol":{"SignalRegistry":{"abi":[{"anonymous":false,"inputs":[{"indexed":true,"internalType":"address","name":"user","type":"address"},{"indexed":false,"internalType":"string","name":"pair","type":"string"},{"indexed":false,"internalType":"string","name":"verdict","type":"string"},{"indexed":false,"internalType":"uint8","name":"confidence","type":"uint8"},{"indexed":true,"internalType":"uint256","name":"signalId","type":"uint256"}],"name":"SignalRecorded","type":"event"},{"inputs":[{"internalType":"uint256","name":"id","type":"uint256"}],"name":"getSignal","outputs":[{"components":[{"internalType":"address","name":"user","type":"address"},{"internalType":"string","name":"pair","type":"string"},{"internalType":"string","name":"verdict","type":"string"},{"internalType":"uint8","name":"confidence","type":"uint8"},{"internalType":"string","name":"riskLevel","type":"string"},{"internalType":"bool","name":"riskApproved","type":"bool"},{"internalType":"uint256","name":"timestamp","type":"uint256"}],"internalType":"struct SignalRegistry.Signal","name":"","type":"tuple"}],"stateMutability":"view","type":"function"},{"inputs":[{"internalType":"address","name":"user","type":"address"}],"name":"getUserSignals","outputs":[{"internalType":"uint256[]","name":"","type":"uint256[]"}],"stateMutability":"view","type":"function"},{"inputs":[{"internalType":"string","name":"pair","type":"string"},{"internalType":"string","name":"verdict","type":"string"},{"internalType":"uint8","name":"confidence","type":"uint8"},{"internalType":"string","name":"riskLevel","type":"string"},{"internalType":"bool","name":"riskApproved","type":"bool"}],"name":"recordSignal","outputs":[{"internalType":"uint256","name":"","type":"uint256"}],"stateMutability":"nonpayable","type":"function"},{"inputs":[{"internalType":"uint256","name":"","type":"uint256"}],"name":"signals","outputs":[{"internalType":"address","name":"user","type":"address"},{"internalType":"string","name":"pair","type":"string"},{"internalType":"string","name":"verdict","type":"string"},{"internalType":"uint8","name":"confidence","type":"uint8"},{"internalType":"string","name":"riskLevel","type":"string"},{"internalType":"bool","name":"riskApproved","type":"bool"},{"internalType":"uint256","name":"timestamp","type":"uint256"}],"stateMutability":"view","type":"function"},{"inputs":[],"name":"totalSignals","outputs":[{"internalType":"uint256","name":"","type":"uint256"}],"stateMutability":"view","type":"function"},{"inputs":[{"internalType":"address","name":"","type":"address"},{"internalType":"uint256","name":"","type":"uint256"}],"name":"userSignals","outputs":[{"internalType":"uint256","name":"","type":"uint256"}],"stateMutability":"view","type":"function"}],"evm":{"bytecode":{"linkReferences":{},"object":"6080806040523461001657610b52908161001b8239f35b5f80fdfe6080806040526004361015610012575f80fd5b5f3560e01c9081631ab18dfd146108cc5750806347c740cd1461080b5780634d694fcf14610763578063828e58e21461062157806383856d62146105ca5763dc4ecea21461005e575f80fd5b346105c65760a03660031901126105c65760043567ffffffffffffffff81116105c65761008f903690600401610ac6565b60243567ffffffffffffffff81116105c6576100af903690600401610ac6565b906044359060ff821682036105c65760643567ffffffffffffffff81116105c6576100de903690600401610ac6565b91608435928315158094036105c6575f5493604051906100fd8261096a565b338252602082019285845287604084015260ff85166060840152608083015260a08201524260c0820152600160401b85101561034f57600185015f55610142856108e5565b9290926105b357815183546001600160a01b0319166001600160a01b03919091161783555180519067ffffffffffffffff821161034f5781906101886001860154610932565b601f8111610563575b50602090601f83116001146104f5575f926104ea575b50508160011b915f199060031b1c19161760018301555b604081015180519067ffffffffffffffff821161034f5781906101e46002860154610932565b601f811161049a575b50602090601f831160011461042c575f92610421575b50508160011b915f199060031b1c19161760028301555b6003820160ff60608301511660ff19825416179055608081015180519067ffffffffffffffff821161034f576102536004850154610932565b601f81116103dd575b50602090601f831160011461036e5791806006949260c0945f92610363575b50508160011b915f199060031b1c19161760048501555b6005840160a0820151151560ff801983541691161790550151910155335f52600160205260405f2093845492600160401b84101561034f5760ff61033a7f6a5648fd41c85d7e2c076d688fbd361f1af963fe8928dbdcb07f0de3e21abb84936103048760209a60018b9a018155610a9d565b81549060031b9089821b915f19901b191617905561032d60405194606086526060860190610a49565b908482038a860152610a49565b931660408201528033930390a3604051908152f35b634e487b7160e01b5f52604160045260245ffd5b015190505f8061027b565b90601f19831691600486015f5260205f20925f5b8181106103c5575092600192859260c09660069896106103ad575b505050811b016004850155610292565b01515f1960f88460031b161c191690555f808061039d565b92936020600181928786015181550195019301610382565b600485015f5260205f20601f840160051c81016020851061041a575b601f830160051c8201811061040f57505061025c565b5f81556001016103f9565b50806103f9565b015190505f80610203565b9250600285015f5260205f20905f935b601f198416851061047f576001945083601f19811610610467575b505050811b01600283015561021a565b01515f1960f88460031b161c191690555f8080610457565b8181015183556020948501946001909301929091019061043c565b909150600285015f5260205f20601f840160051c8101602085106104e3575b90849392915b601f830160051c820181106104d55750506101ed565b5f81558594506001016104bf565b50806104b9565b015190505f806101a7565b9250600185015f5260205f20905f935b601f1984168510610548576001945083601f19811610610530575b505050811b0160018301556101be565b01515f1960f88460031b161c191690555f8080610520565b81810151835560209485019460019093019290910190610505565b909150600185015f5260205f20601f840160051c8101602085106105ac575b90849392915b601f830160051c8201811061059e575050610191565b5f8155859450600101610588565b5080610582565b634e487b7160e01b5f525f60045260245ffd5b5f80fd5b346105c65760403660031901126105c6576105e3610a87565b6001600160a01b03165f908152600160205260409020805460243591908210156105c65760209161061391610a9d565b90546040519160031b1c8152f35b346105c65760203660031901126105c65761075060206040516106438161096a565b5f81525f60c0606092838582015283604082015282848201528360808201528260a082015201526106756004356108e5565b509060405193849283926106888461096a565b8360ff61073860018060a01b038086541684526107246106aa600188016109a8565b8b86019081526106bc600289016109a8565b926040870193845260c060068760038c0154169a8a8a019b8c5260806106e4600483016109a8565b9a01998a5260a0896005830154169f019e8f901515905201549b019a8b526040519d8e9d8e52511660208d01525160e060408d01526101008c0190610a49565b9051601f1995868c840301908c0152610a49565b935116608088015251908683030160a0870152610a49565b9151151560c08401525160e08301520390f35b346105c6576020806003193601126105c6576001600160a01b03610785610a87565b165f5260019081815260405f2091604051918281855491828152019081955f52825f20905f5b8181106107f857505050836107c1910384610986565b6040519281840190828552518091526040840194915f5b8281106107e55785870386f35b83518752958101959281019284016107d8565b82548452928401929185019185016107ab565b346105c65760203660031901126105c6576004355f548110156105c657610831906108e5565b5080546001600160a01b0316610849600183016109a8565b91610856600282016109a8565b6108bb60ff60038401541661086d600485016109a8565b6108a8600660ff6005880154169601549461089a604051998a998a5260e060208b015260e08a0190610a49565b9088820360408a0152610a49565b9160608701528582036080870152610a49565b91151560a084015260c08301520390f35b346105c6575f3660031901126105c6576020905f548152f35b905f91825481101561091e57600790838052027f290decd9548b62a8d60345a988386fc84ba6bc95484008f6362f93160ef3e563019190565b634e487b7160e01b83526032600452602483fd5b90600182811c92168015610960575b602083101461094c57565b634e487b7160e01b5f52602260045260245ffd5b91607f1691610941565b60e0810190811067ffffffffffffffff82111761034f57604052565b90601f8019910116810190811067ffffffffffffffff82111761034f57604052565b9060405191825f8254926109bb84610932565b9081845260019485811690815f14610a2657506001146109e6575b50506109e492500383610986565b565b909391505f52602090815f20935f915b818310610a0e5750506109e493508201015f806109d6565b855488840185015294850194879450918301916109f6565b9150506109e494506020925060ff191682840152151560051b8201015f806109d6565b91908251928382525f5b848110610a73575050825f602080949584010152601f8019910116010190565b602081830181015184830182015201610a53565b600435906001600160a01b03821682036105c657565b8054821015610ab2575f5260205f2001905f90565b634e487b7160e01b5f52603260045260245ffd5b81601f820112156105c65780359067ffffffffffffffff821161034f5760405192610afb601f8401601f191660200185610986565b828452602083830101116105c657815f92602080930183860137830101529056fea26469706673582212208eb00157dc4fe7c0b4ce8b804893dd9bead913c0f79b38b18721bfa057d8f8ef64736f6c63430008140033","opcodes":"PUSH1 0x80 DUP1 PUSH1 0x40 MSTORE CALLVALUE PUSH2 0x16 JUMPI PUSH2 0xB52 SWAP1 DUP2 PUSH2 0x1B DUP3 CODECOPY RETURN JUMPDEST PUSH0 DUP1 REVERT INVALID PUSH1 0x80 DUP1 PUSH1 0x40 MSTORE PUSH1 0x4 CALLDATASIZE LT ISZERO PUSH2 0x12 JUMPI PUSH0 DUP1 REVERT JUMPDEST PUSH0 CALLDATALOAD PUSH1 0xE0 SHR SWAP1 DUP2 PUSH4 0x1AB18DFD EQ PUSH2 0x8CC JUMPI POP DUP1 PUSH4 0x47C740CD EQ PUSH2 0x80B JUMPI DUP1 PUSH4 0x4D694FCF EQ PUSH2 0x763 JUMPI DUP1 PUSH4 0x828E58E2 EQ PUSH2 0x621 JUMPI DUP1 PUSH4 0x83856D62 EQ PUSH2 0x5CA JUMPI PUSH4 0xDC4ECEA2 EQ PUSH2 0x5E JUMPI PUSH0 DUP1 REVERT JUMPDEST CALLVALUE PUSH2 0x5C6 JUMPI PUSH1 0xA0 CALLDATASIZE PUSH1 0x3 NOT ADD SLT PUSH2 0x5C6 JUMPI PUSH1 0x4 CALLDATALOAD PUSH8 0xFFFFFFFFFFFFFFFF DUP2 GT PUSH2 0x5C6 JUMPI PUSH2 0x8F SWAP1 CALLDATASIZE SWAP1 PUSH1 0x4 ADD PUSH2 0xAC6 JUMP JUMPDEST PUSH1 0x24 CALLDATALOAD PUSH8 0xFFFFFFFFFFFFFFFF DUP2 GT PUSH2 0x5C6 JUMPI PUSH2 0xAF SWAP1 CALLDATASIZE SWAP1 PUSH1 0x4 ADD PUSH2 0xAC6 JUMP JUMPDEST SWAP1 PUSH1 0x44 CALLDATALOAD SWAP1 PUSH1 0xFF DUP3 AND DUP3 SUB PUSH2 0x5C6 JUMPI PUSH1 0x64 CALLDATALOAD PUSH8 0xFFFFFFFFFFFFFFFF DUP2 GT PUSH2 0x5C6 JUMPI PUSH2 0xDE SWAP1 CALLDATASIZE SWAP1 PUSH1 0x4 ADD PUSH2 0xAC6 JUMP JUMPDEST SWAP2 PUSH1 0x84 CALLDATALOAD SWAP3 DUP4 ISZERO ISZERO DUP1 SWAP5 SUB PUSH2 0x5C6 JUMPI PUSH0 SLOAD SWAP4 PUSH1 0x40 MLOAD SWAP1 PUSH2 0xFD DUP3 PUSH2 0x96A JUMP JUMPDEST CALLER DUP3 MSTORE PUSH1 0x20 DUP3 ADD SWAP3 DUP6 DUP5 MSTORE DUP8 PUSH1 0x40 DUP5 ADD MSTORE PUSH1 0xFF DUP6 AND PUSH1 0x60 DUP5 ADD MSTORE PUSH1 0x80 DUP4 ADD MSTORE PUSH1 0xA0 DUP3 ADD MSTORE TIMESTAMP PUSH1 0xC0 DUP3 ADD MSTORE PUSH1 0x1 PUSH1 0x40 SHL DUP6 LT ISZERO PUSH2 0x34F JUMPI PUSH1 0x1 DUP6 ADD PUSH0 SSTORE PUSH2 0x142 DUP6 PUSH2 0x8E5 JUMP JUMPDEST SWAP3 SWAP1 SWAP3 PUSH2 0x5B3 JUMPI DUP2 MLOAD DUP4 SLOAD PUSH1 0x1 PUSH1 0x1 PUSH1 0xA0 SHL SUB NOT AND PUSH1 0x1 PUSH1 0x1 PUSH1 0xA0 SHL SUB SWAP2 SWAP1 SWAP2 AND OR DUP4 SSTORE MLOAD DUP1 MLOAD SWAP1 PUSH8 0xFFFFFFFFFFFFFFFF DUP3 GT PUSH2 0x34F JUMPI DUP2 SWAP1 PUSH2 0x188 PUSH1 0x1 DUP7 ADD SLOAD PUSH2 0x932 JUMP JUMPDEST PUSH1 0x1F DUP2 GT PUSH2 0x563 JUMPI JUMPDEST POP PUSH1 0x20 SWAP1 PUSH1 0x1F DUP4 GT PUSH1 0x1 EQ PUSH2 0x4F5 JUMPI PUSH0 SWAP3 PUSH2 0x4EA JUMPI JUMPDEST POP POP DUP2 PUSH1 0x1 SHL SWAP2 PUSH0 NOT SWAP1 PUSH1 0x3 SHL SHR NOT AND OR PUSH1 0x1 DUP4 ADD SSTORE JUMPDEST PUSH1 0x40 DUP2 ADD MLOAD DUP1 MLOAD SWAP1 PUSH8 0xFFFFFFFFFFFFFFFF DUP3 GT PUSH2 0x34F JUMPI DUP2 SWAP1 PUSH2 0x1E4 PUSH1 0x2 DUP7 ADD SLOAD PUSH2 0x932 JUMP JUMPDEST PUSH1 0x1F DUP2 GT PUSH2 0x49A JUMPI JUMPDEST POP PUSH1 0x20 SWAP1 PUSH1 0x1F DUP4 GT PUSH1 0x1 EQ PUSH2 0x42C JUMPI PUSH0 SWAP3 PUSH2 0x421 JUMPI JUMPDEST POP POP DUP2 PUSH1 0x1 SHL SWAP2 PUSH0 NOT SWAP1 PUSH1 0x3 SHL SHR NOT AND OR PUSH1 0x2 DUP4 ADD SSTORE JUMPDEST PUSH1 0x3 DUP3 ADD PUSH1 0xFF PUSH1 0x60 DUP4 ADD MLOAD AND PUSH1 0xFF NOT DUP3 SLOAD AND OR SWAP1 SSTORE PUSH1 0x80 DUP2 ADD MLOAD DUP1 MLOAD SWAP1 PUSH8 0xFFFFFFFFFFFFFFFF DUP3 GT PUSH2 0x34F JUMPI PUSH2 0x253 PUSH1 0x4 DUP6 ADD SLOAD PUSH2 0x932 JUMP JUMPDEST PUSH1 0x1F DUP2 GT PUSH2 0x3DD JUMPI JUMPDEST POP PUSH1 0x20 SWAP1 PUSH1 0x1F DUP4 GT PUSH1 0x1 EQ PUSH2 0x36E JUMPI SWAP2 DUP1 PUSH1 0x6 SWAP5 SWAP3 PUSH1 0xC0 SWAP5 PUSH0 SWAP3 PUSH2 0x363 JUMPI JUMPDEST POP POP DUP2 PUSH1 0x1 SHL SWAP2 PUSH0 NOT SWAP1 PUSH1 0x3 SHL SHR NOT AND OR PUSH1 0x4 DUP6 ADD SSTORE JUMPDEST PUSH1 0x5 DUP5 ADD PUSH1 0xA0 DUP3 ADD MLOAD ISZERO ISZERO PUSH1 0xFF DUP1 NOT DUP4 SLOAD AND SWAP2 AND OR SWAP1 SSTORE ADD MLOAD SWAP2 ADD SSTORE CALLER PUSH0 MSTORE PUSH1 0x1 PUSH1 0x20 MSTORE PUSH1 0x40 PUSH0 KECCAK256 SWAP4 DUP5 SLOAD SWAP3 PUSH1 0x1 PUSH1 0x40 SHL DUP5 LT ISZERO PUSH2 0x34F JUMPI PUSH1 0xFF PUSH2 0x33A PUSH32 0x6A5648FD41C85D7E2C076D688FBD361F1AF963FE8928DBDCB07F0DE3E21ABB84 SWAP4 PUSH2 0x304 DUP8 PUSH1 0x20 SWAP11 PUSH1 0x1 DUP12 SWAP11 ADD DUP2 SSTORE PUSH2 0xA9D JUMP JUMPDEST DUP2 SLOAD SWAP1 PUSH1 0x3 SHL SWAP1 DUP10 DUP3 SHL SWAP2 PUSH0 NOT SWAP1 SHL NOT AND OR SWAP1 SSTORE PUSH2 0x32D PUSH1 0x40 MLOAD SWAP5 PUSH1 0x60 DUP7 MSTORE PUSH1 0x60 DUP7 ADD SWAP1 PUSH2 0xA49 JUMP JUMPDEST SWAP1 DUP5 DUP3 SUB DUP11 DUP7 ADD MSTORE PUSH2 0xA49 JUMP JUMPDEST SWAP4 AND PUSH1 0x40 DUP3 ADD MSTORE DUP1 CALLER SWAP4 SUB SWAP1 LOG3 PUSH1 0x40 MLOAD SWAP1 DUP2 MSTORE RETURN JUMPDEST PUSH4 0x4E487B71 PUSH1 0xE0 SHL PUSH0 MSTORE PUSH1 0x41 PUSH1 0x4 MSTORE PUSH1 0x24 PUSH0 REVERT JUMPDEST ADD MLOAD SWAP1 POP PUSH0 DUP1 PUSH2 0x27B JUMP JUMPDEST SWAP1 PUSH1 0x1F NOT DUP4 AND SWAP2 PUSH1 0x4 DUP7 ADD PUSH0 MSTORE PUSH1 0x20 PUSH0 KECCAK256 SWAP3 PUSH0 JUMPDEST DUP2 DUP2 LT PUSH2 0x3C5 JUMPI POP SWAP3 PUSH1 0x1 SWAP3 DUP6 SWAP3 PUSH1 0xC0 SWAP7 PUSH1 0x6 SWAP9 SWAP7 LT PUSH2 0x3AD JUMPI JUMPDEST POP POP POP DUP2 SHL ADD PUSH1 0x4 DUP6 ADD SSTORE PUSH2 0x292 JUMP JUMPDEST ADD MLOAD PUSH0 NOT PUSH1 0xF8 DUP5 PUSH1 0x3 SHL AND SHR NOT AND SWAP1 SSTORE PUSH0 DUP1 DUP1 PUSH2 0x39D JUMP JUMPDEST SWAP3 SWAP4 PUSH1 0x20 PUSH1 0x1 DUP2 SWAP3 DUP8 DUP7 ADD MLOAD DUP2 SSTORE ADD SWAP6 ADD SWAP4 ADD PUSH2 0x382 JUMP JUMPDEST PUSH1 0x4 DUP6 ADD PUSH0 MSTORE PUSH1 0x20 PUSH0 KECCAK256 PUSH1 0x1F DUP5 ADD PUSH1 0x5 SHR DUP2 ADD PUSH1 0x20 DUP6 LT PUSH2 0x41A JUMPI JUMPDEST PUSH1 0x1F DUP4 ADD PUSH1 0x5 SHR DUP3 ADD DUP2 LT PUSH2 0x40F JUMPI POP POP PUSH2 0x25C JUMP JUMPDEST PUSH0 DUP2 SSTORE PUSH1 0x1 ADD PUSH2 0x3F9 JUMP JUMPDEST POP DUP1 PUSH2 0x3F9 JUMP JUMPDEST ADD MLOAD SWAP1 POP PUSH0 DUP1 PUSH2 0x203 JUMP JUMPDEST SWAP3 POP PUSH1 0x2 DUP6 ADD PUSH0 MSTORE PUSH1 0x20 PUSH0 KECCAK256 SWAP1 PUSH0 SWAP4 JUMPDEST PUSH1 0x1F NOT DUP5 AND DUP6 LT PUSH2 0x47F JUMPI PUSH1 0x1 SWAP5 POP DUP4 PUSH1 0x1F NOT DUP2 AND LT PUSH2 0x467 JUMPI JUMPDEST POP POP POP DUP2 SHL ADD PUSH1 0x2 DUP4 ADD SSTORE PUSH2 0x21A JUMP JUMPDEST ADD MLOAD PUSH0 NOT PUSH1 0xF8 DUP5 PUSH1 0x3 SHL AND SHR NOT AND SWAP1 SSTORE PUSH0 DUP1 DUP1 PUSH2 0x457 JUMP JUMPDEST DUP2 DUP2 ADD MLOAD DUP4 SSTORE PUSH1 0x20 SWAP5 DUP6 ADD SWAP5 PUSH1 0x1 SWAP1 SWAP4 ADD SWAP3 SWAP1 SWAP2 ADD SWAP1 PUSH2 0x43C JUMP JUMPDEST SWAP1 SWAP2 POP PUSH1 0x2 DUP6 ADD PUSH0 MSTORE PUSH1 0x20 PUSH0 KECCAK256 PUSH1 0x1F DUP5 ADD PUSH1 0x5 SHR DUP2 ADD PUSH1 0x20 DUP6 LT PUSH2 0x4E3 JUMPI JUMPDEST SWAP1 DUP5 SWAP4 SWAP3 SWAP2 JUMPDEST PUSH1 0x1F DUP4 ADD PUSH1 0x5 SHR DUP3 ADD DUP2 LT PUSH2 0x4D5 JUMPI POP POP PUSH2 0x1ED JUMP JUMPDEST PUSH0 DUP2 SSTORE DUP6 SWAP5 POP PUSH1 0x1 ADD PUSH2 0x4BF JUMP JUMPDEST POP DUP1 PUSH2 0x4B9 JUMP JUMPDEST ADD MLOAD SWAP1 POP PUSH0 DUP1 PUSH2 0x1A7 JUMP JUMPDEST SWAP3 POP PUSH1 0x1 DUP6 ADD PUSH0 MSTORE PUSH1 0x20 PUSH0 KECCAK256 SWAP1 PUSH0 SWAP4 JUMPDEST PUSH1 0x1F NOT DUP5 AND DUP6 LT PUSH2 0x548 JUMPI PUSH1 0x1 SWAP5 POP DUP4 PUSH1 0x1F NOT DUP2 AND LT PUSH2 0x530 JUMPI JUMPDEST POP POP POP DUP2 SHL ADD PUSH1 0x1 DUP4 ADD SSTORE PUSH2 0x1BE JUMP JUMPDEST ADD MLOAD PUSH0 NOT PUSH1 0xF8 DUP5 PUSH1 0x3 SHL AND SHR NOT AND SWAP1 SSTORE PUSH0 DUP1 DUP1 PUSH2 0x520 JUMP JUMPDEST DUP2 DUP2 ADD MLOAD DUP4 SSTORE PUSH1 0x20 SWAP5 DUP6 ADD SWAP5 PUSH1 0x1 SWAP1 SWAP4 ADD SWAP3 SWAP1 SWAP2 ADD SWAP1 PUSH2 0x505 JUMP JUMPDEST SWAP1 SWAP2 POP PUSH1 0x1 DUP6 ADD PUSH0 MSTORE PUSH1 0x20 PUSH0 KECCAK256 PUSH1 0x1F DUP5 ADD PUSH1 0x5 SHR DUP2 ADD PUSH1 0x20 DUP6 LT PUSH2 0x5AC JUMPI JUMPDEST SWAP1 DUP5 SWAP4 SWAP3 SWAP2 JUMPDEST PUSH1 0x1F DUP4 ADD PUSH1 0x5 SHR DUP3 ADD DUP2 LT PUSH2 0x59E JUMPI POP POP PUSH2 0x191 JUMP JUMPDEST PUSH0 DUP2 SSTORE DUP6 SWAP5 POP PUSH1 0x1 ADD PUSH2 0x588 JUMP JUMPDEST POP DUP1 PUSH2 0x582 JUMP JUMPDEST PUSH4 0x4E487B71 PUSH1 0xE0 SHL PUSH0 MSTORE PUSH0 PUSH1 0x4 MSTORE PUSH1 0x24 PUSH0 REVERT JUMPDEST PUSH0 DUP1 REVERT JUMPDEST CALLVALUE PUSH2 0x5C6 JUMPI PUSH1 0x40 CALLDATASIZE PUSH1 0x3 NOT ADD SLT PUSH2 0x5C6 JUMPI PUSH2 0x5E3 PUSH2 0xA87 JUMP JUMPDEST PUSH1 0x1 PUSH1 0x1 PUSH1 0xA0 SHL SUB AND PUSH0 SWAP1 DUP2 MSTORE PUSH1 0x1 PUSH1 0x20 MSTORE PUSH1 0x40 SWAP1 KECCAK256 DUP1 SLOAD PUSH1 0x24 CALLDATALOAD SWAP2 SWAP1 DUP3 LT ISZERO PUSH2 0x5C6 JUMPI PUSH1 0x20 SWAP2 PUSH2 0x613 SWAP2 PUSH2 0xA9D JUMP JUMPDEST SWAP1 SLOAD PUSH1 0x40 MLOAD SWAP2 PUSH1 0x3 SHL SHR DUP2 MSTORE RETURN JUMPDEST CALLVALUE PUSH2 0x5C6 JUMPI PUSH1 0x20 CALLDATASIZE PUSH1 0x3 NOT ADD SLT PUSH2 0x5C6 JUMPI PUSH2 0x750 PUSH1 0x20 PUSH1 0x40 MLOAD PUSH2 0x643 DUP2 PUSH2 0x96A JUMP JUMPDEST PUSH0 DUP2 MSTORE PUSH0 PUSH1 0xC0 PUSH1 0x60 SWAP3 DUP4 DUP6 DUP3 ADD MSTORE DUP4 PUSH1 0x40 DUP3 ADD MSTORE DUP3 DUP5 DUP3 ADD MSTORE DUP4 PUSH1 0x80 DUP3 ADD MSTORE DUP3 PUSH1 0xA0 DUP3 ADD MSTORE ADD MSTORE PUSH2 0x675 PUSH1 0x4 CALLDATALOAD PUSH2 0x8E5 JUMP JUMPDEST POP SWAP1 PUSH1 0x40 MLOAD SWAP4 DUP5 SWAP3 DUP4 SWAP3 PUSH2 0x688 DUP5 PUSH2 0x96A JUMP JUMPDEST DUP4 PUSH1 0xFF PUSH2 0x738 PUSH1 0x1 DUP1 PUSH1 0xA0 SHL SUB DUP1 DUP7 SLOAD AND DUP5 MSTORE PUSH2 0x724 PUSH2 0x6AA PUSH1 0x1 DUP9 ADD PUSH2 0x9A8 JUMP JUMPDEST DUP12 DUP7 ADD SWAP1 DUP2 MSTORE PUSH2 0x6BC PUSH1 0x2 DUP10 ADD PUSH2 0x9A8 JUMP JUMPDEST SWAP3 PUSH1 0x40 DUP8 ADD SWAP4 DUP5 MSTORE PUSH1 0xC0 PUSH1 0x6 DUP8 PUSH1 0x3 DUP13 ADD SLOAD AND SWAP11 DUP11 DUP11 ADD SWAP12 DUP13 MSTORE PUSH1 0x80 PUSH2 0x6E4 PUSH1 0x4 DUP4 ADD PUSH2 0x9A8 JUMP JUMPDEST SWAP11 ADD SWAP10 DUP11 MSTORE PUSH1 0xA0 DUP10 PUSH1 0x5 DUP4 ADD SLOAD AND SWAP16 ADD SWAP15 DUP16 SWAP1 ISZERO ISZERO SWAP1 MSTORE ADD SLOAD SWAP12 ADD SWAP11 DUP12 MSTORE PUSH1 0x40 MLOAD SWAP14 DUP15 SWAP14 DUP15 MSTORE MLOAD AND PUSH1 0x20 DUP14 ADD MSTORE MLOAD PUSH1 0xE0 PUSH1 0x40 DUP14 ADD MSTORE PUSH2 0x100 DUP13 ADD SWAP1 PUSH2 0xA49 JUMP JUMPDEST SWAP1 MLOAD PUSH1 0x1F NOT SWAP6 DUP7 DUP13 DUP5 SUB ADD SWAP1 DUP13 ADD MSTORE PUSH2 0xA49 JUMP JUMPDEST SWAP4 MLOAD AND PUSH1 0x80 DUP9 ADD MSTORE MLOAD SWAP1 DUP7 DUP4 SUB ADD PUSH1 0xA0 DUP8 ADD MSTORE PUSH2 0xA49 JUMP JUMPDEST SWAP2 MLOAD ISZERO ISZERO PUSH1 0xC0 DUP5 ADD MSTORE MLOAD PUSH1 0xE0 DUP4 ADD MSTORE SUB SWAP1 RETURN JUMPDEST CALLVALUE PUSH2 0x5C6 JUMPI PUSH1 0x20 DUP1 PUSH1 0x3 NOT CALLDATASIZE ADD SLT PUSH2 0x5C6 JUMPI PUSH1 0x1 PUSH1 0x1 PUSH1 0xA0 SHL SUB PUSH2 0x785 PUSH2 0xA87 JUMP JUMPDEST AND PUSH0 MSTORE PUSH1 0x1 SWAP1 DUP2 DUP2 MSTORE PUSH1 0x40 PUSH0 KECCAK256 SWAP2 PUSH1 0x40 MLOAD SWAP2 DUP3 DUP2 DUP6 SLOAD SWAP2 DUP3 DUP2 MSTORE ADD SWAP1 DUP2 SWAP6 PUSH0 MSTORE DUP3 PUSH0 KECCAK256 SWAP1 PUSH0 JUMPDEST DUP2 DUP2 LT PUSH2 0x7F8 JUMPI POP POP POP DUP4 PUSH2 0x7C1 SWAP2 SUB DUP5 PUSH2 0x986 JUMP JUMPDEST PUSH1 0x40 MLOAD SWAP3 DUP2 DUP5 ADD SWAP1 DUP3 DUP6 MSTORE MLOAD DUP1 SWAP2 MSTORE PUSH1 0x40 DUP5 ADD SWAP5 SWAP2 PUSH0 JUMPDEST DUP3 DUP2 LT PUSH2 0x7E5 JUMPI DUP6 DUP8 SUB DUP7 RETURN JUMPDEST DUP4 MLOAD DUP8 MSTORE SWAP6 DUP2 ADD SWAP6 SWAP3 DUP2 ADD SWAP3 DUP5 ADD PUSH2 0x7D8 JUMP JUMPDEST DUP3 SLOAD DUP5 MSTORE SWAP3 DUP5 ADD SWAP3 SWAP2 DUP6 ADD SWAP2 DUP6 ADD PUSH2 0x7AB JUMP JUMPDEST CALLVALUE PUSH2 0x5C6 JUMPI PUSH1 0x20 CALLDATASIZE PUSH1 0x3 NOT ADD SLT PUSH2 0x5C6 JUMPI PUSH1 0x4 CALLDATALOAD PUSH0 SLOAD DUP2 LT ISZERO PUSH2 0x5C6 JUMPI PUSH2 0x831 SWAP1 PUSH2 0x8E5 JUMP JUMPDEST POP DUP1 SLOAD PUSH1 0x1 PUSH1 0x1 PUSH1 0xA0 SHL SUB AND PUSH2 0x849 PUSH1 0x1 DUP4 ADD PUSH2 0x9A8 JUMP JUMPDEST SWAP2 PUSH2 0x856 PUSH1 0x2 DUP3 ADD PUSH2 0x9A8 JUMP JUMPDEST PUSH2 0x8BB PUSH1 0xFF PUSH1 0x3 DUP5 ADD SLOAD AND PUSH2 0x86D PUSH1 0x4 DUP6 ADD PUSH2 0x9A8 JUMP JUMPDEST PUSH2 0x8A8 PUSH1 0x6 PUSH1 0xFF PUSH1 0x5 DUP9 ADD SLOAD AND SWAP7 ADD SLOAD SWAP5 PUSH2 0x89A PUSH1 0x40 MLOAD SWAP10 DUP11 SWAP10 DUP11 MSTORE PUSH1 0xE0 PUSH1 0x20 DUP12 ADD MSTORE PUSH1 0xE0 DUP11 ADD SWAP1 PUSH2 0xA49 JUMP JUMPDEST SWAP1 DUP9 DUP3 SUB PUSH1 0x40 DUP11 ADD MSTORE PUSH2 0xA49 JUMP JUMPDEST SWAP2 PUSH1 0x60 DUP8 ADD MSTORE DUP6 DUP3 SUB PUSH1 0x80 DUP8 ADD MSTORE PUSH2 0xA49 JUMP JUMPDEST SWAP2 ISZERO ISZERO PUSH1 0xA0 DUP5 ADD MSTORE PUSH1 0xC0 DUP4 ADD MSTORE SUB SWAP1 RETURN JUMPDEST CALLVALUE PUSH2 0x5C6 JUMPI PUSH0 CALLDATASIZE PUSH1 0x3 NOT ADD SLT PUSH2 0x5C6 JUMPI PUSH1 0x20 SWAP1 PUSH0 SLOAD DUP2 MSTORE RETURN JUMPDEST SWAP1 PUSH0 SWAP2 DUP3 SLOAD DUP2 LT ISZERO PUSH2 0x91E JUMPI PUSH1 0x7 SWAP1 DUP4 DUP1 MSTORE MUL PUSH32 0x290DECD9548B62A8D60345A988386FC84BA6BC95484008F6362F93160EF3E563 ADD SWAP2 SWAP1 JUMP JUMPDEST PUSH4 0x4E487B71 PUSH1 0xE0 SHL DUP4 MSTORE PUSH1 0x32 PUSH1 0x4 MSTORE PUSH1 0x24 DUP4 REVERT JUMPDEST SWAP1 PUSH1 0x1 DUP3 DUP2 SHR SWAP3 AND DUP1 ISZERO PUSH2 0x960 JUMPI JUMPDEST PUSH1 0x20 DUP4 LT EQ PUSH2 0x94C JUMPI JUMP JUMPDEST PUSH4 0x4E487B71 PUSH1 0xE0 SHL PUSH0 MSTORE PUSH1 0x22 PUSH1 0x4 MSTORE PUSH1 0x24 PUSH0 REVERT JUMPDEST SWAP2 PUSH1 0x7F AND SWAP2 PUSH2 0x941 JUMP JUMPDEST PUSH1 0xE0 DUP2 ADD SWAP1 DUP2 LT PUSH8 0xFFFFFFFFFFFFFFFF DUP3 GT OR PUSH2 0x34F JUMPI PUSH1 0x40 MSTORE JUMP JUMPDEST SWAP1 PUSH1 0x1F DUP1 NOT SWAP2 ADD AND DUP2 ADD SWAP1 DUP2 LT PUSH8 0xFFFFFFFFFFFFFFFF DUP3 GT OR PUSH2 0x34F JUMPI PUSH1 0x40 MSTORE JUMP JUMPDEST SWAP1 PUSH1 0x40 MLOAD SWAP2 DUP3 PUSH0 DUP3 SLOAD SWAP3 PUSH2 0x9BB DUP5 PUSH2 0x932 JUMP JUMPDEST SWAP1 DUP2 DUP5 MSTORE PUSH1 0x1 SWAP5 DUP6 DUP2 AND SWAP1 DUP2 PUSH0 EQ PUSH2 0xA26 JUMPI POP PUSH1 0x1 EQ PUSH2 0x9E6 JUMPI JUMPDEST POP POP PUSH2 0x9E4 SWAP3 POP SUB DUP4 PUSH2 0x986 JUMP JUMPDEST JUMP JUMPDEST SWAP1 SWAP4 SWAP2 POP PUSH0 MSTORE PUSH1 0x20 SWAP1 DUP2 PUSH0 KECCAK256 SWAP4 PUSH0 SWAP2 JUMPDEST DUP2 DUP4 LT PUSH2 0xA0E JUMPI POP POP PUSH2 0x9E4 SWAP4 POP DUP3 ADD ADD PUSH0 DUP1 PUSH2 0x9D6 JUMP JUMPDEST DUP6 SLOAD DUP9 DUP5 ADD DUP6 ADD MSTORE SWAP5 DUP6 ADD SWAP5 DUP8 SWAP5 POP SWAP2 DUP4 ADD SWAP2 PUSH2 0x9F6 JUMP JUMPDEST SWAP2 POP POP PUSH2 0x9E4 SWAP5 POP PUSH1 0x20 SWAP3 POP PUSH1 0xFF NOT AND DUP3 DUP5 ADD MSTORE ISZERO ISZERO PUSH1 0x5 SHL DUP3 ADD ADD PUSH0 DUP1 PUSH2 0x9D6 JUMP JUMPDEST SWAP2 SWAP1 DUP3 MLOAD SWAP3 DUP4 DUP3 MSTORE PUSH0 JUMPDEST DUP5 DUP2 LT PUSH2 0xA73 JUMPI POP POP DUP3 PUSH0 PUSH1 0x20 DUP1 SWAP5 SWAP6 DUP5 ADD ADD MSTORE PUSH1 0x1F DUP1 NOT SWAP2 ADD AND ADD ADD SWAP1 JUMP JUMPDEST PUSH1 0x20 DUP2 DUP4 ADD DUP2 ADD MLOAD DUP5 DUP4 ADD DUP3 ADD MSTORE ADD PUSH2 0xA53 JUMP JUMPDEST PUSH1 0x4 CALLDATALOAD SWAP1 PUSH1 0x1 PUSH1 0x1 PUSH1 0xA0 SHL SUB DUP3 AND DUP3 SUB PUSH2 0x5C6 JUMPI JUMP JUMPDEST DUP1 SLOAD DUP3 LT ISZERO PUSH2 0xAB2 JUMPI PUSH0 MSTORE PUSH1 0x20 PUSH0 KECCAK256 ADD SWAP1 PUSH0 SWAP1 JUMP JUMPDEST PUSH4 0x4E487B71 PUSH1 0xE0 SHL PUSH0 MSTORE PUSH1 0x32 PUSH1 0x4 MSTORE PUSH1 0x24 PUSH0 REVERT JUMPDEST DUP2 PUSH1 0x1F DUP3 ADD SLT ISZERO PUSH2 0x5C6 JUMPI DUP1 CALLDATALOAD SWAP1 PUSH8 0xFFFFFFFFFFFFFFFF DUP3 GT PUSH2 0x34F JUMPI PUSH1 0x40 MLOAD SWAP3 PUSH2 0xAFB PUSH1 0x1F DUP5 ADD PUSH1 0x1F NOT AND PUSH1 0x20 ADD DUP6 PUSH2 0x986 JUMP JUMPDEST DUP3 DUP5 MSTORE PUSH1 0x20 DUP4 DUP4 ADD ADD GT PUSH2 0x5C6 JUMPI DUP2 PUSH0 SWAP3 PUSH1 0x20 DUP1 SWAP4 ADD DUP4 DUP7 ADD CALLDATACOPY DUP4 ADD ADD MSTORE SWAP1 JUMP INVALID LOG2 PUSH5 0x6970667358 0x22 SLT KECCAK256 DUP15 0xB0 ADD JUMPI 0xDC 0x4F 0xE7 0xC0 0xB4 0xCE DUP12 DUP1 BASEFEE SWAP4 0xDD SWAP12 0xEA 0xD9 SGT 0xC0 0xF7 SWAP12 CODESIZE 0xB1 DUP8 0x21 0xBF LOG0 JUMPI 0xD8 0xF8 0xEF PUSH5 0x736F6C6343 STOP ADDMOD EQ STOP CALLER "},"methodIdentifiers":{"getSignal(uint256)":"828e58e2","getUserSignals(address)":"4d694fcf","recordSignal(string,string,uint8,string,bool)":"dc4ecea2","signals(uint256)":"47c740cd","totalSignals()":"1ab18dfd","userSignals(address,uint256)":"83856d62"}}}}}