{
  "_format": "hh3-artifact-1",
  "contractName": "SignalRegistry",
  "sourceName": "contracts/SignalRegistry.sol",
  "abi": [
    {
      "anonymous": false,
      "inputs": [
        {
          "indexed": true,
          "internalType": "address",
          "name": "user",
          "type": "address"
        },
        {
          "indexed": false,
          "internalType": "string",
          "name": "pair",
          "type": "string"
        },
        {
          "indexed": false,
          "internalType": "string",
          "name": "verdict",
          "type": "string"
        },
        {
          "indexed": false,
          "internalType": "uint8",
          "name": "confidence",
          "type": "uint8"
        },
        {
          "indexed": true,
          "internalType": "uint256",
          "name": "signalId",
          "type": "uint256"
        }
      ],
      "name": "SignalRecorded",
      "type": "event"
    },
    {
      "inputs": [
        {
          "internalType": "uint256",
          "name": "id",
          "type": "uint256"
        }
      ],
      "name": "getSignal",
      "outputs": [
        {
          "components": [
            {
              "internalType": "address",
              "name": "user",
              "type": "address"
            },
            {
              "internalType": "string",
              "name": "pair",
              "type": "string"
            },
            {
              "internalType": "string",
              "name": "verdict",
              "type": "string"
            },
            {
              "internalType": "uint8",
              "name": "confidence",
              "type": "uint8"
            },
            {
              "internalType": "string",
              "name": "riskLevel",
              "type": "string"
            },
            {
              "internalType": "bool",
              "name": "riskApproved",
              "type": "bool"
            },
            {
              "internalType": "uint256",
              "name": "timestamp",
              "type": "uint256"
            }
          ],
          "internalType": "struct SignalRegistry.Signal",
          "name": "",
          "type": "tuple"
        }
      ],
      "stateMutability": "view",
      "type": "function"
    },
    {
      "inputs": [
        {
          "internalType": "address",
          "name": "user",
          "type": "address"
        }
      ],
      "name": "getUserSignals",
      "outputs": [
        {
          "internalType": "uint256[]",
          "name": "",
          "type": "uint256[]"
        }
      ],
      "stateMutability": "view",
      "type": "function"
    },
    {
      "inputs": [
        {
          "internalType": "string",
          "name": "pair",
          "type": "string"
        },
        {
          "internalType": "string",
          "name": "verdict",
          "type": "string"
        },
        {
          "internalType": "uint8",
          "name": "confidence",
          "type": "uint8"
        },
        {
          "internalType": "string",
          "name": "riskLevel",
          "type": "string"
        },
        {
          "internalType": "bool",
          "name": "riskApproved",
          "type": "bool"
        }
      ],
      "name": "recordSignal",
      "outputs": [
        {
          "internalType": "uint256",
          "name": "",
          "type": "uint256"
        }
      ],
      "stateMutability": "nonpayable",
      "type": "function"
    },
    {
      "inputs": [
        {
          "internalType": "uint256",
          "name": "",
          "type": "uint256"
        }
      ],
      "name": "signals",
      "outputs": [
        {
          "internalType": "address",
          "name": "user",
          "type": "address"
        },
        {
          "internalType": "string",
          "name": "pair",
          "type": "string"
        },
        {
          "internalType": "string",
          "name": "verdict",
          "type": "string"
        },
        {
          "internalType": "uint8",
          "name": "confidence",
          "type": "uint8"
        },
        {
          "internalType": "string",
          "name": "riskLevel",
          "type": "string"
        },
        {
          "internalType": "bool",
          "name": "riskApproved",
          "type": "bool"
        },
        {
          "internalType": "uint256",
          "name": "timestamp",
          "type": "uint256"
        }
      ],
      "stateMutability": "view",
      "type": "function"
    },
    {
      "inputs": [],
      "name": "totalSignals",
      "outputs": [
        {
          "internalType": "uint256",
          "name": "",
          "type": "uint256"
        }
      ],
      "stateMutability": "view",
      "type": "function"
    },
    {
      "inputs": [
        {
          "internalType": "address",
          "name": "",
          "type": "address"
        },
        {
          "internalType": "uint256",
          "name": "",
          "type": "uint256"
        }
      ],
      "name": "userSignals",
      "outputs": [
        {
          "internalType": "uint256",
          "name": "",
          "type": "uint256"
        }
      ],
      "stateMutability": "view",
      "type": "function"
    }
  ],
  "bytecode": "0x6080806040523461001657610b52908161001b8239f35b5f80fdfe6080806040526004361015610012575f80fd5b5f3560e01c9081631ab18dfd146108cc5750806347c740cd1461080b5780634d694fcf14610763578063828e58e21461062157806383856d62146105ca5763dc4ecea21461005e575f80fd5b346105c65760a03660031901126105c65760043567ffffffffffffffff81116105c65761008f903690600401610ac6565b60243567ffffffffffffffff81116105c6576100af903690600401610ac6565b906044359060ff821682036105c65760643567ffffffffffffffff81116105c6576100de903690600401610ac6565b91608435928315158094036105c6575f5493604051906100fd8261096a565b338252602082019285845287604084015260ff85166060840152608083015260a08201524260c0820152600160401b85101561034f57600185015f55610142856108e5565b9290926105b357815183546001600160a01b0319166001600160a01b03919091161783555180519067ffffffffffffffff821161034f5781906101886001860154610932565b601f8111610563575b50602090601f83116001146104f5575f926104ea575b50508160011b915f199060031b1c19161760018301555b604081015180519067ffffffffffffffff821161034f5781906101e46002860154610932565b601f811161049a575b50602090601f831160011461042c575f92610421575b50508160011b915f199060031b1c19161760028301555b6003820160ff60608301511660ff19825416179055608081015180519067ffffffffffffffff821161034f576102536004850154610932565b601f81116103dd575b50602090601f831160011461036e5791806006949260c0945f92610363575b50508160011b915f199060031b1c19161760048501555b6005840160a0820151151560ff801983541691161790550151910155335f52600160205260405f2093845492600160401b84101561034f5760ff61033a7f6a5648fd41c85d7e2c076d688fbd361f1af963fe8928dbdcb07f0de3e21abb84936103048760209a60018b9a018155610a9d565b81549060031b9089821b915f19901b191617905561032d60405194606086526060860190610a49565b908482038a860152610a49565b931660408201528033930390a3604051908152f35b634e487b7160e01b5f52604160045260245ffd5b015190505f8061027b565b90601f19831691600486015f5260205f20925f5b8181106103c5575092600192859260c09660069896106103ad575b505050811b016004850155610292565b01515f1960f88460031b161c191690555f808061039d565b92936020600181928786015181550195019301610382565b600485015f5260205f20601f840160051c81016020851061041a575b601f830160051c8201811061040f57505061025c565b5f81556001016103f9565b50806103f9565b015190505f80610203565b9250600285015f5260205f20905f935b601f198416851061047f576001945083601f19811610610467575b505050811b01600283015561021a565b01515f1960f88460031b161c191690555f8080610457565b8181015183556020948501946001909301929091019061043c565b909150600285015f5260205f20601f840160051c8101602085106104e3575b90849392915b601f830160051c820181106104d55750506101ed565b5f81558594506001016104bf565b50806104b9565b015190505f806101a7565b9250600185015f5260205f20905f935b601f1984168510610548576001945083601f19811610610530575b505050811b0160018301556101be565b01515f1960f88460031b161c191690555f8080610520565b81810151835560209485019460019093019290910190610505565b909150600185015f5260205f20601f840160051c8101602085106105ac575b90849392915b601f830160051c8201811061059e575050610191565b5f8155859450600101610588565b5080610582565b634e487b7160e01b5f525f60045260245ffd5b5f80fd5b346105c65760403660031901126105c6576105e3610a87565b6001600160a01b03165f908152600160205260409020805460243591908210156105c65760209161061391610a9d565b90546040519160031b1c8152f35b346105c65760203660031901126105c65761075060206040516106438161096a565b5f81525f60c0606092838582015283604082015282848201528360808201528260a082015201526106756004356108e5565b509060405193849283926106888461096a565b8360ff61073860018060a01b038086541684526107246106aa600188016109a8565b8b86019081526106bc600289016109a8565b926040870193845260c060068760038c0154169a8a8a019b8c5260806106e4600483016109a8565b9a01998a5260a0896005830154169f019e8f901515905201549b019a8b526040519d8e9d8e52511660208d01525160e060408d01526101008c0190610a49565b9051601f1995868c840301908c0152610a49565b935116608088015251908683030160a0870152610a49565b9151151560c08401525160e08301520390f35b346105c6576020806003193601126105c6576001600160a01b03610785610a87565b165f5260019081815260405f2091604051918281855491828152019081955f52825f20905f5b8181106107f857505050836107c1910384610986565b6040519281840190828552518091526040840194915f5b8281106107e55785870386f35b83518752958101959281019284016107d8565b82548452928401929185019185016107ab565b346105c65760203660031901126105c6576004355f548110156105c657610831906108e5565b5080546001600160a01b0316610849600183016109a8565b91610856600282016109a8565b6108bb60ff60038401541661086d600485016109a8565b6108a8600660ff6005880154169601549461089a604051998a998a5260e060208b015260e08a0190610a49565b9088820360408a0152610a49565b9160608701528582036080870152610a49565b91151560a084015260c08301520390f35b346105c6575f3660031901126105c6576020905f548152f35b905f91825481101561091e57600790838052027f290decd9548b62a8d60345a988386fc84ba6bc95484008f6362f93160ef3e563019190565b634e487b7160e01b83526032600452602483fd5b90600182811c92168015610960575b602083101461094c57565b634e487b7160e01b5f52602260045260245ffd5b91607f1691610941565b60e0810190811067ffffffffffffffff82111761034f57604052565b90601f8019910116810190811067ffffffffffffffff82111761034f57604052565b9060405191825f8254926109bb84610932565b9081845260019485811690815f14610a2657506001146109e6575b50506109e492500383610986565b565b909391505f52602090815f20935f915b818310610a0e5750506109e493508201015f806109d6565b855488840185015294850194879450918301916109f6565b9150506109e494506020925060ff191682840152151560051b8201015f806109d6565b91908251928382525f5b848110610a73575050825f602080949584010152601f8019910116010190565b602081830181015184830182015201610a53565b600435906001600160a01b03821682036105c657565b8054821015610ab2575f5260205f2001905f90565b634e487b7160e01b5f52603260045260245ffd5b81601f820112156105c65780359067ffffffffffffffff821161034f5760405192610afb601f8401601f191660200185610986565b828452602083830101116105c657815f92602080930183860137830101529056fea26469706673582212208eb00157dc4fe7c0b4ce8b804893dd9bead913c0f79b38b18721bfa057d8f8ef64736f6c63430008140033",
  "linkReferences": {},
  "deployedLinkReferences": {},
  "immutableReferences": {},
  "inputSourceName": "project/contracts/SignalRegistry.sol",
  "buildInfoId": "solc-0_8_20-6933cc20ea1d68ca794109e427874c21d2be3f4c"
}