{
  "_format": "hh3-artifact-1",
  "contractName": "PortfolioReport",
  "sourceName": "contracts/PortfolioReport.sol",
  "abi": [
    {
      "anonymous": false,
      "inputs": [
        {
          "indexed": true,
          "internalType": "uint256",
          "name": "reportId",
          "type": "uint256"
        },
        {
          "indexed": true,
          "internalType": "address",
          "name": "wallet",
          "type": "address"
        },
        {
          "indexed": false,
          "internalType": "uint256",
          "name": "totalValueUSDC",
          "type": "uint256"
        },
        {
          "indexed": false,
          "internalType": "uint8",
          "name": "overallHealth",
          "type": "uint8"
        },
        {
          "indexed": false,
          "internalType": "uint256",
          "name": "tokenCount",
          "type": "uint256"
        }
      ],
      "name": "ReportGenerated",
      "type": "event"
    },
    {
      "inputs": [
        {
          "internalType": "uint256",
          "name": "id",
          "type": "uint256"
        }
      ],
      "name": "getReport",
      "outputs": [
        {
          "internalType": "address",
          "name": "wallet",
          "type": "address"
        },
        {
          "internalType": "uint256",
          "name": "totalValueUSDC",
          "type": "uint256"
        },
        {
          "internalType": "uint8",
          "name": "overallHealth",
          "type": "uint8"
        },
        {
          "internalType": "string",
          "name": "healthLabel",
          "type": "string"
        },
        {
          "internalType": "uint256",
          "name": "sellCount",
          "type": "uint256"
        },
        {
          "internalType": "uint256",
          "name": "holdCount",
          "type": "uint256"
        },
        {
          "internalType": "uint256",
          "name": "addCount",
          "type": "uint256"
        },
        {
          "internalType": "uint256",
          "name": "createdAt",
          "type": "uint256"
        },
        {
          "internalType": "uint256",
          "name": "tokenCount",
          "type": "uint256"
        }
      ],
      "stateMutability": "view",
      "type": "function"
    },
    {
      "inputs": [
        {
          "internalType": "uint256",
          "name": "reportId",
          "type": "uint256"
        },
        {
          "internalType": "uint256",
          "name": "tokenIndex",
          "type": "uint256"
        }
      ],
      "name": "getReportToken",
      "outputs": [
        {
          "components": [
            {
              "internalType": "string",
              "name": "symbol",
              "type": "string"
            },
            {
              "internalType": "string",
              "name": "pair",
              "type": "string"
            },
            {
              "internalType": "uint256",
              "name": "balance",
              "type": "uint256"
            },
            {
              "internalType": "uint256",
              "name": "valueUSDC",
              "type": "uint256"
            },
            {
              "internalType": "enum PortfolioReport.TokenVerdict",
              "name": "verdict",
              "type": "uint8"
            },
            {
              "internalType": "uint8",
              "name": "confidence",
              "type": "uint8"
            },
            {
              "internalType": "string",
              "name": "reasoning",
              "type": "string"
            },
            {
              "internalType": "uint8",
              "name": "portfolioWeight",
              "type": "uint8"
            }
          ],
          "internalType": "struct PortfolioReport.TokenAnalysis",
          "name": "",
          "type": "tuple"
        }
      ],
      "stateMutability": "view",
      "type": "function"
    },
    {
      "inputs": [
        {
          "internalType": "address",
          "name": "user",
          "type": "address"
        }
      ],
      "name": "getUserReports",
      "outputs": [
        {
          "internalType": "uint256[]",
          "name": "",
          "type": "uint256[]"
        }
      ],
      "stateMutability": "view",
      "type": "function"
    },
    {
      "inputs": [],
      "name": "reportCount",
      "outputs": [
        {
          "internalType": "uint256",
          "name": "",
          "type": "uint256"
        }
      ],
      "stateMutability": "view",
      "type": "function"
    },
    {
      "inputs": [
        {
          "internalType": "uint256",
          "name": "",
          "type": "uint256"
        }
      ],
      "name": "reports",
      "outputs": [
        {
          "internalType": "uint256",
          "name": "id",
          "type": "uint256"
        },
        {
          "internalType": "address",
          "name": "wallet",
          "type": "address"
        },
        {
          "internalType": "uint256",
          "name": "totalValueUSDC",
          "type": "uint256"
        },
        {
          "internalType": "uint8",
          "name": "overallHealth",
          "type": "uint8"
        },
        {
          "internalType": "string",
          "name": "healthLabel",
          "type": "string"
        },
        {
          "internalType": "uint256",
          "name": "sellCount",
          "type": "uint256"
        },
        {
          "internalType": "uint256",
          "name": "holdCount",
          "type": "uint256"
        },
        {
          "internalType": "uint256",
          "name": "addCount",
          "type": "uint256"
        },
        {
          "internalType": "uint256",
          "name": "createdAt",
          "type": "uint256"
        }
      ],
      "stateMutability": "view",
      "type": "function"
    },
    {
      "inputs": [
        {
          "internalType": "uint256",
          "name": "totalValueUSDC",
          "type": "uint256"
        },
        {
          "internalType": "uint8",
          "name": "overallHealth",
          "type": "uint8"
        },
        {
          "internalType": "string",
          "name": "healthLabel",
          "type": "string"
        },
        {
          "internalType": "string[]",
          "name": "symbols",
          "type": "string[]"
        },
        {
          "internalType": "string[]",
          "name": "pairs",
          "type": "string[]"
        },
        {
          "internalType": "uint256[]",
          "name": "balances",
          "type": "uint256[]"
        },
        {
          "internalType": "uint256[]",
          "name": "valuesUSDC",
          "type": "uint256[]"
        },
        {
          "internalType": "uint8[]",
          "name": "verdicts",
          "type": "uint8[]"
        },
        {
          "internalType": "uint8[]",
          "name": "confidences",
          "type": "uint8[]"
        },
        {
          "internalType": "string[]",
          "name": "reasonings",
          "type": "string[]"
        },
        {
          "internalType": "uint8[]",
          "name": "weights",
          "type": "uint8[]"
        }
      ],
      "name": "saveReport",
      "outputs": [
        {
          "internalType": "uint256",
          "name": "",
          "type": "uint256"
        }
      ],
      "stateMutability": "nonpayable",
      "type": "function"
    },
    {
      "inputs": [
        {
          "internalType": "address",
          "name": "",
          "type": "address"
        },
        {
          "internalType": "uint256",
          "name": "",
          "type": "uint256"
        }
      ],
      "name": "userReports",
      "outputs": [
        {
          "internalType": "uint256",
          "name": "",
          "type": "uint256"
        }
      ],
      "stateMutability": "view",
      "type": "function"
    }
  ],
  "bytecode": "0x608080604052346100165761109f908161001b8239f35b5f80fdfe6080806040526004361015610012575f80fd5b5f3560e01c908163185c6f8414610caf5750806337fd932d14610b3c5780634e7f9b1914610a945780635a345e4614610a3d57806370a05afc146109955780637104b2b1146101125763c942adf714610069575f80fd5b3461010e57602036600319011261010e576004355f525f60205260405f20805460018060a01b0360018301541691600281015460ff600383015416916100b160048201610f6d565b926100f46005830154946006840154926009600786015495015495604051998a998a5260208a015260408901526060880152610120806080890152870190610cc9565b9360a086015260c085015260e08401526101008301520390f35b5f80fd5b3461010e5761016036600319011261010e5760243560ff8116810361010e576044356001600160401b03811161010e57610150903690600401610d83565b6064356001600160401b03811161010e5761016f903690600401610def565b906084356001600160401b03811161010e5761018f903690600401610def565b9160a4356001600160401b03811161010e576101af903690600401610e6f565b9260c4356001600160401b03811161010e576101cf903690600401610e6f565b9360e4356001600160401b03811161010e576101ef903690600401610ecd565b93610104356001600160401b03811161010e57610210903690600401610ecd565b610124356001600160401b03811161010e57610230903690600401610def565b96610144356001600160401b03811161010e57610251903690600401610ecd565b936002549561025f8761100e565b600255865f525f60205260405f209487865560018601336bffffffffffffffffffffffff60a01b82541617905560043560028701556003860160ff8d1660ff198254161790558051906001600160401b03821161066b5781906102c56004890154610f35565b601f8111610945575b50602090601f83116001146108d7575f926108cc575b50508160011b915f199060031b1c19161760048601555b4260098601555f975f995f985f9a5b83518c101561082f5760ff61031f8d85611030565b5116600381101561067f578c8f8180808f8194908f918f928f938f948f95610348888098611030565b519b61035391611030565b519961035e91611030565b519461036991611030565b519461037491611030565b5160ff169461038291611030565b519461038d91611030565b5160ff16946040519661039f88610d46565b87526020870152604086015260608501526103bd8560808601611044565b60a084015260c083015260e082015260088b0154600160401b81101561066b576001810160088d019081556103f29190611050565b61081c5781518051906001600160401b03821161066b5781906104158454610f35565b601f81116107cf575b50602090601f8311600114610767575f9261075c575b50508160011b915f199060031b1c19161781555b60208201518051906001600160401b03821161066b57819061046d6001850154610f35565b601f811161070c575b50602090601f831160011461069e575f92610693575b50508160011b915f199060031b1c19161760018201555b60408201516002820155606082015160038201556080820151600381101561067f576004820190815460ff61ff0060a087015160081b1692169061ffff19161717905560c08201518051906001600160401b03821161066b576105096005840154610f35565b601f8111610627575b50602090601f83116001146105b457928260e09360069360ff965f926105a9575b50508160011b915f199060031b1c19161760058201555b019201511660ff19825416179055600181145f1461057b575061056f6105759161100e565b9b61100e565b9a61030a565b9b9c909b6105955761058f6105759161100e565b9c61100e565b9b996105a36105759161100e565b9a61100e565b015190505f80610533565b90600584015f5260205f20915f5b601f198516811061060f57508360069360ff969360019360e097601f198116106105f7575b505050811b01600582015561054a565b01515f1960f88460031b161c191690555f80806105e7565b919260206001819286850151815501940192016105c2565b600584015f5260205f20601f840160051c810160208510610664575b601f830160051c82018110610659575050610512565b5f8155600101610643565b5080610643565b634e487b7160e01b5f52604160045260245ffd5b634e487b7160e01b5f52602160045260245ffd5b015190505f8061048c565b9250600184015f5260205f20905f935b601f19841685106106f1576001945083601f198116106106d9575b505050811b0160018201556104a3565b01515f1960f88460031b161c191690555f80806106c9565b818101518355602094850194600190930192909101906106ae565b909150600184015f5260205f20601f840160051c810160208510610755575b90849392915b601f830160051c82018110610747575050610476565b5f8155859450600101610731565b508061072b565b015190505f80610434565b9250835f5260205f20905f935b601f19841685106107b4576001945083601f1981161061079c575b505050811b018155610448565b01515f1960f88460031b161c191690555f808061078f565b81810151835560209485019460019093019290910190610774565b909150835f5260205f20601f840160051c810160208510610815575b90849392915b601f830160051c8201811061080757505061041e565b5f81558594506001016107f1565b50806107eb565b634e487b7160e01b5f525f60045260245ffd5b8e9192506007898e8d93600583015560068201550155335f52600160205260405f2092835493600160401b85101561066b5784610873916001602097018155610d1d565b81549060031b9085821b915f19901b19161790555160ff60405192600435845216848301526040820152817f413500b51a0ea82d0d7f2ea4bcb2e6b575ee972f05b36b16128f451d1b3d8ccf60603393a3604051908152f35b015190508d806102e4565b9250600488015f5260205f20905f935b601f198416851061092a576001945083601f19811610610912575b505050811b0160048601556102fb565b01515f1960f88460031b161c191690558d8080610902565b818101518355602094850194600190930192909101906108e7565b909150600488015f5260205f20601f840160051c81016020851061098e575b90849392915b601f830160051c820181106109805750506102ce565b5f815585945060010161096a565b5080610964565b3461010e5760208060031936011261010e576001600160a01b036109b7610d07565b165f5260019081815260405f2091604051918281855491828152019081955f52825f20905f5b818110610a2a57505050836109f3910384610d62565b6040519281840190828552518091526040840194915f5b828110610a175785870386f35b8351875295810195928101928401610a0a565b82548452928401929185019185016109dd565b3461010e57604036600319011261010e57610a56610d07565b6001600160a01b03165f9081526001602052604090208054602435919082101561010e57602091610a8691610d1d565b90546040519160031b1c8152f35b3461010e57602036600319011261010e576004355f525f60205260405f2060018060a01b0360018201541660028201549160ff600382015416906005810154916006820154600783015490610b1d600985015493610af9600460088801549701610f6d565b90604051998a998a5260208a015260408901526101208060608a0152880190610cc9565b94608087015260a086015260c085015260e08401526101008301520390f35b3461010e57604036600319011261010e57604051610b5981610d46565b5f60e060609283815283602082015282604082015282848201528260808201528260a08201528360c082015201526004355f525f602052610ba2602435600860405f2001611050565b5060405191610bb083610d46565b610bb982610f6d565b83526020610bc960018401610f6d565b8185019081526002840154604086019081526003850154908487019182526004860154916080880190610bff60ff851683611044565b60ff60a08a019460081c16845260ff6006610c1c60058b01610f6d565b9960c08c019a8b520154169660e08a01978852610c67610c516040519b898d52518c6101009a8b9101526101208d0190610cc9565b9651601f198c8903810160408e01529790610cc9565b9351908a01525160808901525192600384101561067f57879660ff610ca494819660a08b0152511660c089015251908783030160e0880152610cc9565b925116908301520390f35b3461010e575f36600319011261010e576020906002548152f35b91908251928382525f5b848110610cf3575050825f602080949584010152601f8019910116010190565b602081830181015184830182015201610cd3565b600435906001600160a01b038216820361010e57565b8054821015610d32575f5260205f2001905f90565b634e487b7160e01b5f52603260045260245ffd5b61010081019081106001600160401b0382111761066b57604052565b90601f801991011681019081106001600160401b0382111761066b57604052565b81601f8201121561010e578035906001600160401b03821161066b5760405192610db7601f8401601f191660200185610d62565b8284526020838301011161010e57815f926020809301838601378301015290565b6001600160401b03811161066b5760051b60200190565b9080601f8301121561010e57813590610e0782610dd8565b92610e156040519485610d62565b828452602092838086019160051b8301019280841161010e57848301915b848310610e435750505050505090565b82356001600160401b03811161010e578691610e6484848094890101610d83565b815201920191610e33565b81601f8201121561010e57803591610e8683610dd8565b92610e946040519485610d62565b808452602092838086019260051b82010192831161010e578301905b828210610ebe575050505090565b81358152908301908301610eb0565b81601f8201121561010e57803591610ee483610dd8565b92610ef26040519485610d62565b808452602092838086019260051b82010192831161010e578301905b828210610f1c575050505090565b813560ff8116810361010e578152908301908301610f0e565b90600182811c92168015610f63575b6020831014610f4f57565b634e487b7160e01b5f52602260045260245ffd5b91607f1691610f44565b9060405191825f825492610f8084610f35565b9081845260019485811690815f14610feb5750600114610fab575b5050610fa992500383610d62565b565b909391505f52602090815f20935f915b818310610fd3575050610fa993508201015f80610f9b565b85548884018501529485019487945091830191610fbb565b915050610fa994506020925060ff191682840152151560051b8201015f80610f9b565b5f19811461101c5760010190565b634e487b7160e01b5f52601160045260245ffd5b8051821015610d325760209160051b010190565b600382101561067f5752565b8054821015610d32575f52600760205f20910201905f9056fea26469706673582212202734f023d566844c89e214b2ab1b83fcea2c999ef983d8cccd8aef0e08a6cc3264736f6c63430008140033",
  "linkReferences": {},
  "deployedLinkReferences": {},
  "immutableReferences": {},
  "inputSourceName": "project/contracts/PortfolioReport.sol",
  "buildInfoId": "solc-0_8_20-6933cc20ea1d68ca794109e427874c21d2be3f4c"
}