{
  "_format": "hh3-artifact-1",
  "contractName": "AgentRegistry",
  "sourceName": "contracts/AgentRegistry.sol",
  "abi": [
    {
      "anonymous": false,
      "inputs": [
        {
          "indexed": true,
          "internalType": "uint256",
          "name": "agentId",
          "type": "uint256"
        },
        {
          "indexed": true,
          "internalType": "address",
          "name": "coordinator",
          "type": "address"
        },
        {
          "indexed": false,
          "internalType": "string",
          "name": "pair",
          "type": "string"
        },
        {
          "indexed": false,
          "internalType": "uint256",
          "name": "paidUSDC",
          "type": "uint256"
        }
      ],
      "name": "AgentHired",
      "type": "event"
    },
    {
      "anonymous": false,
      "inputs": [
        {
          "indexed": true,
          "internalType": "uint256",
          "name": "agentId",
          "type": "uint256"
        },
        {
          "indexed": true,
          "internalType": "address",
          "name": "owner",
          "type": "address"
        },
        {
          "indexed": false,
          "internalType": "string",
          "name": "name",
          "type": "string"
        },
        {
          "indexed": false,
          "internalType": "enum AgentRegistry.AgentType",
          "name": "agentType",
          "type": "uint8"
        },
        {
          "indexed": false,
          "internalType": "uint256",
          "name": "signalPrice",
          "type": "uint256"
        }
      ],
      "name": "AgentRegistered",
      "type": "event"
    },
    {
      "anonymous": false,
      "inputs": [
        {
          "indexed": true,
          "internalType": "uint256",
          "name": "agentId",
          "type": "uint256"
        },
        {
          "indexed": false,
          "internalType": "string",
          "name": "verdict",
          "type": "string"
        },
        {
          "indexed": false,
          "internalType": "bool",
          "name": "wasCorrect",
          "type": "bool"
        }
      ],
      "name": "SignalRecorded",
      "type": "event"
    },
    {
      "inputs": [],
      "name": "agentCount",
      "outputs": [
        {
          "internalType": "uint256",
          "name": "",
          "type": "uint256"
        }
      ],
      "stateMutability": "view",
      "type": "function"
    },
    {
      "inputs": [
        {
          "internalType": "uint256",
          "name": "",
          "type": "uint256"
        }
      ],
      "name": "agents",
      "outputs": [
        {
          "internalType": "uint256",
          "name": "id",
          "type": "uint256"
        },
        {
          "internalType": "address",
          "name": "owner",
          "type": "address"
        },
        {
          "internalType": "address",
          "name": "agentWallet",
          "type": "address"
        },
        {
          "internalType": "string",
          "name": "name",
          "type": "string"
        },
        {
          "internalType": "string",
          "name": "description",
          "type": "string"
        },
        {
          "internalType": "enum AgentRegistry.AgentType",
          "name": "agentType",
          "type": "uint8"
        },
        {
          "internalType": "enum AgentRegistry.AgentStatus",
          "name": "status",
          "type": "uint8"
        },
        {
          "internalType": "uint256",
          "name": "signalPriceUSDC",
          "type": "uint256"
        },
        {
          "internalType": "uint256",
          "name": "totalHires",
          "type": "uint256"
        },
        {
          "internalType": "uint256",
          "name": "totalEarned",
          "type": "uint256"
        },
        {
          "internalType": "uint256",
          "name": "correctSignals",
          "type": "uint256"
        },
        {
          "internalType": "uint256",
          "name": "totalSignals",
          "type": "uint256"
        },
        {
          "internalType": "string",
          "name": "strategy",
          "type": "string"
        },
        {
          "internalType": "uint256",
          "name": "registeredAt",
          "type": "uint256"
        },
        {
          "internalType": "uint256",
          "name": "lastActiveAt",
          "type": "uint256"
        }
      ],
      "stateMutability": "view",
      "type": "function"
    },
    {
      "inputs": [
        {
          "internalType": "uint256",
          "name": "id",
          "type": "uint256"
        }
      ],
      "name": "getAgent",
      "outputs": [
        {
          "components": [
            {
              "internalType": "uint256",
              "name": "id",
              "type": "uint256"
            },
            {
              "internalType": "address",
              "name": "owner",
              "type": "address"
            },
            {
              "internalType": "address",
              "name": "agentWallet",
              "type": "address"
            },
            {
              "internalType": "string",
              "name": "name",
              "type": "string"
            },
            {
              "internalType": "string",
              "name": "description",
              "type": "string"
            },
            {
              "internalType": "enum AgentRegistry.AgentType",
              "name": "agentType",
              "type": "uint8"
            },
            {
              "internalType": "enum AgentRegistry.AgentStatus",
              "name": "status",
              "type": "uint8"
            },
            {
              "internalType": "uint256",
              "name": "signalPriceUSDC",
              "type": "uint256"
            },
            {
              "internalType": "uint256",
              "name": "totalHires",
              "type": "uint256"
            },
            {
              "internalType": "uint256",
              "name": "totalEarned",
              "type": "uint256"
            },
            {
              "internalType": "uint256",
              "name": "correctSignals",
              "type": "uint256"
            },
            {
              "internalType": "uint256",
              "name": "totalSignals",
              "type": "uint256"
            },
            {
              "internalType": "string",
              "name": "strategy",
              "type": "string"
            },
            {
              "internalType": "uint256",
              "name": "registeredAt",
              "type": "uint256"
            },
            {
              "internalType": "uint256",
              "name": "lastActiveAt",
              "type": "uint256"
            }
          ],
          "internalType": "struct AgentRegistry.Agent",
          "name": "",
          "type": "tuple"
        }
      ],
      "stateMutability": "view",
      "type": "function"
    },
    {
      "inputs": [
        {
          "internalType": "uint256",
          "name": "id",
          "type": "uint256"
        }
      ],
      "name": "getAgentAccuracy",
      "outputs": [
        {
          "internalType": "uint256",
          "name": "",
          "type": "uint256"
        }
      ],
      "stateMutability": "view",
      "type": "function"
    },
    {
      "inputs": [
        {
          "internalType": "address",
          "name": "owner",
          "type": "address"
        }
      ],
      "name": "getOwnerAgents",
      "outputs": [
        {
          "internalType": "uint256[]",
          "name": "",
          "type": "uint256[]"
        }
      ],
      "stateMutability": "view",
      "type": "function"
    },
    {
      "inputs": [
        {
          "internalType": "uint256",
          "name": "limit",
          "type": "uint256"
        }
      ],
      "name": "getTopAgents",
      "outputs": [
        {
          "components": [
            {
              "internalType": "uint256",
              "name": "id",
              "type": "uint256"
            },
            {
              "internalType": "address",
              "name": "owner",
              "type": "address"
            },
            {
              "internalType": "address",
              "name": "agentWallet",
              "type": "address"
            },
            {
              "internalType": "string",
              "name": "name",
              "type": "string"
            },
            {
              "internalType": "string",
              "name": "description",
              "type": "string"
            },
            {
              "internalType": "enum AgentRegistry.AgentType",
              "name": "agentType",
              "type": "uint8"
            },
            {
              "internalType": "enum AgentRegistry.AgentStatus",
              "name": "status",
              "type": "uint8"
            },
            {
              "internalType": "uint256",
              "name": "signalPriceUSDC",
              "type": "uint256"
            },
            {
              "internalType": "uint256",
              "name": "totalHires",
              "type": "uint256"
            },
            {
              "internalType": "uint256",
              "name": "totalEarned",
              "type": "uint256"
            },
            {
              "internalType": "uint256",
              "name": "correctSignals",
              "type": "uint256"
            },
            {
              "internalType": "uint256",
              "name": "totalSignals",
              "type": "uint256"
            },
            {
              "internalType": "string",
              "name": "strategy",
              "type": "string"
            },
            {
              "internalType": "uint256",
              "name": "registeredAt",
              "type": "uint256"
            },
            {
              "internalType": "uint256",
              "name": "lastActiveAt",
              "type": "uint256"
            }
          ],
          "internalType": "struct AgentRegistry.Agent[]",
          "name": "",
          "type": "tuple[]"
        }
      ],
      "stateMutability": "view",
      "type": "function"
    },
    {
      "inputs": [
        {
          "internalType": "uint256",
          "name": "",
          "type": "uint256"
        },
        {
          "internalType": "uint256",
          "name": "",
          "type": "uint256"
        }
      ],
      "name": "hireHistory",
      "outputs": [
        {
          "internalType": "address",
          "name": "coordinator",
          "type": "address"
        },
        {
          "internalType": "string",
          "name": "pair",
          "type": "string"
        },
        {
          "internalType": "uint256",
          "name": "paidUSDC",
          "type": "uint256"
        },
        {
          "internalType": "string",
          "name": "verdict",
          "type": "string"
        },
        {
          "internalType": "bool",
          "name": "wasCorrect",
          "type": "bool"
        },
        {
          "internalType": "uint256",
          "name": "timestamp",
          "type": "uint256"
        }
      ],
      "stateMutability": "view",
      "type": "function"
    },
    {
      "inputs": [
        {
          "internalType": "address",
          "name": "",
          "type": "address"
        },
        {
          "internalType": "uint256",
          "name": "",
          "type": "uint256"
        }
      ],
      "name": "ownerAgents",
      "outputs": [
        {
          "internalType": "uint256",
          "name": "",
          "type": "uint256"
        }
      ],
      "stateMutability": "view",
      "type": "function"
    },
    {
      "inputs": [
        {
          "internalType": "uint256",
          "name": "agentId",
          "type": "uint256"
        }
      ],
      "name": "pauseAgent",
      "outputs": [],
      "stateMutability": "nonpayable",
      "type": "function"
    },
    {
      "inputs": [
        {
          "internalType": "uint256",
          "name": "agentId",
          "type": "uint256"
        },
        {
          "internalType": "uint256",
          "name": "hireIndex",
          "type": "uint256"
        },
        {
          "internalType": "bool",
          "name": "wasCorrect",
          "type": "bool"
        }
      ],
      "name": "recordAccuracy",
      "outputs": [],
      "stateMutability": "nonpayable",
      "type": "function"
    },
    {
      "inputs": [
        {
          "internalType": "uint256",
          "name": "agentId",
          "type": "uint256"
        },
        {
          "internalType": "address",
          "name": "coordinator",
          "type": "address"
        },
        {
          "internalType": "string",
          "name": "pair",
          "type": "string"
        },
        {
          "internalType": "uint256",
          "name": "paidUSDC",
          "type": "uint256"
        },
        {
          "internalType": "string",
          "name": "verdict",
          "type": "string"
        }
      ],
      "name": "recordHire",
      "outputs": [],
      "stateMutability": "nonpayable",
      "type": "function"
    },
    {
      "inputs": [
        {
          "internalType": "string",
          "name": "name",
          "type": "string"
        },
        {
          "internalType": "string",
          "name": "description",
          "type": "string"
        },
        {
          "internalType": "string",
          "name": "strategy",
          "type": "string"
        },
        {
          "internalType": "enum AgentRegistry.AgentType",
          "name": "agentType",
          "type": "uint8"
        },
        {
          "internalType": "address",
          "name": "agentWallet",
          "type": "address"
        },
        {
          "internalType": "uint256",
          "name": "signalPriceUSDC",
          "type": "uint256"
        }
      ],
      "name": "registerAgent",
      "outputs": [
        {
          "internalType": "uint256",
          "name": "",
          "type": "uint256"
        }
      ],
      "stateMutability": "nonpayable",
      "type": "function"
    }
  ],
  "bytecode": "0x6080806040523461001657611941908161001b8239f35b5f80fdfe60806040526004361015610011575f80fd5b5f3560e01c80630a206008146113665780630cdff725146113405780632de5aaf714611228578063513856c8146110fc5780635afe82d0146109e957806362febe4f146109925780636ac189871461094b5780637585840a146108a3578063852a0e1514610717578063b1e29ea414610537578063b7dc12841461051a5763d36f2c621461009d575f80fd5b346105025760a0366003190112610502576024356001600160a01b0381168103610502576044356001600160401b038111610502576100e090369060040161168d565b906084356001600160401b0381116105025761010090369060040161168d565b6004355f525f60205260405f2060ff600582015460081c166003811015610506576105025760078101610133815461170d565b90556008810154606435810181116104ee57606435016008820155600a810161015c815461170d565b9055600d429101556004355f52600360205260405f20604051908160c08101106001600160401b0360c0840111176103fe5760c0820160405260018060a01b03841682526020820192858452606435604084015260608301525f60808301524260a08301528054600160401b8110156103fe576101de91600182018155611417565b9290926104db57815183546001600160a01b0319166001600160a01b0391909116178355518051906001600160401b0382116103fe5781906102236001860154611444565b601f811161048b575b50602090601f831160011461041d575f92610412575b50508160011b915f199060031b1c19161760018301555b6040810151600283015560608101518051906001600160401b0382116103fe576102866003850154611444565b601f81116103ba575b50602090601f83116001146103495791806005949260a0945f9261033e575b50508160011b915f199060031b1c19161760038501555b6102e460808201511515600486019060ff801983541691151516179055565b01519101557f36a7c90a1b3f57e92180db75d77e2fb22d0508f162feb6b96cd8ef010807070061031f6040519360408552604085019061155a565b60643560208501526001600160a01b03909216926004359281900390a3005b015190505f806102ae565b90600385015f5260205f20915f5b601f19851681106103a25750926005949260019260a09583601f1981161061038a575b505050811b0160038501556102c5565b01515f1960f88460031b161c191690555f808061037a565b91926020600181928685015181550194019201610357565b600385015f5260205f20601f840160051c8101602085106103f7575b601f830160051c820181106103ec57505061028f565b5f81556001016103d6565b50806103d6565b634e487b7160e01b5f52604160045260245ffd5b015190505f80610242565b9250600185015f5260205f20905f935b601f1984168510610470576001945083601f19811610610458575b505050811b016001830155610259565b01515f1960f88460031b161c191690555f8080610448565b8181015183556020948501946001909301929091019061042d565b909150600185015f5260205f20601f840160051c8101602085106104d4575b90849392915b601f830160051c820181106104c657505061022c565b5f81558594506001016104b0565b50806104aa565b634e487b7160e01b5f525f60045260245ffd5b634e487b7160e01b5f52601160045260245ffd5b5f80fd5b634e487b7160e01b5f52602160045260245ffd5b34610502575f366003190112610502576020600254604051908152f35b346105025760208060031936011261050257600280546004358082101561071057505b610563816118e0565b916105716040519384611498565b818352601f19610580836118e0565b01845f5b8281106106fa575050505f5b8281106105f8575050506040519082820192808352815180945260408301938160408260051b8601019301915f955b8287106105cc5785850386f35b9091929382806105e8600193603f198a820301865288516115b2565b96019201960195929190926105bf565b806106f5915f525f865260405f20600d604051916106158361147c565b8054835260018101546001600160a01b039081168a85015286820154166040840152610643600382016114b9565b6060840152610654600482016114b9565b6080840152600581015461068160ff61067281841660a0880161171b565b600892831c1660c08601611727565b600682015460e085015260078201546101008501528101546101208401526009810154610140840152600a8101546101608401526106c1600b82016114b9565b610180840152600c8101546101a084015201546101c08201526106e482876118f7565b526106ef81866118f7565b5061170d565b610590565b610702611733565b828288010152018590610584565b905061055a565b34610502576060806003193601126105025760043590604435908115156024358184036105025761078760039185610884575b865f5261077860209684885260046107658460405f20611417565b50019060ff801983541691151516179055565b865f5282865260405f20611417565b50019260405192604084525f94805461079f81611444565b9182604088015260019182811690815f1461084657506001146107ec575b887f81180d88ae26e3d83037388a2045b8d5ed1f60425bf018446d2cda2a683d576f88808b8a8a8301520390a2005b9092939596505f52845f20915f925b828410610833575050508401019291817f81180d88ae26e3d83037388a2045b8d5ed1f60425bf018446d2cda2a683d576f84886107bd565b80548885018601529286019281016107fb565b60ff191685890152505050151560051b8401019350817f81180d88ae26e3d83037388a2045b8d5ed1f60425bf018446d2cda2a683d576f84886107bd565b865f525f602052600960405f200161089c815461170d565b905561074a565b3461050257602080600319360112610502576001600160a01b036108c56116e2565b165f5260019081815260405f2091604051918281855491828152019081955f52825f20905f5b8181106109385750505083610901910384611498565b6040519281840190828552518091526040840194915f5b8281106109255785870386f35b8351875295810195928101928401610918565b82548452928401929185019185016108eb565b34610502576020366003190112610502576004355f90815260208190526040902060018101546001600160a01b0316330361050257600501805461ff001916610100179055005b34610502576040366003190112610502576109ab6116e2565b6001600160a01b03165f90815260016020526040902080546024359190821015610502576020916109db916116f8565b90546040519160031b1c8152f35b346105025760c0366003190112610502576004356001600160401b03811161050257610a1990369060040161168d565b6024356001600160401b03811161050257610a3890369060040161168d565b6044356001600160401b03811161050257610a5790369060040161168d565b6006606435101561050257608435906001600160a01b0382168203610502578351156110c75780511561108e57620186a060a43510611049576298968060a435116110045760025492610aa98461170d565b60025560405192610ab98461147c565b8484523360208501526001600160a01b03166040840152606083018590526080830152610aeb60643560a0840161171b565b5f60c083015260a43560e08301525f6101008301525f6101208301525f6101408301525f610160830152610180820152426101a0820152426101c0820152815f525f60205260405f2090805182556001820160018060a01b03602083015116906bffffffffffffffffffffffff60a01b9182825416179055600283019060018060a01b036040840151169082541617905560608101518051906001600160401b0382116103fe578190610ba16003860154611444565b601f8111610fb4575b50602090601f8311600114610f46575f92610f3b575b50508160011b915f199060031b1c19161760038301555b60808101518051906001600160401b0382116103fe578190610bfc6004860154611444565b601f8111610eeb575b50602090601f8311600114610e7d575f92610e72575b50508160011b915f199060031b1c19161760048301555b60a08101516006811015610506576005830190815460c084015160038110156105065761ff0060ff9160081b1692169061ffff19161717905560e08101516006830155610100810151600783015561012081015160088301556101408101516009830155610160810151600a8301556101808101518051906001600160401b0382116103fe57610cc5600b850154611444565b601f8111610e2e575b50602090601f8311600114610dbe579180600d94926101c0945f92610db3575b50508160011b915f199060031b1c191617600b8501555b6101a0810151600c8501550151910155335f52600160205260405f2091825492600160401b8410156103fe5783610d439160016020960181556116f8565b81549060031b9084821b915f19901b1916179055817fad4f4fe2e3781f239a4fd5fc6b57837f9b422262490c3e9a772135bdda8c6d06610d8e6040519360608552606085019061155a565b92610d9d868201606435611598565b60a43560408201528033940390a3604051908152f35b015190508880610cee565b90601f19831691600b86015f5260205f20925f5b818110610e1657509260019285926101c096600d989610610dfe575b505050811b01600b850155610d05565b01515f1960f88460031b161c19169055888080610dee565b92936020600181928786015181550195019301610dd2565b600b85015f5260205f20601f840160051c810160208510610e6b575b601f830160051c82018110610e60575050610cce565b5f8155600101610e4a565b5080610e4a565b015190508680610c1b565b9250600485015f5260205f20905f935b601f1984168510610ed0576001945083601f19811610610eb8575b505050811b016004830155610c32565b01515f1960f88460031b161c19169055868080610ea8565b81810151835560209485019460019093019290910190610e8d565b909150600485015f5260205f20601f840160051c810160208510610f34575b90849392915b601f830160051c82018110610f26575050610c05565b5f8155859450600101610f10565b5080610f0a565b015190508680610bc0565b9250600385015f5260205f20905f935b601f1984168510610f99576001945083601f19811610610f81575b505050811b016003830155610bd7565b01515f1960f88460031b161c19169055868080610f71565b81810151835560209485019460019093019290910190610f56565b909150600385015f5260205f20601f840160051c810160208510610ffd575b90849392915b601f830160051c82018110610fef575050610baa565b5f8155859450600101610fd9565b5080610fd3565b60405162461bcd60e51b815260206004820152601860248201527f4d6178207072696365206973202431302e3030205553444300000000000000006044820152606490fd5b60405162461bcd60e51b815260206004820152601760248201527f4d696e2070726963652069732024302e313020555344430000000000000000006044820152606490fd5b60405162461bcd60e51b815260206004820152601160248201527014dd1c985d1959de481c995c5d5a5c9959607a1b6044820152606490fd5b60405162461bcd60e51b815260206004820152600d60248201526c13985b59481c995c5d5a5c9959609a1b6044820152606490fd5b34610502576020366003190112610502576004355f9081526020819052604090208054600182015460028301546001600160a01b03918216939116611143600383016114b9565b61114f600484016114b9565b60058401549060068501546007860154600887015490600988015492600a89015494600b8a0161117e906114b9565b97600c8b01549a600d0154996040519d8e809e81526020015260408d01528b6101e06060819201528c016111b19161155a565b8b810360808d01526111c29161155a565b956111d360a08c0160ff8316611598565b60c08b019060081c60ff16906111e8916115a5565b60e08a01526101008901526101208801526101408701526101608601528481036101808601526112179161155a565b916101a08401526101c08301520390f35b3461050257602036600319011261050257611241611733565b506004355f525f60205261133c60405f20600d604051916112618361147c565b8054835260018101546001600160a01b0390811660208501526002820154166040840152611291600382016114b9565b60608401526112a2600482016114b9565b60808401526112cd60ff60058301546112c082821660a0880161171b565b60081c1660c08501611727565b600681015460e0840152600781015461010084015260088101546101208401526009810154610140840152600a81015461016084015261130f600b82016114b9565b610180840152600c8101546101a084015201546101c08201526040519182916020835260208301906115b2565b0390f35b3461050257602036600319011261050257602061135e6004356117a3565b604051908152f35b34610502576040366003190112610502576024356004355f52600360205260405f209081548110156105025761139b91611417565b5080546001600160a01b03166113b3600183016114b9565b9160028101546114066113c8600384016114b9565b91600560ff600486015416940154926113f3604051978897885260c0602089015260c088019061155a565b916040870152858203606087015261155a565b911515608084015260a08301520390f35b8054821015611430575f52600660205f20910201905f90565b634e487b7160e01b5f52603260045260245ffd5b90600182811c92168015611472575b602083101461145e57565b634e487b7160e01b5f52602260045260245ffd5b91607f1691611453565b6101e081019081106001600160401b038211176103fe57604052565b90601f801991011681019081106001600160401b038211176103fe57604052565b9060405191825f8254926114cc84611444565b9081845260019485811690815f1461153757506001146114f7575b50506114f592500383611498565b565b909391505f52602090815f20935f915b81831061151f5750506114f593508201015f806114e7565b85548884018501529485019487945091830191611507565b9150506114f594506020925060ff191682840152151560051b8201015f806114e7565b91908251928382525f5b848110611584575050825f602080949584010152601f8019910116010190565b602081830181015184830182015201611564565b9060068210156105065752565b9060038210156105065752565b908151815260018060a01b0380602084015116602083015260408301511660408201526116746116066115f460608501516101e080606087015285019061155a565b6080850151848203608086015261155a565b61161860a085015160a0850190611598565b61162a60c085015160c08501906115a5565b60e084015160e0840152610100808501519084015261012080850151908401526101408085015190840152610160808501519084015261018080850151908483039085015261155a565b916101a080820151908301526101c08091015191015290565b81601f82011215610502578035906001600160401b0382116103fe57604051926116c1601f8401601f191660200185611498565b8284526020838301011161050257815f926020809301838601378301015290565b600435906001600160a01b038216820361050257565b8054821015611430575f5260205f2001905f90565b5f1981146104ee5760010190565b60068210156105065752565b60038210156105065752565b604051906117408261147c565b816101c05f91828152826020820152826040820152606080820152606060808201528260a08201528260c08201528260e0820152826101008201528261012082015282610140820152826101608201526060610180820152826101a08201520152565b5f90815280602052604081206040516117bb8161147c565b8154815260018201546001600160a01b03908116602083015260028301541660408201526117eb600383016114b9565b60608201526117fc600483016114b9565b608082015261182760ff600584015461181a82821660a0860161171b565b60081c1660c08301611727565b600682015460e08201526007820154610100820152600882015461012082015260098201549061014081019182526101c0600d600a850154946101608401958652611874600b82016114b9565b610180850152600c8101546101a085015201549101528151156118db5751906064820291808304606414901517156118c757519182156118b357500490565b634e487b7160e01b81526012600452602490fd5b634e487b7160e01b83526011600452602483fd5b505090565b6001600160401b0381116103fe5760051b60200190565b80518210156114305760209160051b01019056fea26469706673582212206671c646cb7ff7f608eae2a030b438fd03e09e6d2d69cff556999b6f5810ba2264736f6c63430008140033",
  "linkReferences": {},
  "deployedLinkReferences": {},
  "immutableReferences": {},
  "inputSourceName": "project/contracts/AgentRegistry.sol",
  "buildInfoId": "solc-0_8_20-6933cc20ea1d68ca794109e427874c21d2be3f4c"
}