{
  "_format": "hh3-artifact-1",
  "contractName": "TradeJournal",
  "sourceName": "contracts/TradeJournal.sol",
  "abi": [
    {
      "anonymous": false,
      "inputs": [
        {
          "indexed": true,
          "internalType": "uint256",
          "name": "tradeId",
          "type": "uint256"
        },
        {
          "indexed": true,
          "internalType": "address",
          "name": "trader",
          "type": "address"
        },
        {
          "indexed": false,
          "internalType": "uint256",
          "name": "exitPrice",
          "type": "uint256"
        },
        {
          "indexed": false,
          "internalType": "int256",
          "name": "pnl",
          "type": "int256"
        }
      ],
      "name": "TradeClosed",
      "type": "event"
    },
    {
      "anonymous": false,
      "inputs": [
        {
          "indexed": true,
          "internalType": "uint256",
          "name": "tradeId",
          "type": "uint256"
        },
        {
          "indexed": true,
          "internalType": "address",
          "name": "trader",
          "type": "address"
        },
        {
          "indexed": false,
          "internalType": "string",
          "name": "pair",
          "type": "string"
        },
        {
          "indexed": false,
          "internalType": "enum TradeJournal.TradeSide",
          "name": "side",
          "type": "uint8"
        },
        {
          "indexed": false,
          "internalType": "uint256",
          "name": "entryPrice",
          "type": "uint256"
        },
        {
          "indexed": false,
          "internalType": "uint256",
          "name": "positionSize",
          "type": "uint256"
        }
      ],
      "name": "TradeOpened",
      "type": "event"
    },
    {
      "inputs": [
        {
          "internalType": "uint256",
          "name": "tradeId",
          "type": "uint256"
        },
        {
          "internalType": "uint256",
          "name": "exitPrice",
          "type": "uint256"
        }
      ],
      "name": "closeTrade",
      "outputs": [],
      "stateMutability": "nonpayable",
      "type": "function"
    },
    {
      "inputs": [
        {
          "internalType": "uint256",
          "name": "limit",
          "type": "uint256"
        }
      ],
      "name": "getRecentTrades",
      "outputs": [
        {
          "components": [
            {
              "internalType": "uint256",
              "name": "id",
              "type": "uint256"
            },
            {
              "internalType": "address",
              "name": "trader",
              "type": "address"
            },
            {
              "internalType": "string",
              "name": "pair",
              "type": "string"
            },
            {
              "internalType": "enum TradeJournal.TradeSide",
              "name": "side",
              "type": "uint8"
            },
            {
              "internalType": "uint256",
              "name": "entryPrice",
              "type": "uint256"
            },
            {
              "internalType": "uint256",
              "name": "exitPrice",
              "type": "uint256"
            },
            {
              "internalType": "uint256",
              "name": "positionSize",
              "type": "uint256"
            },
            {
              "internalType": "uint8",
              "name": "signalConfidence",
              "type": "uint8"
            },
            {
              "internalType": "int256",
              "name": "pnl",
              "type": "int256"
            },
            {
              "internalType": "enum TradeJournal.TradeStatus",
              "name": "status",
              "type": "uint8"
            },
            {
              "internalType": "uint256",
              "name": "openedAt",
              "type": "uint256"
            },
            {
              "internalType": "uint256",
              "name": "closedAt",
              "type": "uint256"
            },
            {
              "internalType": "string",
              "name": "notes",
              "type": "string"
            }
          ],
          "internalType": "struct TradeJournal.Trade[]",
          "name": "",
          "type": "tuple[]"
        }
      ],
      "stateMutability": "view",
      "type": "function"
    },
    {
      "inputs": [
        {
          "internalType": "uint256",
          "name": "id",
          "type": "uint256"
        }
      ],
      "name": "getTrade",
      "outputs": [
        {
          "components": [
            {
              "internalType": "uint256",
              "name": "id",
              "type": "uint256"
            },
            {
              "internalType": "address",
              "name": "trader",
              "type": "address"
            },
            {
              "internalType": "string",
              "name": "pair",
              "type": "string"
            },
            {
              "internalType": "enum TradeJournal.TradeSide",
              "name": "side",
              "type": "uint8"
            },
            {
              "internalType": "uint256",
              "name": "entryPrice",
              "type": "uint256"
            },
            {
              "internalType": "uint256",
              "name": "exitPrice",
              "type": "uint256"
            },
            {
              "internalType": "uint256",
              "name": "positionSize",
              "type": "uint256"
            },
            {
              "internalType": "uint8",
              "name": "signalConfidence",
              "type": "uint8"
            },
            {
              "internalType": "int256",
              "name": "pnl",
              "type": "int256"
            },
            {
              "internalType": "enum TradeJournal.TradeStatus",
              "name": "status",
              "type": "uint8"
            },
            {
              "internalType": "uint256",
              "name": "openedAt",
              "type": "uint256"
            },
            {
              "internalType": "uint256",
              "name": "closedAt",
              "type": "uint256"
            },
            {
              "internalType": "string",
              "name": "notes",
              "type": "string"
            }
          ],
          "internalType": "struct TradeJournal.Trade",
          "name": "",
          "type": "tuple"
        }
      ],
      "stateMutability": "view",
      "type": "function"
    },
    {
      "inputs": [
        {
          "internalType": "address",
          "name": "user",
          "type": "address"
        }
      ],
      "name": "getUserStats",
      "outputs": [
        {
          "internalType": "uint256",
          "name": "total",
          "type": "uint256"
        },
        {
          "internalType": "uint256",
          "name": "wins",
          "type": "uint256"
        },
        {
          "internalType": "int256",
          "name": "pnl",
          "type": "int256"
        },
        {
          "internalType": "uint256",
          "name": "winRate",
          "type": "uint256"
        }
      ],
      "stateMutability": "view",
      "type": "function"
    },
    {
      "inputs": [
        {
          "internalType": "address",
          "name": "user",
          "type": "address"
        }
      ],
      "name": "getUserTrades",
      "outputs": [
        {
          "internalType": "uint256[]",
          "name": "",
          "type": "uint256[]"
        }
      ],
      "stateMutability": "view",
      "type": "function"
    },
    {
      "inputs": [],
      "name": "globalTradeCount",
      "outputs": [
        {
          "internalType": "uint256",
          "name": "",
          "type": "uint256"
        }
      ],
      "stateMutability": "view",
      "type": "function"
    },
    {
      "inputs": [
        {
          "internalType": "string",
          "name": "pair",
          "type": "string"
        },
        {
          "internalType": "enum TradeJournal.TradeSide",
          "name": "side",
          "type": "uint8"
        },
        {
          "internalType": "uint256",
          "name": "entryPrice",
          "type": "uint256"
        },
        {
          "internalType": "uint256",
          "name": "positionSize",
          "type": "uint256"
        },
        {
          "internalType": "uint8",
          "name": "signalConfidence",
          "type": "uint8"
        },
        {
          "internalType": "string",
          "name": "notes",
          "type": "string"
        }
      ],
      "name": "openTrade",
      "outputs": [
        {
          "internalType": "uint256",
          "name": "",
          "type": "uint256"
        }
      ],
      "stateMutability": "nonpayable",
      "type": "function"
    },
    {
      "inputs": [
        {
          "internalType": "address",
          "name": "",
          "type": "address"
        }
      ],
      "name": "totalPnL",
      "outputs": [
        {
          "internalType": "int256",
          "name": "",
          "type": "int256"
        }
      ],
      "stateMutability": "view",
      "type": "function"
    },
    {
      "inputs": [
        {
          "internalType": "address",
          "name": "",
          "type": "address"
        }
      ],
      "name": "totalTrades",
      "outputs": [
        {
          "internalType": "uint256",
          "name": "",
          "type": "uint256"
        }
      ],
      "stateMutability": "view",
      "type": "function"
    },
    {
      "inputs": [
        {
          "internalType": "uint256",
          "name": "",
          "type": "uint256"
        }
      ],
      "name": "trades",
      "outputs": [
        {
          "internalType": "uint256",
          "name": "id",
          "type": "uint256"
        },
        {
          "internalType": "address",
          "name": "trader",
          "type": "address"
        },
        {
          "internalType": "string",
          "name": "pair",
          "type": "string"
        },
        {
          "internalType": "enum TradeJournal.TradeSide",
          "name": "side",
          "type": "uint8"
        },
        {
          "internalType": "uint256",
          "name": "entryPrice",
          "type": "uint256"
        },
        {
          "internalType": "uint256",
          "name": "exitPrice",
          "type": "uint256"
        },
        {
          "internalType": "uint256",
          "name": "positionSize",
          "type": "uint256"
        },
        {
          "internalType": "uint8",
          "name": "signalConfidence",
          "type": "uint8"
        },
        {
          "internalType": "int256",
          "name": "pnl",
          "type": "int256"
        },
        {
          "internalType": "enum TradeJournal.TradeStatus",
          "name": "status",
          "type": "uint8"
        },
        {
          "internalType": "uint256",
          "name": "openedAt",
          "type": "uint256"
        },
        {
          "internalType": "uint256",
          "name": "closedAt",
          "type": "uint256"
        },
        {
          "internalType": "string",
          "name": "notes",
          "type": "string"
        }
      ],
      "stateMutability": "view",
      "type": "function"
    },
    {
      "inputs": [
        {
          "internalType": "address",
          "name": "",
          "type": "address"
        },
        {
          "internalType": "uint256",
          "name": "",
          "type": "uint256"
        }
      ],
      "name": "userTrades",
      "outputs": [
        {
          "internalType": "uint256",
          "name": "",
          "type": "uint256"
        }
      ],
      "stateMutability": "view",
      "type": "function"
    },
    {
      "inputs": [
        {
          "internalType": "address",
          "name": "",
          "type": "address"
        }
      ],
      "name": "winningTrades",
      "outputs": [
        {
          "internalType": "uint256",
          "name": "",
          "type": "uint256"
        }
      ],
      "stateMutability": "view",
      "type": "function"
    }
  ],
  "bytecode": "0x60808060405234610016576111bf908161001b8239f35b5f80fdfe6080806040526004361015610012575f80fd5b5f3560e01c9081630a05760314610de3575080631e6c598e14610ce65780632db25e0514610c0557806333ea4b7814610be85780634e43603a14610b455780636152904314610b0d57806369f504a81461062c57806373b1caa3146103cf578063927c774214610327578063b1b1ffab146102d0578063c63877eb146100dc5763d4290e99146100a0575f80fd5b346100d85760203660031901126100d8576001600160a01b036100c1610e17565b165f526003602052602060405f2054604051908152f35b5f80fd5b346100d8576020806003193601126100d85760058054909190600435808210156102ca5750805b61010c8261115d565b9161011a6040519384610e82565b808352601f196101298261115d565b01845f5b8281106102b4575091925f19808201935091508083115f5b8581106101a757604080518981528851818b018190525f92818d1b83018101918b8d01918d9085015b82871061017b5785850386f35b909192938280610197600193603f198a82030186528851610f9d565b960192019601959291909261016e565b816102a0578381840301908582116102a05761029b915f525f89528861027a600c8c61025e60405f2091604051956101de87610e65565b8354875260018401546001600160a01b03169087015261020060028401610ea4565b604087015260ff9061021b82600386015416606089016110e6565b6004840154608088015283015460a0870152600683015460c08701528060078401541660e0870152600883015461010087015260098301541661012086016110f2565b600a810154610140850152600b81015461016085015201610ea4565b61018082015261028a828a611175565b526102958189611175565b506110d8565b610145565b634e487b7160e01b5f52601160045260245ffd5b6102bc6110fe565b82828801015201859061012d565b90610103565b346100d85760403660031901126100d8576102e9610e17565b6001600160a01b03165f908152600160205260409020805460243591908210156100d857602091610319916110af565b90546040519160031b1c8152f35b346100d8576020806003193601126100d8576001600160a01b03610349610e17565b165f5260019081815260405f2091604051918281855491828152019081955f52825f20905f5b8181106103bc5750505083610385910384610e82565b6040519281840190828552518091526040840194915f5b8281106103a95785870386f35b835187529581019592810192840161039c565b825484529284019291850191850161036f565b346100d85760403660031901126100d857600435602490813591815f526020905f825260405f2060018060a01b0360018201541633036105f75760098101805460ff811660038110156105e4576105b5576005830187905542600b84015560ff1916600117905560048101548086035f821280158883131688831290911617610541578060ff60038501541660028110156105a25760011461058d575b50600683015481810291600160ff1b91905f82128382141661057a5781840514901517156105675782156105545781145f19831416610541579060089105910191818355335f526004845260405f209081545f848201948512911290801582169115161761052e5750555f815413610512575b54906040519384528301527fc3c5fd6b6aa1a8af6a7e7b8af72bb2d6ebe133c0222262fa8a3e73a68a83c42560403393a3005b335f526003825260405f2061052781546110d8565b90556104df565b634e487b7160e01b5f9081526011600452fd5b83634e487b7160e01b5f5260116004525ffd5b84634e487b7160e01b5f5260126004525ffd5b84634e487b7160e01b5f5260116004525ffd5b86634e487b7160e01b5f5260116004525ffd5b9050600160ff1b8114610541575f038761046c565b85634e487b7160e01b5f5260216004525ffd5b60405162461bcd60e51b815260048101869052600881860152672737ba1037b832b760c11b6044820152606490fd5b84634e487b7160e01b5f5260216004525ffd5b60405162461bcd60e51b815260048101849052600e818401526d4e6f7420796f757220747261646560901b6044820152606490fd5b346100d85760c03660031901126100d85760043567ffffffffffffffff81116100d85761065d903690600401611059565b600260243510156100d85760843560ff811681036100d85760a43567ffffffffffffffff81116100d857610695903690600401611059565b90600554916106a3836110d8565b60055560ff604051926106b584610e65565b8484523360208501528560408501526106d3602435606086016110e6565b60443560808501525f60a085015260643560c08501521660e08301525f6101008301525f610120830152426101408301525f610160830152610180820152815f525f60205260405f2090805182556001820160018060a01b036020830151166bffffffffffffffffffffffff60a01b825416179055604081015180519067ffffffffffffffff821161096357819061076e6002860154610e2d565b601f8111610abd575b50602090601f8311600114610a4f575f92610a44575b50508160011b915f199060031b1c19161760028301555b6060810151906002821015610a30576003830160ff199260ff8483541691161790556080810151600484015560a0810151600584015560c081015160068401556007830160ff60e083015116838254161790556101008101516008840155600983016101208201516003811015610a305760ff610180948354169116179055610140810151600a840155610160810151600b840155015180519067ffffffffffffffff82116109635761085a600c840154610e2d565b601f81116109ec575b50602090601f831160011461098257600c92915f9183610977575b50508160011b915f199060031b1c1916179101555b335f52600160205260405f20918254926801000000000000000084101561096357836108c69160016020960181556110af565b81549060031b9084821b915f19901b1916179055335f526002835260405f206108ef81546110d8565b90556108fc6005546110d8565b600555817f1334919b911d21f44c77240785b7a8f1365134db2ced843d6372f362524b3e3c61093660405193608085526080850190610f45565b92610945868201602435610f83565b604435604082015260643560608201528033940390a3604051908152f35b634e487b7160e01b5f52604160045260245ffd5b01519050868061087e565b90601f19831691600c85015f5260205f20925f5b8181106109d45750916001939185600c9694106109bc575b505050811b01910155610893565b01515f1960f88460031b161c191690558680806109ae565b92936020600181928786015181550195019301610996565b600c84015f5260205f20601f840160051c810160208510610a29575b601f830160051c82018110610a1e575050610863565b5f8155600101610a08565b5080610a08565b634e487b7160e01b5f52602160045260245ffd5b01519050868061078d565b9250600285015f5260205f20905f935b601f1984168510610aa2576001945083601f19811610610a8a575b505050811b0160028301556107a4565b01515f1960f88460031b161c19169055868080610a7a565b81810151835560209485019460019093019290910190610a5f565b909150600285015f5260205f20601f840160051c810160208510610b06575b90849392915b601f830160051c82018110610af8575050610777565b5f8155859450600101610ae2565b5080610adc565b346100d85760203660031901126100d8576001600160a01b03610b2e610e17565b165f526002602052602060405f2054604051908152f35b346100d85760203660031901126100d8576001600160a01b03610b66610e17565b165f52600260205260405f2054600360205260405f205490600460205260405f20549181159283155f14610bdd576064820293828504606414831517156102a057610bc9578260809404915b604051938452602084015260408301526060820152f35b634e487b7160e01b5f52601260045260245ffd5b608093505f91610bb2565b346100d8575f3660031901126100d8576020600554604051908152f35b346100d85760203660031901126100d857610c1e6110fe565b506004355f525f602052610ce260405f20610cc8600c60405192610c4184610e65565b8054845260018101546001600160a01b03166020850152610c6460028201610ea4565b6040850152610c7d60ff600383015416606086016110e6565b60048101546080850152600581015460a0850152600681015460c085015260ff60078201541660e0850152600881015461010085015261025e60ff60098301541661012086016110f2565b610180820152604051918291602083526020830190610f9d565b0390f35b346100d85760203660031901126100d8576004355f908152602081905260409020805460018201546001600160a01b031691610d2460028201610ea4565b90600381015460ff1690600481015460058201546006830154600784015460ff16600885015491600986015460ff1693600a87015495600b88015497600c01610d6c90610ea4565b996040519c8d9c8d5260208d01528b6101a06040819201528c01610d8f91610f45565b9860608c01610d9d91610f83565b60808b015260a08a015260c089015260e08801526101008701526101208601610dc591610f90565b610140850152610160840152828103610180840152610ce291610f45565b346100d85760203660031901126100d8576020906001600160a01b03610e07610e17565b165f526004825260405f20548152f35b600435906001600160a01b03821682036100d857565b90600182811c92168015610e5b575b6020831014610e4757565b634e487b7160e01b5f52602260045260245ffd5b91607f1691610e3c565b6101a0810190811067ffffffffffffffff82111761096357604052565b90601f8019910116810190811067ffffffffffffffff82111761096357604052565b9060405191825f825492610eb784610e2d565b9081845260019485811690815f14610f225750600114610ee2575b5050610ee092500383610e82565b565b909391505f52602090815f20935f915b818310610f0a575050610ee093508201015f80610ed2565b85548884018501529485019487945091830191610ef2565b915050610ee094506020925060ff191682840152151560051b8201015f80610ed2565b91908251928382525f5b848110610f6f575050825f602080949584010152601f8019910116010190565b602081830181015184830182015201610f4f565b906002821015610a305752565b906003821015610a305752565b90611056918051825260018060a01b036020820151166020830152610fd160408201516101a0806040860152840190610f45565b91610fe460608301516060830190610f83565b6080820151608082015260a082015160a082015260c082015160c082015260ff60e08301511660e0820152610100808301519082015261102d6101208084015190830190610f90565b610140808301519082015261016080830151908201526101808092015191818403910152610f45565b90565b81601f820112156100d85780359067ffffffffffffffff8211610963576040519261108e601f8401601f191660200185610e82565b828452602083830101116100d857815f926020809301838601378301015290565b80548210156110c4575f5260205f2001905f90565b634e487b7160e01b5f52603260045260245ffd5b5f1981146102a05760010190565b6002821015610a305752565b6003821015610a305752565b6040519061110b82610e65565b6060610180835f80825280602083015283604083015280848301528060808301528060a08301528060c08301528060e08301528061010083015280610120830152806101408301526101608201520152565b67ffffffffffffffff81116109635760051b60200190565b80518210156110c45760209160051b01019056fea2646970667358221220c0986bbf03f2a703d13f061d13567ed85dcf2290761b2d1eb681be7dec1feffa64736f6c63430008140033",
  "linkReferences": {},
  "deployedLinkReferences": {},
  "immutableReferences": {},
  "inputSourceName": "project/contracts/TradeJournal.sol",
  "buildInfoId": "solc-0_8_20-6933cc20ea1d68ca794109e427874c21d2be3f4c"
}